:020000040800F2
:100000008859002039020008A10600089906000856
:100010009D06000831050008DD080008000000000A
:10002000000000000000000000000000D1070008F0
:10003000950600080000000081070008F507000889
:10004000530200085302000853020008530200083C
:10005000530200085302000853020008530200082C
:1000600053020008530200085302000891060008DA
:10007000530200085302000853020008530200080C
:1000800053020008530200085302000853020008FC
:1000900035050008BD0500084506000853020008A4
:1000A00053020008530200085302000853020008DC
:1000B00053020008D5080008530200085302000844
:1000C00053020008530200085302000853020008BC
:1000D00053020008D9080008530200085302000820
:1000E00053020008530200085302000800000000F9
:1000F0000000000000000000000000000000000000
:100100000000000053020008530200080000000035
:100110005302000853020008000000000000000025
:10012000530200085302000853020008530200085B
:1001300000000000000000000000000000000000BF
:100140000000000000000000000000005302000852
:1001500000000000000000005302000853020008E5
:100160000000000000000000000000005302000832
:1001700000F002F800F050F814A696E8000CB24423
:10018000B344DA4501D100F047F8BAE80F000FA6F2
:1001900096E83000A5EB040504EB0607AAEB07047C
:1001A000A7F101074FEA15154FEA3414A4F1010431
:1001B000AC4201D300F030F813F0010F18BFFB1A66
:1001C00043F0010300F001F8DBE71847907B0000E3
:1001D000B07B0000103A24BF78C878C1FAD8520723
:1001E00024BF30C830C144BF04680C6070470000B1
:1001F000704700000023002400250026103A28BF85
:1002000078C1FBD8520728BF30C148BF0B60704788
:100210001FB51FBD10B510BD00F04FF91146FFF717
:10022000F7FF03F0E9FC00F06DF903B4FFF7F2FF0C
:1002300003BC00F075F900000948804709480047F1
:10024000FEE7FEE7FEE7FEE7FEE7FEE7FEE7FEE786
:10025000FEE7FEE704480549054A064B70470000E3
:100260000108000871010008885300208859002007
:10027000885500208855002053EA020C00F0698060
:100280002DE9F04B4FF00006002B1FBFB3FA83F5AA
:1002900003FA05F424FA05F65E4012BF1643B2FADB
:1002A00082F502FA05F4C5F120051EBF22FA05FC0D
:1002B00044EA0C04203556EA044C4FEA144418BFB3
:1002C000641C4FF000084FF00009904271EB030CE2
:1002D00039D3002919BFB1FA81F701FA07F6B0FA4C
:1002E00080F700FA07F6C7F120071EBF20FA07FCC7
:1002F00046EA0C062037B6FBF4FCA7EB0507103FD7
:1003000007F01F0BCBF120062CFA06F60CFA0BFBBC
:1003100044BFB3460026202FA4BF5E464FF0000B1B
:100320005BEA060C08BF4FF0010B19EB0B0948EB19
:100330000608ABFB027C06FB02CC0BFB03CCC01B0C
:1003400071EB0C01C1E70B46024641464846BDE849
:10035000F08B13B5084318BF4FF0FF300146AFF3E1
:100360000080BDE81C407047032A40F2308010F046
:10037000030C00F0158011F8013BBCF1020F624440
:1003800098BF11F801CB00F8013B38BF11F8013BD1
:10039000A2F1040298BF00F801CB38BF00F8013B7E
:1003A00011F0030300F05780083AC0F0088051F8BC
:1003B000043B083A51F804CBA0E80810F5E7121DF9
:1003C0005CBF51F8043B40F8043BAFF30080D20718
:1003D00024BF11F8013B11F801CB48BF11F8012BE4
:1003E00024BF00F8013B00F801CB48BF00F8012B07
:1003F000704702F0FF0343EA032242EA024200F0A0
:1004000002B84FF0000200B51346944696462039D4
:1004100022BFA0E80C50A0E80C50B1F12001BFF4BD
:10042000F7AF090728BFA0E80C5048BF0CC05DF823
:1004300004EB890028BF40F8042B08BF704748BF71
:1004400020F8022B11F0804F18BF00F8012B7047E5
:1004500070477047704710B5203AC0F00B80B1E884
:100460001850A0E81850B1E81850A0E81850203AE9
:10047000BFF4F5AF5FEA027C24BFB1E81850A0E8F2
:10048000185044BF18C918C0BDE810405FEA827C0C
:1004900024BF51F8043B40F8043B08BF7047D20723
:1004A00028BF31F8023B48BF11F8012B28BF20F8C4
:1004B000023B48BF00F8012B7047754600F02CF84E
:1004C000AE4605006946534620F00700854618B041
:1004D00020B5FFF7BFFEBDE820404FF000064FF00B
:1004E00000074FF000084FF0000BAC46ACE8C00925
:1004F000ACE8C009ACE8C009ACE8C00921F00701CC
:100500008D46704710B50446AFF300802046BDE825
:100510001040FFF78ABE0000004870470800002026
:1005200001491820ABBEFEE726000200704700001C
:10053000FFE7FEE780B586B00020059046F2004058
:10054000C4F20000092100F03DFF28B3FFE70020BE
:100550000490039002900190009040F26820C2F253
:1005600000000068B8B1FFE747F6F830C0F60000B9
:100570004068426800206946904701280BD1FFE798
:1005800040F26820C2F200000068694605AA002314
:1005900006F0B0FBFFE7FFE7059860B1FFE74EF616
:1005A0000451CEF200014FF080500860BFF34F8F2E
:1005B000BFF36F8FFFE706B080BD000080B586B047
:1005C0000020059046F20040C4F200000C2100F02B
:1005D000F9FE28B3FFE700200490039002900190F9
:1005E000009040F26820C2F200000068B8B1FFE756
:1005F00047F6F830C0F600004068426801206946BE
:10060000904701280BD1FFE740F26820C2F20000BA
:100610000068694605AA002306F06CFBFFE7FFE7C8
:10062000059860B1FFE74EF60451CEF200014FF09D
:1006300080500860BFF34F8FBFF36F8FFFE706B0A6
:1006400080BD000080B582B00020019046F20040DD
:10065000C4F20000042100F0B5FEB8B1FFE746F295
:100660001840C4F20000006800F07000019040F2F1
:100670008801C2F20001886A0130886246F20040B7
:10068000C4F20000042100F04DFEFFE702B080BD7F
:100690007047000070470000FFE7FEE7FFE7FEE756
:1006A0007047000088B0079006910592079800F007
:1006B000070004900498C0F10700052803D3FFE762
:1006C0000420019004E00498C0F107000190FFE7C6
:1006D0000198039004980430062803D8FFE700200F
:1006E000009003E0049803380090FFE70098029020
:1006F00006980399012202FA01F101390840029B90
:10070000984005999A40013A1140084308B0704753
:1007100088B0079006910592079800F007000490B2
:100720000498C0F10700052803D3FFE704200190D7
:1007300004E00498C0F107000190FFE701980390DE
:1007400004980430062803D8FFE70020009003E057
:10075000049803380090FFE70098029006980399E8
:10076000012202FA01F101390840029B98400599E3
:100770009A40013A1140084308B070470000000059
:10078000EFF30980BFF36F8F0D4B1A6820E9F00F6C
:1007900010602DE908404FF0500080F3118805F0FB
:1007A00089FA4FF0000080F31188BDE8084019680D
:1007B0000868B0E8F00F80F30988BFF36F8F7047C7
:1007C00010010020000000000000000000000000F8
:1007D000074B19680868B0E8F00F80F30988BFF389
:1007E0006F8F4FF0000080F311884EF00D0E7047B0
:1007F0001001002080B505F0BFFE06F083F880BD33
:1008000041F21C01C4F20201086840F08050086007
:1008100047F25002C4F20002107840F00400107059
:10082000086820F08050086041F20001C4F2020123
:10083000086840F001000860FFE741F20000C4F2E0
:1008400002000068C0F34000012801D0FFE7F4E790
:1008500041F20401C4F20201086820F003000860BC
:10086000FFE741F20400C4F202000068800880073C
:1008700008B1FFE7F5E741F20001C4F202010868A0
:100880004FF6FF72CFF6F2621040086041F20401A9
:10089000C4F202010020086041F22C01C4F20201FE
:1008A00041F61070086041F23001C4F202014FF4C9
:1008B0008010086041F20801C4F202014FF41F00E9
:1008C00008604EF60851CEF200014FF0006008605B
:1008D000704700007047000070470000FFE7FEE728
:1008E00081B08DF803009DF9030000280ED4FFE7C6
:1008F0009DF9031001F01F02012090404A094EF2B9
:100900000011CEF2000141F82200FFE701B070476C
:100910004EF60C50CEF200000068C0F30220704783
:100920004EF60C50CEF200000068C0F30220704773
:1009300082B08DF8070000919DF9070000280AD4C5
:10094000FFE7009800019DF907104EF20042CEF239
:10095000000288540BE0009800019DF8071001F098
:100960000F014EF61452CEF200028854FFE702B097
:100970007047000082B08DF8070000919DF90700D4
:1009800000280AD4FFE7009800019DF907104EF2F5
:100990000042CEF2000288540BE0009800019DF85E
:1009A000071001F00F014EF61452CEF200028854E7
:1009B000FFE702B07047000083B00290029800F099
:1009C000070000904EF60C51CEF20001086801902D
:1009D00001984FF6FF02104001900198009A40EAFA
:1009E00002200022C0F2FA521043019001980860E0
:1009F00003B0704782B0019000910098027801998D
:100A0000486802F0010220F4807040EA0220486049
:100A1000009842780199886802F0010220F00200F3
:100A200040EA42008860009882780199886802F064
:100A3000010220F4006040EAC22088600098C0787B
:100A4000421E0199C86A02F00F0220F4700040EAC9
:100A50000250C86202B0704781B000900099002037
:100A60000870009948700099887000990120C8703A
:100A700001B0704781B000900099886840F008008C
:100A8000886001B07047000082B0009000988068D4
:100A9000C008C00720B1FFE701208DF8070003E080
:100AA00000208DF80700FFE79DF8070002B07047AF
:100AB00081B000900099886840F00400886001B01F
:100AC0007047000082B00090009880688008C007DE
:100AD00020B1FFE701208DF8070003E000208DF82A
:100AE0000700FFE79DF8070002B0704782B0019051
:100AF0008DF803109DF803200199886802F0010227
:100B000020F4807040EA0220886002B07047000044
:100B100082B001908DF803109DF803200199886838
:100B200062F30000886002B07047000083B002905A
:100B30008DF807108DF806208DF805309DF8070018
:100B400009281CDCFFE70298006900909DF8070067
:100B500000EB4001072000FA01F100988843009063
:100B60009DF805009DF8071001EB410100FA01F125
:100B70000098084300900098029908611EE00298CE
:100B8000C06800909DF8070000EB4000A0F11E0136
:100B9000072000FA01F10098884300909DF80500B5
:100BA0009DF8071001EB41011E3900FA01F1009890
:100BB0000843009000980299C860FFE79DF806007E
:100BC0000D281FDBFFE70298C06A00909DF8060021
:100BD00000EB8000A0F141011F2000FA01F1009814
:100BE000884300909DF807009DF8061001EB8101F5
:100BF000413900FA01F100980843009000980299E9
:100C0000C86242E09DF8060007281FDBFFE7029854
:100C1000006B00909DF8060000EB8000A0F123011E
:100C20001F2000FA01F10098884300909DF807000A
:100C30009DF8061001EB8101233900FA01F10098BB
:100C4000084300900098029908631DE00298406BE9
:100C500000909DF8060000EB8000411F1F2000FA65
:100C600001F10098884300909DF807009DF8061058
:100C700001EB8101053900FA01F100980843009069
:100C8000009802994863FFE7FFE703B07047000050
:100C900082B001908DF803108DF802209DF80300BA
:100CA000082811DBFFE70199886840F00070886030
:100CB0009DF8030000F007020199886820F4602085
:100CC00040EA4240886010E00199886820F0007096
:100CD00088609DF8030000F007020199886820F4FD
:100CE000602040EA42408860FFE79DF802200199B9
:100CF000886802F0010220F4801040EA0250886007
:100D000002B0704782B001908DF803109DF8032067
:100D10000199486802F0010220F4006040EAC22014
:100D2000486002B07047000081B08DF803009DF864
:100D3000032042F20841C4F20101086802F00102F6
:100D400020F4000040EAC250086001B07047000083
:100D500080B582B0642004F00FFE05F055FD40F22E
:100D60008801C2F200010191886104F013FC01992D
:100D7000486102B080BD000080B588B047F6F83009
:100D8000C0F600000068804740F28800C2F2000010
:100D900003903021FFF735FB4FF4967004F0ECFD23
:100DA000039800F08FFF40F2F400C2F200006946A1
:100DB000486001200790086043F25170C0F60000BF
:100DC00047F6D841C0F600014FF4007206920523A1
:100DD000049306F0B3FA049B079840F28002C2F233
:100DE000000269464A60086042F25970C0F600008D
:100DF00047F6E641C0F600014FF4807206F09EFA15
:100E000040F26800C2F200006946486002200860B3
:100E100041F69910C0F6000047F60151C0F60001F6
:100E20004FF4806205924FF4FA7306F087FA059A40
:100E3000079B40F26C00C2F2000069464860032044
:100E4000086041F6C520C0F6000047F60D51C0F617
:100E5000000106F073FA069A079840F2F003C2F216
:100E6000000369464B60086042F61120C0F600009E
:100E700047F6F341C0F600010A2306F05FFA08B016
:100E800080BD000080B582B001200190072003F0F2
:100E90009FFD47F6F830C0F600000090C06800687B
:100EA00080470098006900688047019802B080BDC3
:100EB00086B00590049100208DF80F0002900599EE
:100EC000086820F0020008600599086840F00100F9
:100ED0000860FFE7059841680020C907019041B903
:100EE000FFE702984FF6FF71401A18BF01200190EA
:100EF000FFE70198C00720B1FFE702980130029098
:100F0000E8E705984068C007002800F08380FFE705
:100F1000049842780599086802F0010220F08000E8
:100F200040EAC2100860049882780599086802F0C7
:100F3000010220F0400040EA821008600498C27864
:100F40000599086802F0010220F0200040EA4210F2
:100F50000860049802790599086802F0010220F0FF
:100F6000100040EA02100860049842790599086868
:100F700002F0010220F0080040EAC2000860049874
:100F800082790599086802F0010220F0040040EA25
:100F9000820008600498007800F001020599C86991
:100FA00020F0804040EA8270C86104980278059978
:100FB000C869520862F3DF70C8610599086820F0BB
:100FC0000100086000200290FFE7059841680020BA
:100FD000C907009041B1FFE702984FF6FF71401A30
:100FE00018BF01200090FFE70098C00720B1FFE77D
:100FF000029801300290E8E705984068C00720B1E8
:10100000FFE700208DF80F0003E001208DF80F00AE
:10101000FFE703E000208DF80F00FFE79DF80F00C9
:1010200006B0704786B00590049100208DF80F003F
:1010300002900599086820F0020008600599086888
:1010400040F001000860FFE7059841680020C907EB
:10105000019041B9FFE702984FF6FF71401A18BF9F
:1010600001200190FFE70198C00720B1FFE7029837
:1010700001300290E8E705984068C007002856D084
:10108000FFE704980088421E0599C86962F30B00C7
:10109000C861049882780599C86902F0030220F0BB
:1010A000407040EA0260C8610498C2780599C86936
:1010B00002F00F0220F4702040EA0240C861049858
:1010C00002790599C86902F0070220F4E00040EABD
:1010D0000250C8610599086820F0010008600020EE
:1010E0000290FFE7059841680020C907009041B1D0
:1010F000FFE702984FF6FF71401A18BF01200090D9
:10110000FFE70098C00720B1FFE702980130029086
:10111000E8E705984068C00720B1FFE700208DF898
:101120000F0003E001208DF80F00FFE703E000202F
:101130008DF80F00FFE79DF80F0006B07047000024
:1011400081B0009000990020487000998870009943
:10115000C8700099087100994871009988710099C8
:10116000087001B07047000087B00690059100201C
:1011700004900598C1780120884004900699D1F820
:10118000000240F00100C1F80002049A0699D1F86B
:101190001C029043C1F81C02059800790146039196
:1011A00020B1FFE70398012830D05FE0049A069948
:1011B000D1F80C029043C1F80C02059A9089000402
:1011C0000699D27801EBC201C1F8400205990A895B
:1011D0000698C97800EBC101D1F840021043C1F86C
:1011E0004002059A508900040699D27801EBC201A9
:1011F000C1F844020599CA880698C97800EBC10174
:10120000D1F844021043C1F8440230E0049A069930
:10121000D1F80C021043C1F80C02059AD0880004E2
:101220000699D27801EBC201C1F8400205990A89FA
:101230000698C97800EBC101D1F840021043C1F80B
:101240004002059A508900040699D27801EBC20148
:10125000C1F8440205998A890698C97800EBC10152
:10126000D1F844021043C1F8440200E0FFE70598BA
:1012700040780146029120B1FFE70298012808D08A
:101280000FE0049A0699D1F804029043C1F80402D1
:1012900008E0049A0699D1F804021043C1F8040248
:1012A00000E0FFE7059880780146019120B1FFE753
:1012B0000198012808D00FE0049A0699D1F8140289
:1012C0009043C1F8140208E0049A0699D1F8140278
:1012D0001043C1F8140200E0FFE7059800780146CA
:1012E000009160B1FFE70098012810D1FFE7049A50
:1012F0000699D1F81C021043C1F81C0208E0049AB8
:101300000699D1F81C029043C1F81C0200E0FFE7E7
:101310000699D1F8000220F00100C1F8000207B0E0
:101320007047000083B00290019101980138014696
:101330000091102843D80099DFE801F00909090D50
:101340000914181D412226412A2E32363A000299EC
:101350000420486034E0029904204860029900208B
:1013600088612DE002990120886029E002994FF4FC
:101370008070886024E002994FF4803088601FE01C
:1013800002990820C8601BE002991020C86017E08D
:1013900002990820086113E00299102008610FE00B
:1013A0000299082048600BE002991020486007E08D
:1013B000029940F20110C0F20100886000E0FFE7EE
:1013C00003B0704784B00390029100208DF80700AD
:1013D0000298013801460091102800F2BB80009964
:1013E000DFE801F00910171E2D343B4249575E65B6
:1013F000737A81889D000398806900F001008DF860
:101400000700ABE003988069C0F340008DF8070047
:10141000A4E003988069C0F380008DF807009DE088
:10142000039880690009400720B1FFE701208DF88B
:10143000070003E000208DF80700FFE78EE0039827
:101440004068C0F380008DF8070087E0039880684B
:1014500000F001008DF8070080E003988068C0F379
:1014600000208DF8070079E003988068C0F3004001
:101470008DF8070072E00398C068800720B1FFE78D
:1014800001208DF8070003E000208DF80700FFE73A
:1014900064E00398C068C0F3C0008DF807005DE009
:1014A0000398C068C0F300108DF8070056E0039859
:1014B0000069800720B1FFE701208DF8070003E0F5
:1014C00000208DF80700FFE748E003980069C0F3AB
:1014D000C0008DF8070041E003980069C0F30010D8
:1014E0008DF807003AE003984068C0F3C0008DF81B
:1014F000070033E0039840684008C00730B9FFE7B1
:10150000039840680009C00720B1FFE701208DF86B
:10151000070003E000208DF80700FFE71EE00398B6
:101520008068800EC00760B9FFE703988068C00E2E
:10153000C00730B9FFE703988068000FC00720B1EB
:10154000FFE701208DF8070003E000208DF8070079
:10155000FFE703E000208DF80700FFE79DF8070094
:1015600004B0704783B0029001918DF803209DF87C
:10157000030030B1FFE7019A0299486910434861BE
:1015800005E0019A0299486990434861FFE703B07A
:101590007047000082B00190002000900198006820
:1015A00020F07C4040F60101C0F2772188420DD145
:1015B000FFE70198007BFF2807D1FFE70198407BF8
:1015C00018B9FFE701200090FFE7FFE7009802B09D
:1015D0007047000080B584B003908DF80B10019225
:1015E00003989DF80B1000EB0110D0F8B001C0F388
:1015F0008000019908720198007A0146009120B19B
:10160000FFE7009801280BD015E003989DF80B1018
:1016100000EB0110D0F8B001400D019908600BE01B
:1016200003989DF80B1000EB0110D0F8B001C00832
:101630000199486000E0FFE703989DF80B1000EB6C
:101640000110D0F8B001C0F340000199487203982E
:101650009DF80B1000EB0110D0F8B40100F00F0062
:101660000199887203989DF80B1000EB0110D0F8D7
:10167000B401000A0199C87403989DF80B1000EB9F
:101680000110D0F8B8010199C87203989DF80B10A9
:1016900000EB0110D0F8B801000A01990873039813
:1016A0009DF80B1000EB0110D0F8B801000C019967
:1016B000487303989DF80B1000EB0110D0F8B801A7
:1016C000000E0199887303989DF80B1000EB011030
:1016D000D0F8BC010199C87303989DF80B1000EB7A
:1016E0000110D0F8BC01000A0199087403989DF814
:1016F0000B1000EB0110D0F8BC01000C01994874EC
:1017000003989DF80B1000EB0110D0F8BC01000EFF
:101710000199887403989DF80B1000F00DF904B03E
:1017200080BD000084B00390029104208DF8070072
:1017300003988068800EC00720B1FFE700208DF875
:10174000070019E003988068C00EC00720B1FFE7CA
:1017500001208DF807000EE003988068000FC00795
:1017600020B1FFE702208DF8070003E004208DF888
:101770000700FFE7FFE7FFE79DF80700042800F0F8
:101780008480FFE703989DF8071000EB0111D1F862
:10179000800100F00100C1F880010298027A0398EC
:1017A0009DF8071000EB0111D1F8800102F0010251
:1017B00020F0040040EA8200C1F880010298007A1B
:1017C0000146009120B1FFE70098012810D01DE0EC
:1017D0000298026803989DF8071000EB0111D1F8F8
:1017E00080016FF35F5040EA4250C1F880010EE083
:1017F0000298426803989DF8071000EB0111D1F898
:10180000800140EAC200C1F8800100E0FFE70298D1
:10181000427A03989DF8071000EB0111D1F880017E
:1018200002F0010220F0020040EA4200C1F880010B
:101830000298827A03989DF8071000EB0111D1F805
:10184000840162F30300C1F884010298D0F80B0010
:1018500003999DF8072001EB0211C1F88801029855
:10186000D0F80F0003999DF8072001EB0211C1F891
:101870008C0103989DF8071000EB0111D1F880014D
:1018800040F00100C1F88001FFE79DF8070004B0B7
:101890007047000080B588B08DF81F0006910020C9
:1018A00005909DF81F1046F20040C4F200006A4601
:1018B000FFF790FE9DF80900D0BBFFE79DF80800F8
:1018C000012807D1FFE70699012048600198069991
:1018D000086006E0069900204860009806990860B4
:1018E000FFE79DF80A00069988609DF80B000699AD
:1018F00008739DF80C00069948739DF80D00069931
:1019000088739DF80E000699C8739DF80F0006991C
:1019100008749DF81000069948749DF81100069906
:1019200088749DF812000699C87401200590FFE79D
:10193000059808B080BD000083B002908DF80710B4
:101940009DF807000146009120B1FFE700980128AB
:1019500004D007E002992020C86004E0029920200A
:10196000086100E0FFE703B07047000080B582B077
:1019700001900198406860B1FFE70198FFF70AFE07
:10198000012805D1FFE704F08DF9FFE700BFFDE76F
:10199000FFE702B080BD000080B588B007900798CF
:1019A00018B1FFE70798009003E04FF4FA70009039
:1019B000FFE700980690002205920492039202929B
:1019C00001924020142104F0BBFF40F26821C2F2D2
:1019D00000010860FFE740F26820C2F200000068E2
:1019E000069A01A905F03CFA01280AD1FFE701A8EF
:1019F000FFF7BCFF40F28801C2F200010120C8627B
:101A000006E040F28801C2F200010020C862FFE750
:101A1000E1E7000080B588B00790002006900798A5
:101A2000806800284BD3FFE707988068082846D8CD
:101A3000FFE7079880688DF80E0000208DF80D00F4
:101A400007984068012807D1FFE701208DF80C00B6
:101A500007980068029006E000208DF80C000798B7
:101A600000680190FFE70798007B8DF80F0007984A
:101A7000407B8DF810000798807B8DF81100079847
:101A8000C07B8DF812000798007C8DF81300079832
:101A9000407C8DF814000798807C8DF8150007981D
:101AA000C07C8DF8160046F20040C4F2000001A987
:101AB000FFF738FE043818BF01200690FFE70698AC
:101AC00008B080BD80B588B00790079818B1FFE7CF
:101AD0000798009002E001200090FFE70098069030
:101AE0000022059204920392029201924020142156
:101AF00004F026FF40F27821C2F200010860FFE7FF
:101B000040F27820C2F20000006801A94FF0FF32D5
:101B100005F0A6F9FFE747F6F830C0F60000406888
:101B2000016801A88847012804D0FFE7069803F060
:101B300023FFF0E7E4E7000081B08DF803009DF893
:101B4000030000F0030241F20401C4F2020108683C
:101B500020F4404040EA823008609DF80320086885
:101B6000920862F31C70086001B0704781B08DF874
:101B700003009DF8032041F20401C4F20201086849
:101B800002F00F0220F0F00040EA0210086001B0FD
:101B90007047000081B08DF803009DF8032041F2EA
:101BA0000401C4F20201086802F0070220F4E060B8
:101BB00040EA0220086001B07047000081B08DF853
:101BC00003009DF8032041F20401C4F202010868F9
:101BD00002F0070220F4605040EAC220086001B021
:101BE0007047000081B08DF803009DF803000128C4
:101BF00009D1FFE741F25401C4F20201086840F044
:101C00003000086008E041F25401C4F202010868A3
:101C100020F030000860FFE701B0704782B08DF817
:101C200007008DF806109DF8070001460091042872
:101C300044D80099DFE801F0030E1D2C37009DF811
:101C4000062041F20001C4F20201086862F30000BC
:101C5000086034E09DF8062041F20001C4F2020160
:101C6000086802F0010220F4803040EA0240086077
:101C700025E09DF8062041F20001C4F20201086847
:101C800002F0010220F0807040EA0260086016E075
:101C90009DF8062041F22001C4F20201086862F3B7
:101CA000000008600BE09DF8062041F22401C4F218
:101CB0000201086862F30000086000E0FFE702B07C
:101CC0007047000080B58EB00D90002001900C9000
:101CD0000B900A9009900890079006900590049048
:101CE00000F008FB8DF80F009DF80F0001460291EF
:101CF00040B1FFE70298012825D0FFE702980228AB
:101D000028D0C1E041F25400C4F202000068400A49
:101D1000C00780B1FFE741F23000C4F20200006862
:101D2000400EC00738B1FFE70D9946F60040C0F2FB
:101D3000DC20086006E00D9941F20020C0F27A0034
:101D40000860FFE7A7E00D9942F20040C0F2F400FE
:101D50000860A0E041F20400C4F202000068C0F391
:101D600000400A9041F22C00C4F2020001680020F9
:101D7000B0EBD17F47D1FFE741F20400C4F202008B
:101D80000168C1F383410C910068C0F341700B906E
:101D90000B9820B9FFE70C980F2807D1FFE70B99A4
:101DA0000C9800EB011001300C9003E00C9802300D
:101DB0000C90FFE70A9848B9FFE70C9840F600112D
:101DC000C0F23D0148430D9908601BE041F2040058
:101DD000C4F202000068400CC00748B1FFE70C984D
:101DE00041F20021C0F27A0148430D99086008E0F1
:101DF0000C9842F20041C0F2F40148430D9908608A
:101E0000FFE7FFE73FE041F22C00C4F20200016867
:101E1000C1F3031106910168C1F30821059100681F
:101E200000F0070004900A9830B9FFE740F6001070
:101E3000C0F23D00079015E041F20400C4F2020038
:101E40000068400CC00730B1FFE741F20020C0F24B
:101E50007A00079005E042F20040C0F2F4000790DB
:101E6000FFE7FFE707980599A0FB0101069ADDF857
:101E700010C0012303FA0CF35A430023FEF7FCF9C8
:101E80000D990860FFE706E00D9941F20020C0F2CD
:101E90007A000860FFE741F20400C4F20200016822
:101EA000C1F303110991099A47F65C41C0F600019C
:101EB000895C08910D9A1168089BD94051600168AE
:101EC000C1F302210991099A47F64C41C0F600017D
:101ED000895C08910D9A5168089BD940D1600168CE
:101EE000C1F3C2210991099A47F65441C0F6000195
:101EF000895C08910D9A5168089BD94091600168EE
:101F0000C1F30071099109990068C0F3813040EA7A
:101F100081000990099947F64440C0F60000405CF2
:101F200008900D998868089AB0FBF2F008610EB02D
:101F300080BD000082B0019000208DF80300BDF844
:101F4000060041F20001C4F202014058019901F07B
:101F50001F01C840C00720B9FFE700208DF803002B
:101F600003E001208DF80300FFE79DF8030002B0B5
:101F70007047000080B584B0002003908DF80B00FE
:101F8000FFE71120FFF7D6FF01460020012901904D
:101F900008D0FFE703990020B1F5405F38BF01206A
:101FA0000190FFE70198C00720B1FFE703980130D7
:101FB0000390E6E71120FFF7BDFF012804D0FFE7FB
:101FC00000208DF80B0003E001208DF80B00FFE7E7
:101FD0009DF80B0004B080BD82B001908DF8031015
:101FE0009DF8030001280FD1FFE7019800F01F02C0
:101FF000012101FA02F3010C41F20002C4F20202D3
:102000008858184388500EE0019800F01F02012103
:1020100001FA02F3010C41F20002C4F202028858F4
:1020200098438850FFE702B07047000083B08DF8F6
:102030000B008DF80A10002001908DF803009DF828
:102040000B00B0B9FFE741F20401C4F202010868D5
:1020500020F48030086040F60010C0F23D0001908E
:1020600041F23001C4F20201086840F000700860DB
:1020700029E041F20401C4F20201086840F4803012
:1020800008609DF80B0001280ED1FFE742F20040E6
:10209000C0F2F400019041F20401C4F202010868A8
:1020A00020F4003008600DE041F20020C0F27A0018
:1020B000019041F20401C4F20201086840F40030CA
:1020C0000860FFE7FFE7019848F26121C0F23B0199
:1020D00088420CD3FFE7019844F63F31C0F24C012F
:1020E000884204D8FFE700208DF8030068E00198DB
:1020F00045F68101C0F24F0188420CD3FFE70198F9
:1021000045F60F61C0F25F01884204D8FFE7012065
:102110008DF8030053E0019843F29551C0F2770126
:1021200088420CD3FFE7019841F60F31C0F27F01DE
:10213000884204D8FFE702208DF803003EE00198B2
:1021400041F61131C0F27F0188420CD3FFE70198BC
:102150004BF61F41C0F2BE01884204D8FFE70320BE
:102160008DF8030029E0019846F62931C0F2EE010E
:1021700088420CD3FFE701984DF22F71C0F23D1158
:10218000884204D8FFE704208DF8030014E001988A
:102190004DF23171C0F23D1188420CD3FFE7019836
:1021A0004EF6D711C0F2DC11884204D8FFE70520B3
:1021B0008DF80300FFE7FFE7FFE7FFE7FFE7FFE733
:1021C0009DF80A0000F00F0241F20401C4F202017E
:1021D000086820F4701040EA824008609DF80A0008
:1021E00000F03002086820F0C04040EA4260086019
:1021F0009DF8032041F22C01C4F20201086802F0AC
:10220000070220F0E06040EA0260086003B0704717
:1022100041F20001C4F20201086840F001000860C8
:10222000FFE741F20000C4F202000068C0F3400082
:10223000012801D0FFE7F4E741F20401C4F20201F2
:10224000086820F003000860FFE741F20400C4F2D0
:10225000020000688008800708B1FFE7F5E741F257
:102260000001C4F2020108684FF6FF72CFF6F26275
:102270001040086041F20401C4F20201002008602D
:1022800041F22C01C4F2020141F61070086041F2E3
:102290003001C4F202014FF48010086041F20801DD
:1022A000C4F202014FF41F000860704781B08DF83E
:1022B00003009DF8032041F20401C4F20201086802
:1022C00062F30100086000BF00BF00BF00BF00BF95
:1022D00000BF00BF00BF00BF00BF00BF00BF00BF06
:1022E00000BF00BF00BF00BF00BF00BF00BF01B004
:1022F0007047000041F20400C4F202000068C0F31D
:102300008100704780B582B00190FEF735FDFFE790
:10231000FEF71EFDFCE7000082B001908DF803106F
:102320009DF803200199086862F30000086002B07C
:102330007047000081B0009000990020086000996B
:1023400048600099088100994881009908730099B4
:102350004873009988730099C873009908740099AC
:10236000487401B07047000082B001908DF80310EE
:102370008DF802200198D0F8A400000EC00740B9E3
:10238000FFE70199D1F8A40040F08070C1F8A400E3
:10239000FFE79DF8030001280BD1FFE79DF802201D
:1023A0000199D1F8A00020F0FF001044C1F8A0006E
:1023B0006AE09DF8030002280CD1FFE79DF8022097
:1023C0000199D1F8A00020F47F4040EA0220C1F832
:1023D000A00058E09DF8030003280CD1FFE79DF80A
:1023E00002200199D1F8A00020F47F0040EA0240C9
:1023F000C1F8A00046E09DF8030004280CD1FFE7D7
:102400009DF802200199D1F8A00020F07F4040EA19
:102410000260C1F8A00034E09DF8030005280BD14C
:10242000FFE79DF802200199D1F8A40020F0FF00F9
:102430001044C1F8A40023E09DF8030006280CD145
:10244000FFE79DF802200199D1F8A40020F47F4015
:1024500040EA0220C1F8A40011E09DF8030007281B
:102460000CD1FFE79DF802200199D1F8A40020F4D7
:102470007F0040EA0240C1F8A400FFE7FFE7FFE762
:10248000FFE7FFE7FFE7FFE702B0704782B0019088
:102490000091019908684BF6EF72104008600098AF
:1024A000028901990868104308600098427C0199EC
:1024B000086802F0030220F4405040EA023008604D
:1024C0000098C27B0199086802F0030220F4406082
:1024D00040EA822008600098827B0199086802F037
:1024E000030220F4407040EA022008600098427B1A
:1024F0000199086802F0010220F0800040EAC21051
:1025000008600098027B0199086802F0010220F03F
:10251000400040EA821008600098027C0199086837
:1025200002F0010220F0200040EA4210086000980A
:102530004089019948600098006801998860009876
:1025400040680199C86002B07047000082B00190F5
:1025500000200090019A116821F001011160019999
:10256000086001994860019988600199C8600198E4
:102570000090009800F49F60C008802817D8FFE7FB
:102580009DF8000008384CF6CD41CCF6CC41A0FBBC
:1025900001016FF0030000EA91010F2000FA01F23F
:1025A0000421C4F202010868104308601FE000988B
:1025B00000F49F60C008902818D8FFE79DF800003D
:1025C00008384CF6CD41CCF6CC41A0FB01016FF0B0
:1025D000030000EA91010F2000FA01F240F20441E9
:1025E000C4F20201086810430860FFE7FFE702B089
:1025F0007047000080B50C20012104F0DBF880BD9D
:1026000080B586B040F2B801C2F2000145F6000084
:10261000C4F20000086040F60040C4F201000090DF
:102620004FF4804100F0C4F800980221019100F0BD
:10263000C9F8012005900021029104F0BBF801982F
:10264000029904F0B7F80599042004F0B3F8029950
:10265000052004F0AFF802990D2004F0ABF80299C0
:102660000E2004F0A7F802990F2004F0A3F80299B5
:10267000102004F09FF81320642104F09BF81A2026
:10268000039002F0E1F90146039801F07F0104F0A4
:1026900091F81D20049002F0D7F90146049841F00A
:1026A000200104F087F8059806B080BD80B582B09F
:1026B0008DF807009DF80710032004F07BF802B0A6
:1026C00080BD000080B582B08DF807009DF807102E
:1026D000012004F06FF802B080BD000080B582B028
:1026E0008DF807009DF80710022004F063F802B08F
:1026F00080BD000080B582B08DF807008DF806100F
:102700009DF8070004309DF80610C0B204F052F89E
:1027100002B080BD80B50C20002104F04BF880BDD4
:1027200080B582B01A20019002F08EF9014601981E
:1027300001F07F0104F03EF802B080BD80B582B0A8
:102740001A20019002F080F90146019841F08001C1
:1027500004F030F802B080BD80B584B003900398D7
:1027600018B1FFE70398019002E032200190FFE7E3
:1027700001980290FFE7029803F0FEF8FBE70000E3
:1027800080B582B040F27401C2F200016846416037
:102790000023036042F20530C0F6000047F6CC414A
:1027A000C0F60001802204F0C9FD02B080BD000027
:1027B00082B00190ADF80210BDF8020001994861A5
:1027C00002B0704782B00190ADF80210BDF802006F
:1027D0000199086102B0704781B0009000994FF6EE
:1027E000FF700860009900208871009908710099B5
:1027F0000420487100990120C87101B070470000A1
:1028000084B00390029102980068ADF8000002982D
:102810008079032804D1FFE70020ADF802002FE003
:1028200002988079E0B9FFE70298407900F00F0044
:10283000ADF8020002984079182805D1FFE7BDF8ED
:102840000000039908610AE002984079282805D120
:10285000FFE7BDF8000003994861FFE7FFE70EE0DE
:1028600002990A798879C97900F0080002F0040217
:10287000104401F003010844ADF80200FFE7FFE750
:102880009DF8000040B3FFE700200190FFE70198AA
:10289000072820D8FFE70199BDF80000C840C0070D
:1028A000A0B1FFE7019881000F2000FA01F203991F
:1028B000086890430860BDF802000199890000FA99
:1028C00001F20399086810430860FFE7FFE70198E9
:1028D00001300190DBE7FFE7BDF80000B0F5807F35
:1028E0002CDBFFE79DF80100ADF80000002001900F
:1028F000FFE70198072820D8FFE70199BDF80000FD
:10290000C840C007A0B1FFE7019881000F2000FA7E
:1029100001F20399486890434860BDF802000199AC
:10292000890000FA01F20399486810434860FFE704
:10293000FFE7019801300190DBE7FFE704B0704743
:1029400082B00190ADF8021000208DF80100BDF8B2
:102950000200019989680140884204D0FFE7002005
:102960008DF8010003E001208DF80100FFE79DF8DC
:10297000010002B07047000085B004908DF80F1080
:102980009DF813000021C4F2010108430290BDF834
:1029900012008DF803000498000A8DF802000498D4
:1029A0008DF801009DF802009DF803100844C0F165
:1029B00020014FF0FF308840019001989DF80210EF
:1029C0009DF803201144C1F12001C84001900198F5
:1029D0009DF80310C840019001989DF803108840AD
:1029E0000190019A02990868904308609DF80F00D1
:1029F00058B1FFE79DF801009DF8031000FA01F2BD
:102A00000299086810430860FFE705B070470000AE
:102A100080B584B00390039818B1FFE70398019044
:102A200002E005200190FFE701980290FFE702987D
:102A30004FF47A71484344F6D351C1F26201A0FBCE
:102A40000110800902F098FFF1E7000082B00190C8
:102A50008DF803108DF802209DF8020038B9FFE7C9
:102A60009DF8030000F0FE000199086106E09DF862
:102A7000030040F0010001990861FFE702B07047D0
:102A800082B001908DF803109DF803200199086829
:102A900002F0010220F4806040EA8220086002B067
:102AA0007047000082B001908DF803109DF803007C
:102AB000B0FA80F042090199086820F0800040EAED
:102AC000C210086002B0704781B0009000980069A1
:102AD000C0B201B07047000082B001908DF80310C1
:102AE0009DF803000199086102B0704782B001901F
:102AF0008DF803109DF803200199086862F3000027
:102B0000086002B07047000082B001900091BDF8EB
:102B1000000080F45F4042F2FF01084301994861E0
:102B20009DF800008007002805D5FFE7019840695F
:102B300001988069FFE79DF80000C006002808D5CD
:102B4000FFE7019840690199086840F001000860BA
:102B5000FFE702B07047000085B0039002910020AB
:102B6000019000900298000F0190029820F07F40A1
:102B70000290019820B9FFE703984069009006E0B1
:102B8000BDF80A000290039880690090FFE7009862
:102B90000299084204D0FFE701208DF8130003E0FA
:102BA00000208DF81300FFE79DF8130005B0704773
:102BB00082B001908DF803109DF8032001990868F8
:102BC00002F0010220F0400040EA8210086002B0EA
:102BD0007047000080B58AB009908DF823100792E5
:102BE00000200690ADF81600ADF8140009990868A9
:102BF00020F0010008606846FFF764F8099845F284
:102C00000041C4F20001884208D0FFE7099845F668
:102C10000001C4F20001884203D1FFE70398069047
:102C2000FFE706984DF68361C4F21B31A0FB01104B
:102C3000800CADF81600BDF816200999486862F3BB
:102C400007004860079848F2A061C0F2010188427D
:102C500032D8FFE7069807994900B0FBF1F0ADF8CC
:102C60001400BDF81400032804DCFFE70420ADF8CD
:102C70001400FFE7BDF814200999C86962F30B003E
:102C8000C8610999C86920F40040C861BDF8160000
:102C90000130402806DBFFE70999086A40F03F0051
:102CA000086208E0BDF81600421C0999086A62F340
:102CB00005000862FFE764E09DF8230070B9FFE7B4
:102CC0000698079901EB4101B0FBF1F0ADF8140053
:102CD0000999C86920F48040C8610DE006980799F9
:102CE00019225143B0FBF1F0ADF814000999C869FD
:102CF00040F48040C861FFE7BDF8140020B9FFE749
:102D00000120ADF81400FFE7BDF814200999C86947
:102D100062F30B00C8610999C86940F40040C861BA
:102D2000079841F68021C0F20601884214D8FFE7D7
:102D3000BDF816004FF49671484344F6BB11C0F23B
:102D40000C21A0FB0101012000EBD1020999086AC6
:102D500062F30500086213E0BDF81600C0EB001036
:102D6000C00041F26F21C0F28301A0FB01010120EC
:102D700000EB51020999086A62F305000862FFE757
:102D8000FFE70AB080BD000080B586B00490ADF8C2
:102D90000E1002920498006801210191FFF770FE65
:102DA0000498006800F082FB01990498029B0022BD
:102DB00000F090FB30B1FFE704990D2008768DF804
:102DC00017006EE0049800688068C00BC00740B927
:102DD000FFE7049800689DF80E100122FFF736FE09
:102DE0004DE004980068BDF80E1001F44071C90967
:102DF000F031FFF771FE0498029B0821012200F0D8
:102E000069FB30B1FFE704990E2008768DF81700B2
:102E100047E0049800689DF80E10FFF75DFE0498E7
:102E2000029B0221012200F055FB30B1FFE704991B
:102E30000F2008768DF8170033E00498006802210F
:102E4000FFF762FE0498006800F030FB0498029BD4
:102E50000121002200F03EFB30B1FFE704990D2074
:102E600008768DF817001CE004980068BDF80E1075
:102E700001F44071C909F131FFF72EFEFFE7049814
:102E8000029B0221012200F025FB30B1FFE70499EB
:102E90000F2008768DF8170003E000208DF817004A
:102EA000FFE79DF8170006B080BD000082B00190DA
:102EB0008DF803109DF803200199086802F00102C3
:102EC00020F4006040EAC220086002B070470000B1
:102ED00080B584B00290ADF80610009202980068A8
:102EE00000F0E4FA0298009B0121002200F0F2FABF
:102EF00030B1FFE702990D2008768DF80F003FE012
:102F0000029800688068C00BC00740B9FFE70298CC
:102F100000689DF806100022FFF798FD1EE0029859
:102F20000068BDF8061001F44071C909F031FFF7DF
:102F3000D3FD0298009B0821012200F0CBFA30B1AA
:102F4000FFE702990E2008768DF80F0018E002982E
:102F500000689DF80610FFF7BFFDFFE70298009B91
:102F60000221012200F0B6FA30B1FFE702990F20EA
:102F700008768DF80F0003E000208DF80F00FFE7C2
:102F80009DF80F0004B080BD80B586B004908DF828
:102F90000F10ADF80C2002939DF80F00012807D107
:102FA000FFE7049800689DF80C10FFF795FD21E0FD
:102FB000049800689DF80D10FFF78EFD0498029BA1
:102FC0008021012200F086FA8DF807009DF80700A5
:102FD00048B1FFE70498006800F072FA9DF8070016
:102FE0008DF817000AE0049800689DF80C10FFF7B0
:102FF00073FDFFE700208DF81700FFE79DF817002D
:1030000006B080BD80B586B084460A980998DDF880
:1030100020E0CDF810C08DF80F10ADF80C20ADF801
:103020000A30ADF80800089804994860BDF8080017
:103030000499088104980022027604980A9B0021D2
:10304000C1F2020100F046FA20B1FFE701208DF83D
:1030500017006CE1049800680021FFF727FF04982F
:1030600000680121FFF70CFD0498BDF80C100A9AC6
:10307000FFF72EFF40B1FFE70498006800F020FA48
:1030800002208DF8170052E1049800680221FFF732
:103090003BFD04980A9B8021012200F01BFA40B1FD
:1030A000FFE70498006800F00BFA03208DF8170082
:1030B0003DE104989DF80F10BDF80A200A9BFFF728
:1030C00063FF20B1FFE704208DF817002FE104987B
:1030D0000A9B8021012200F0FDF940B1FFE704982E
:1030E000006800F0EDF905208DF817001FE1049845
:1030F000BDF80C100A9AFFF747FE40B1FFE70498AD
:10310000006800F0DDF906208DF817000FE1BDF82A
:10311000080001280FD1FFE7049800680021FFF79D
:10312000AFFC049800680221FFF7EEFC04980068E9
:1031300000F0C6F920E0BDF80800022810D1FFE732
:10314000049800680121FFF7B1FE0498006802218D
:10315000FFF7DAFC049800680021FFF791FC0AE011
:10316000049800680121FFF78BFC04980068022195
:10317000FFF7CAFCFFE7FFE7FFE7BDF808000128FB
:10318000C0F2D180FFE7BDF80800032800F3AC804F
:10319000FFE7BDF8080001281ED1FFE704980A9B4D
:1031A0004021002200F096F940B1FFE70498006842
:1031B00000F086F907208DF81700B8E00498006841
:1031C000FFF782FC08994A1C08920870BDF80800B5
:1031D0000138ADF8080086E0BDF8080002282FD1BC
:1031E000FFE704980A9B0421002200F073F940B124
:1031F000FFE70498006800F063F908208DF81700D5
:1032000095E00498006800F05BF904980068FFF707
:103210005BFC08994A1C08920870BDF80800013848
:10322000ADF8080004980068FFF74EFC08994A1CA6
:1032300008920870BDF808000138ADF8080051E0A8
:1032400004980A9B0421002200F044F940B1FFE7F2
:103250000498006800F034F909208DF8170066E042
:103260000498006800210191FFF70AFC04980068A7
:10327000FFF72AFC019A08994B1C08930870BDF8C7
:1032800008000138ADF8080004980A9B042100F0FA
:1032900021F940B1FFE70498006800F011F90A2015
:1032A0008DF8170043E00498006800F009F90498CD
:1032B0000068FFF709FC08994A1C08920870BDF8DD
:1032C00008000138ADF8080004980068FFF7FCFB1F
:1032D00008994A1C08920870BDF808000138ADF83A
:1032E0000800FFE7FFE71DE004980A9B4021002249
:1032F00000F0F0F840B1FFE70498006800F0E0F853
:103300000B208DF8170012E004980068FFF7DCFB33
:1033100008994A1C08920870BDF808000138ADF8F9
:103320000800FFE729E700208DF81700FFE79DF868
:10333000170006B080BD000080B584B084460898B0
:103340000798DDF818E0CDF808C08DF80710ADF843
:103350000420ADF80230ADF80000069802994860EC
:10336000BDF80000029908810298002202760298B6
:10337000089B0021C1F2020100F0ACF820B1FFE788
:1033800001208DF80F0073E0029800680021FFF71C
:103390008DFD0298BDF80410089AFFF799FD40B121
:1033A000FFE70298006800F08BF802208DF80F000C
:1033B0005EE0029800680221FFF7A6FB0298089BD6
:1033C0008021012200F086F840B1FFE702980068F2
:1033D00000F076F803208DF80F0049E002989DF880
:1033E0000710BDF80220089BFFF7CEFD20B1FFE7D4
:1033F00004208DF80F003BE0FFE7BDF80000012836
:103400001EDBFFE70298089B8021012200F062F892
:1034100040B1FFE70298006800F052F805208DF8EF
:103420000F0025E00298006806994A1C0692097868
:10343000FFF752FBBDF800000138ADF80000DCE7F3
:103440000298089B0421012200F044F840B1FFE7F4
:103450000298006800F034F806208DF80F0007E0AD
:103460000298006800F02CF800208DF80F00FFE7AC
:103470009DF80F0004B080BD82B001908DF803105C
:10348000ADF800209DF803200199886802F0010240
:1034900020F4004040EAC2308860BDF80020019965
:1034A000886862F30900886002B0704781B00090BC
:1034B0000099086840F48070086001B0704700000F
:1034C00081B000900099086840F40070086001B075
:1034D0007047000080B586B004900391029201937A
:1034E00003980021C1F20201884215D1FFE7FFE7EE
:1034F000049800680399FFF72FFB60B1FFE701987C
:10350000411E019130B9FFE70499122008768DF829
:10351000170053E0ECE74DE0FFE7049800680399DB
:10352000FFF71AFB002844D1FFE79DF80800C00709
:10353000C8B1FFE7049800684FF48061FFF70CFB07
:1035400080B1FFE704980068FFF7BAFF04980068AD
:103550004FF48061FFF7D8FA0499112008768DF8AE
:1035600017002BE0FFE79DF808008007002814D51E
:10357000FFE7049800681021FFF7EEFA60B1FFE75B
:103580000498006810210091FFF7BEFA0098049992
:1035900008768DF8170011E0FFE70198411E0191B0
:1035A00030B9FFE70499122008768DF8170005E07E
:1035B000B3E7FFE700208DF81700FFE79DF817003D
:1035C00006B080BD80B582B0019000200090019AC5
:1035D00047F6A440C0F6000000EBC20150F83200EC
:1035E0008988FFF7ADF9012803D1FFE7012000909A
:1035F000FFE7009802B080BD80B582B00190019ACB
:1036000047F61440C0F6000000EBC20150F832004B
:103610008988FFF7CDF802B080BD000080B582B088
:103620000190019A47F61440C0F6000000EBC20179
:1036300050F832008988FFF7C5F802B080BD00005D
:1036400080B5A8B0279003208DF89B00FF208DF84F
:103650009A0040208DF8990008208DF8980047F6D0
:103660007031C0F600010DF113008522FCF77CFEDD
:10367000279900200861C860886048600860279A20
:10368000012151609DF89810279A91609DF89B1038
:1036900089069DF89A2041EA02419DF8992041EA65
:1036A0000221CF31279A11600390FFE70398122877
:1036B00045D8FFE700208DF80B000398C0EBC00150
:1036C0000DF11300014440F27800C2F200004A7884
:1036D000C978805CC840C00720B1FFE702208DF8A0
:1036E0000B0015E00398C0EBC0020DF11300811828
:1036F000825C40F27800C2F20000805C8978C840A9
:10370000C00720B1FFE701208DF80B00FFE7FFE7BE
:103710009DF80B100398C0EBC0020DF1130002449A
:1037200010795279013A01FA02F227990144C87AD4
:103730001043C872FFE7039801300390B6E727985B
:1037400012300190019945F2AA50088028B080BD3E
:1037500080B58AB00990099818B1FFE709980690DA
:1037600002E005200690FFE70698089040F27001FD
:10377000C2F2000100200860FFE740F27000C2F2D0
:1037800000000068052824D8FFE747F6F830C0F6A7
:1037900000008068016840F27000C2F200000590ED
:1037A0000068884705990B6840F26C22C2F200025B
:1037B0000020D0540A6840F27801C2F20001885417
:1037C000FFE740F27001C2F20001086801300860B2
:1037D000D3E7012004900021032203F0B1F8014651
:1037E000049845F25C32C2F20002116040F2F80225
:1037F000C2F2000269464A60086043F6B110C0F6A2
:10380000000047F61951C0F600014FF480720523FD
:1038100003F094FDFFE740F27001C2F200010020C6
:103820000860FFE740F27000C2F20000006805285F
:1038300000F2BD80FFE7002003908DF81F0047F6DF
:10384000F830C0F600008068416840F27000C2F2B3
:1038500000000068884708984FF47A71484344F69E
:10386000D351C1F26201A0FB0110800902F084F87B
:10387000039840F26421C2F200010860FFE740F2C1
:103880006420C2F200000068042834D8FFE747F63D
:10389000F830C0F600008068816840F26420C2F20F
:1038A00000000068884701280ED1FFE740F264203D
:1038B000C2F200000168012000FA01F19DF81F002A
:1038C00088438DF81F000DE040F26420C2F2000032
:1038D0000168012000FA01F19DF81F0008438DF8EE
:1038E0001F00FFE7FFE740F26421C2F20001086811
:1038F00001300860C3E747F6F830C0F60000806882
:10390000016840F27000C2F200000290006888472F
:1039100002999DF81F000A6840F26C21C2F2000172
:10392000895C88422DD1FFE740F27000C2F20000AE
:10393000026840F26C20C2F20000805C40F2780124
:10394000C2F20001895C88421AD0FFE740F27000A1
:10395000C2F20000026840F26C20C2F20000805CFB
:1039600040F27801C2F20001885445F25C30C2F2A4
:1039700000000068002319461A4603F0A5F8FFE787
:103980000CE09DF81F0040F27001C2F200010A68CD
:1039900040F26C21C2F200018854FFE7FFE740F2D9
:1039A0007001C2F200010868013008603AE732E7AE
:1039B00080B588B0079064208DF81B0014208DF826
:1039C0001A00FFE7002005900490039002900190F8
:1039D0009DF81A004FF47A710091484348F6381167
:1039E000C0F24101A0FB011001F0C6FF009A45F2B0
:1039F0005C30C2F2000000689DF81B109DF81A3080
:103A0000C91A514344F6D352C1F26202A1FB02210A
:103A1000890903F013FB01A8FFF712FE40F278209A
:103A2000C2F20000006858B1FFE740F27820C2F20D
:103A30000000006801A900231A4603F045F8FFE7DB
:103A4000C0E7000080B584B040F2FC01C2F2000182
:103A500000200871086041F60040C4F201000290A5
:103A600040210391FEF7A4FE022001F085FF029899
:103A70000399FEF7A7FE40F20410C2F20000694667
:103A800048600420086043F6A520C0F6000047F611
:103A90002C51C0F6000180220A2303F04FFC04B031
:103AA00080BD000080B584B00390039818B1FFE793
:103AB0000398009002E014200090FFE70098029025
:103AC000FFE702984FF47A71484344F6D351C1F2AC
:103AD0006201A0FB0110800901F04EFF41F6004099
:103AE000C4F201008021FEF763FE00200190FFE791
:103AF0000198042828DCFFE7FFE743F60000C4F242
:103B00000000022100F0FEFF01280CD1FFE74EF675
:103B10000451CEF200014FF080500860BFF34F8F88
:103B2000BFF36F8FE9E7019940F2FC00C2F2000099
:103B3000415C43F60000C4F2000000F0D9FFFFE74B
:103B4000019801300190D3E741F60040C4F2010032
:103B50008021FEF737FEB4E788B007900691059202
:103B6000002004900798132843DCFFE70798C1174B
:103B700000EB9170801003900798C11700EB9171D2
:103B800021F00301401A02900299032000FA01F388
:103B9000039A40F2FC01C2F20001885C9843885409
:103BA000059818B3FFE706980090012804D0FFE7B6
:103BB0000098022804D007E001208DF8070007E0F4
:103BC00002208DF8070003E000208DF80700FFE7D2
:103BD0009DF80700029900FA01F3039A40F2FC01F4
:103BE000C2F20001885C18438854FFE7012004906A
:103BF000FFE7049808B0704780B584B000200190BA
:103C0000039002F05BFC02F0ABFB02F033FB02F02E
:103C1000BFFC02F03FFA02F0F7F9019B0820C4F262
:103C20000200029042F24C41C4F201011A4602F035
:103C300015FA02980121FEF76FFB02F053FD02F026
:103C4000E1FB02F0BFFA02F0D5F802F0CFFC02F07F
:103C500047F902F09DFD02F013FAFFE7FEE70000CE
:103C600080B584B08DF80F00029101920020009081
:103C7000FCF756FE0299019AFCF74AFD00909DF967
:103C80000F000099FCF776FE9DF90F00FCF728FE67
:103C900004B080BD80B582B08DF807009DF80700A4
:103CA000FCF78AFE02B080BD80B584B0039002911B
:103CB00045F27430C2F200000068009040F210102B
:103CC000C2F200000068043001F040FC08B9FFE7D0
:103CD00000E0FFE70398013080B9FFE7029868B180
:103CE000FFE740F21010C2F200000068011D45F22B
:103CF0006030C2F2000001F0FDFC3DE00098039945
:103D000008440190019840F21011C2F200010968C4
:103D100048600198009988420ED2FFE740F21C10DB
:103D2000C2F20000006840F21011C2F200010968FE
:103D3000043101F0A9FC1EE040F21810C2F20000AC
:103D4000006840F21011C2F200010968043101F06C
:103D50009BFC019845F2F821C2F2000109688842F3
:103D600007D2FFE7019845F2F821C2F2000108608E
:103D700000E0FFE7FFE7FFE704B080BD80B582B059
:103D8000019001F0D5FC45F28421C2F200010868DF
:103D90000130086040F21010C2F20000006898B9CB
:103DA000FFE7019840F21011C2F20001086045F2ED
:103DB0008420C2F200000068012803D1FFE700F070
:103DC00037FA00E0FFE71CE045F25830C2F200008D
:103DD0000068A0B9FFE740F21010C2F200000068CE
:103DE000C06A0199C96A884207D8FFE7019840F282
:103DF0001011C2F20001086000E0FFE700E0FFE7F9
:103E0000FFE745F28C21C2F200010868013008602A
:103E10000198C06A45F29021C2F200010968884207
:103E200008D9FFE70198C06A45F29021C2F200016B
:103E30000860FFE70199C86A00EB800240F2241095
:103E4000C2F2000000EB8200043101F053FC01F0EB
:103E50009BFC45F25830C2F200000068C8B1FFE791
:103E600040F21010C2F200000068C06A0199C96AED
:103E700088420CD2FFE74EF60451CEF200014FF01B
:103E800080500860BFF34F8FBFF36F8F00E0FFE7F4
:103E900000E0FFE702B080BD80B582B001F048FCD1
:103EA00045F27830C2F200000068B0BBFFE745F28F
:103EB000A020C2F20000009001F0C6FB45F2B42041
:103EC000C2F20000019001F0BFFB0099019840F29E
:103ED0001412C2F20002116040F22011C2F200017D
:103EE00008600A201021002202F02AFD014645F256
:103EF0007830C2F200000160006860B1FFE745F26F
:103F00007830C2F20000006847F63B51C0F600016D
:103F100001F0D6FC00E0FFE700E0FFE701F034FC31
:103F200002B080BD7047000080B582B00190009162
:103F30000198006CB8B1FFE70199C8680A6C104499
:103F4000C86001988168C068884204D3FFE701997E
:103F50000868C86000E0FFE70098019AD168126C19
:103F6000FCF702FAFFE702B080BD000080B586B022
:103F7000059004910392002002900598806B0190B7
:103F80000598006C78B9FFE70598006848B9FFE725
:103F90000598806803F034FB029005990020886042
:103FA00000E0FFE741E00398B8B9FFE7059A0499FC
:103FB0005068126CFCF7D8F9059948680A6C1044EF
:103FC0004860059948688968884204D3FFE70599E5
:103FD0000868486000E0FFE726E0059A0499D06889
:103FE000126CFCF7C1F90599C8680A6C801AC860A0
:103FF00005980168C068884206D2FFE7059988687D
:104000000A6C801AC86000E0FFE70398022809D113
:10401000FFE7019820B1FFE701980138019000E027
:10402000FFE700E0FFE7FFE7FFE7019801300599B0
:104030008863029806B080BD82B001900198406A02
:1040400038B1FFE70198006B0068C0F110000090E4
:1040500002E000200090FFE7009802B070470000E7
:1040600082B0019040F21410C2F2000000680068B3
:10407000B0FA80F04009019908600198006848B9D9
:10408000FFE740F21410C2F200000068C068006848
:10409000009002E000200090FFE7009802B0704717
:1040A00080B582B00190FFE7FFF73CFF40F224109B
:1040B000C2F20000006802280CD3FFE74EF604515C
:1040C000CEF200014FF080500860BFF34F8FBFF376
:1040D0006F8F00E0FFE701F063FAE5E780B584B099
:1040E000DDF818C00390029101928DF80330029818
:1040F00018B9FFE70698006003E001980699086088
:10410000FFE703980699C863029806990864069821
:10411000012102F07BFC04B080BD000080B588B0B6
:10412000DDF834C0DDF830C0DDF82CC0DDF828C083
:1041300006900591049203930C98006B04998900F2
:10414000A522FCF756F90C98006B049900EB81004E
:1041500004380290029820F0070002909DF80800B1
:10416000400758B1FFE74FF0500080F31188BFF3CC
:104170006F8FBFF34F8F0790FFE7FEE70598F8B109
:10418000FFE700200190FFE701980F2813D8FFE711
:104190000598019A805C0C99114481F834000598C7
:1041A0000199405C08B9FFE705E0FFE7FFE70198E8
:1041B00001300190E8E70C99002081F8430004E009
:1041C0000C99002081F83400FFE70A98102803D3E7
:1041D000FFE70F200A9000E0FFE70A980C99C862F9
:1041E0000A980C9948640C99002088640C98043053
:1041F00001F042FA0C98183001F03EFA0C98006178
:104200000A98C0F110000C9988610C9840620298DD
:104210000699039A00F0F0FB0C9908600B9820B106
:10422000FFE70C980B99086000E0FFE708B080BD3D
:1042300080B584B000200390FFE703980F2810D8C2
:10424000FFE7039800EB800140F22410C2F2000067
:1042500000EB810001F0F8F9FFE7039801300390CB
:10426000EBE745F2C820C2F20000019001F0ECF942
:1042700045F2DC20C2F20000029001F0E5F945F2BF
:104280000430C2F2000001F0DFF945F26030C2F202
:10429000000001F0D9F90199029840F21812C2F217
:1042A0000002116040F21C11C2F20001086004B06B
:1042B00080BD000080B586B0059004910392029302
:1042C00000200190049805994860059800610498C1
:1042D0000399884216D8FFE703980299401A059976
:1042E0008969884203D3FFE70120019009E040F289
:1042F0002010C2F2000000680599043101F0C4F9F1
:10430000FFE717E003980299884208D2FFE7049874
:104310000299884203D3FFE70120019009E040F2AF
:104320001410C2F2000000680599043101F0ACF9E4
:10433000FFE7FFE7019806B080BD000080B582B0BE
:10434000019001F0F5F90198806B18B9FFE70120A1
:10435000009002E000200090FFE701F015FA0098BD
:1043600002B080BD80B582B0019001F0E1F9019802
:10437000806B0199C96B884203D1FFE7012000904F
:1043800002E000200090FFE701F0FEF9009802B083
:1043900080BD000006480068006880F3088862B6A7
:1043A00061B6BFF34F8FBFF36F8F00DF00BF000018
:1043B00008ED00E080B586B00490039140F214103F
:1043C000C2F200000068C068C06801900198043023
:1043D00001F0BCF8019890F824004007002823D58C
:1043E000FFE70198049B81691944039AFFF762FF74
:1043F000C0B1FFE70198049A694600230B60194693
:1044000003F05EFB0290029858B9FFE74FF05000AE
:1044100080F31188BFF36F8FBFF34F8F0590FFE7D5
:10442000FEE700E0FFE707E0019991F8240000F0C3
:10443000FE0081F82400FFE70198016A884706B072
:1044400080BD000080B58EB0FFE745F27830C2F243
:104450000000006807A9002202F002FD002800F019
:10446000B880FFE70798B0F1FF3F17DCFFE707A828
:1044700004300290029858B9FFE74FF0500080F3E3
:104480001188BFF36F8FBFF34F8F0D90FFE7FEE7EB
:1044900002990A6848688968904700E0FFE7079832
:1044A000002800F19580FFE709980690069840697A
:1044B00028B1FFE70698043001F048F800E0FFE774
:1044C00005A800F0F5F8039007980190092800F27C
:1044D0007D800199DFE801F00505053D456605058C
:1044E0003D45069991F8240040F0010081F8240030
:1044F0000698089B81691944039AFFF7DBFE30B3E5
:10450000FFE70698016A8847069890F8240040075C
:1045100000281AD5FFE70698089982690A44694677
:1045200000230B60194603F0CBFA0490049858B9A5
:10453000FFE74FF0500080F31188BFF36F8FBFF398
:104540004F8F0C90FFE7FEE700E0FFE700E0FFE79A
:104550003DE0069991F8240000F0FE0081F8240067
:1045600035E0069991F8240040F0010081F824001C
:104570000898069988610698806958B9FFE74FF056
:10458000500080F31188BFF36F8FBFF34F8F0B90F4
:10459000FFE7FEE70698039B816919441A46FFF777
:1045A00089FE14E0069890F824008007002804D4BF
:1045B000FFE7069801F00EF907E0069991F824004C
:1045C00000F0FE0081F82400FFE700E0FFE7FFE7CE
:1045D0003BE70EB080BD000080B584B0039002912F
:1045E00001F060FB684600F063F801900098D8BBCA
:1045F000FFE7029860B9FFE703980199884207D85E
:10460000FFE703F063F903980199FFF7D3FE2AE06F
:10461000029858B1FFE740F22010C2F20000006893
:104620000068B0FA80F040090290FFE745F2783068
:10463000C2F2000000680399019A891A029A01F0F7
:1046400069F903F043F960B9FFE74EF60451CEF281
:1046500000014FF080500860BFF34F8FBFF36F8FA2
:1046600000E0FFE7FFE702E003F030F9FFE704B006
:1046700080BD000040F21810C2F20000006800681F
:1046800040B9FFE745F2F821C2F200014FF0FF30D8
:1046900008600CE040F21810C2F200000068C06828
:1046A000006845F2F821C2F200010860FFE7704798
:1046B00080B582B0019002F0A9FE0090009840F20F
:1046C0000811C2F200010968884206D2FFE700F033
:1046D00011F801990120086003E0019900200860A9
:1046E000FFE7009840F20811C2F20001086000984C
:1046F00002B080BD80B588B0FFE740F21410C2F26E
:1047000000000068006800284ED0FFE740F2141057
:10471000C2F200000168C968096806910068C068B3
:10472000C06803900398043000F010FF0398016AFA
:104730008847039890F824004007002832D5FFE707
:104740000698039989690844059005980699884256
:104750000FD9FFE70598039948600398006140F27C
:104760001410C2F2000000680399043100F08CFFBD
:1047700017E00398069A694600230B60194603F078
:104780009FF90290029858B9FFE74FF0500080F36C
:104790001188BFF36F8FBFF34F8F0790FFE7FEE7DE
:1047A000FFE700E0FFE7A8E740F21412C2F20002C0
:1047B0001068049040F22011C2F2000108681060F5
:1047C0000498086008B080BD83B00020009040F2DB
:1047D0000400C2F200000068013058B1FFE74FF05A
:1047E000500080F31188BFF36F8FBFF34F8F02909B
:1047F000FFE7FEE74FF0500080F31188BFF36F8FA3
:10480000BFF34F8F0190FFE7009808B9FFE7FBE780
:1048100003B0704780B584B00390FFE701A8FFF7AD
:104820001FFC029002980199FFF7D6FEFFF70AFEDF
:10483000F4E7000080B582B0019000F079FF0198A4
:1048400090F845008DF80300FFE79DF9030001286B
:1048500016DBFFE70198406A58B1FFE70198243062
:1048600002F0CCFF18B1FFE701F0D0F800E0FFE75D
:1048700000E005E09DF8030001388DF80300E4E74F
:104880000199FF2081F8450000F07EFF00F050FF05
:10489000019890F844008DF80200FFE79DF90200AE
:1048A000012816DBFFE70198006980B1FFE7019856
:1048B000103002F0A3FF18B1FFE701F0A7F800E005
:1048C000FFE79DF8020001388DF8020000E000E0EB
:1048D000E4E70199FF2081F8440000F055FF02B0A1
:1048E00080BD000080B582B00190002000909DF84E
:1048F0000400400788B1FFE7019921F00700083064
:10490000884206D9FFE7019820F00700083001909F
:1049100002E000200190FFE7FFE701F0C3F940F259
:104920000C10C2F20000006868B9FFE740F27C207A
:10493000C2F20000083020F0070040F20C11C2F271
:1049400000010860FFE7019838B3FFE745F2F42063
:10495000C2F2000000680199084444F6F7718842E9
:104960001BD8FFE745F2F420C2F20000016801986D
:104970000844884211D9FFE740F20C10C2F200004F
:10498000006845F2F421C2F200010A681044009068
:10499000019A086810440860FFE702F097FF00984A
:1049A00002B080BD40F21010C2F20000006848B1B1
:1049B000FFE740F21010C2F200000168886C01307D
:1049C0008864FFE740F21010C2F2000000687047F0
:1049D00081B08DF803009DF8032047F20001C4F276
:1049E0000001086802F0070220F0E00040EA4210EF
:1049F000086001B07047000083B0029001910092FE
:104A000002980438029002994FF080700860029872
:104A100004380290019820F0010002990860029881
:104A200004380290029944F2C970C0F60000086090
:104A30000298143802900098029908600298203871
:104A40000290029803B0704780B584B08DF80F00D3
:104A500000208DF80E0040F2B800C2F2000000689D
:104A600045F60001C4F20001884215D1FFE79DF828
:104A70000F306A4605209060012151600DF10E0053
:104A8000106040F2B800C2F200005A22FEF7BAFAF3
:104A900008B1FFE7FFE7FFE79DF80E0004B080BD17
:104AA00081B000900099002008700099487000992A
:104AB00088700099C8700099087100994871009930
:104AC000887100990120C87101B0704782B00190CF
:104AD0008DF803109DF803200199086802F0010287
:104AE00020F0400040EA8210086002B070470000E9
:104AF00082B00190ADF80210BDF802000199C860C3
:104B000002B0704783B00290019100208DF803003D
:104B1000029880680199084204D1FFE700208DF8CF
:104B2000030003E001208DF80300FFE79DF8030078
:104B300003B0704782B0019000910199C86920F4D8
:104B40000060C8610098007880B9FFE701990868A3
:104B500020F4004008600199086820F48040086053
:104B60000199086820F48060086041E000980078AE
:104B7000012810D1FFE70199086820F4004008607F
:104B80000199086820F4804008600199086840F4A1
:104B9000806008602BE000980078022810D1FFE7C1
:104BA0000199086840F4004008600199086820F401
:104BB000804008600199086820F48060086015E072
:104BC00000980078032810D1FFE70199086840F4A5
:104BD000004008600199086840F48040086001992D
:104BE000086820F480600860FFE7FFE7FFE7FFE761
:104BF0000098C2790199086802F0010220F400705F
:104C000040EA422008600098407801280BD1FFE775
:104C10000098C079012806D1FFE70199086840F49F
:104C20008070086005E00199086820F480700860D1
:104C3000FFE7009842780199086802F0010220F02D
:104C4000040040EA8200086000988078082811DBA0
:104C5000FFE70199486840F48070486000988078C8
:104C600000F007020199086820F0380040EAC2000D
:104C7000086010E00199486820F48070486000984E
:104C800082780199086802F0070220F0380040EAB3
:104C9000C2000860FFE70098C2780199086802F036
:104CA000010220F0800040EAC210086000980279FA
:104CB0000199086802F0010220F4006040EAC22075
:104CC0000860009842790199086802F0010220F01A
:104CD000020040EA42000860009882790199086861
:104CE00062F30000086002B07047000080B58CB02D
:104CF000002000900B900A90099008900790069071
:104D0000059004900390FDF7F5FA8DF80B009DF8DF
:104D10000B000146019140B1FFE7019801282BD01B
:104D2000FFE70198022831D0D6E041F25400C4F2E6
:104D300002000068400AC00798B1FFE741F2300066
:104D4000C4F202000068400EC00750B1FFE740F215
:104D50000001C2F2000146F60040C0F2DC2008600B
:104D600009E040F20001C2F2000141F20020C0F26D
:104D70007A000860FFE7B9E040F20001C2F20001EA
:104D800042F20040C0F2F4000860AFE041F20400DB
:104D9000C4F202000068C0F30040099041F22C0008
:104DA000C4F2020001680020B0EBD17F50D1FFE7D0
:104DB00041F20400C4F202000168C1F383410B9187
:104DC0000068C0F341700A900A9820B9FFE70B9879
:104DD0000F2807D1FFE70A990B9800EB011001306B
:104DE0000B9003E00B9802300B90FFE7099860B935
:104DF000FFE70B9840F60011C0F23D01484340F236
:104E00000001C2F20001086021E041F20400C4F296
:104E100002000068400CC00760B1FFE70B9841F248
:104E20000021C0F27A01484340F20001C2F20001C1
:104E300008600BE00B9842F20041C0F2F4014843D5
:104E400040F20001C2F200010860FFE7FFE742E024
:104E500041F22C00C4F202000168C1F30311059174
:104E60000168C1F308210491006800F00700039075
:104E7000099830B9FFE740F60010C0F23D000690F7
:104E800015E041F20400C4F202000068400CC007C3
:104E900030B1FFE741F20020C0F27A00069005E051
:104EA00042F20040C0F2F4000690FFE7FFE70698E8
:104EB0000499A0FB0101059ADDF80CC0012303FA57
:104EC0000CF35A430023FBF7D7F940F20001C2F27A
:104ED00000010860FFE709E040F20001C2F20001B2
:104EE00041F20020C0F27A000860FFE741F20400BE
:104EF000C4F202000068C0F303100890089947F656
:104F00004850C0F60000405C079040F20001C2F239
:104F100000010868079AD04008600CB080BD00000E
:104F200081B08DF803009DF80300042809D1FFE744
:104F30004EF21001CEF20001086840F00400086053
:104F400008E04EF21001CEF20001086820F00400E3
:104F50000860FFE701B0704783B0029001910092B2
:104F600001980299C862009802998862029948697A
:104F700040F00100486103B07047000082B001902A
:104F80008DF803109DF803200199086802F00302D0
:104F900020F4407040EA0220086002B07047000030
:104FA00082B001908DF803109DF8032001990868E4
:104FB00002F0070220F0700040EA0210086002B020
:104FC0007047000082B001908DF803109DF8032017
:104FD0000199086862F30000086002B070470000A1
:104FE00082B001908DF803108DF802208DF8013009
:104FF0009DF803200199886862F302008860019996
:10500000086A20F0010008620199086A20F0100087
:1050100008629DF8020000F001020199086A20F080
:10502000020040EA420008629DF802200199086AE5
:10503000520862F3C300086201998869012262F391
:10504000010088619DF8010000F001030199086AE0
:1050500020F0200040EA431008629DF801300199D9
:10506000086A5B0863F3C71008620199886962F3F4
:105070000920886102B0704784B0039002918DF8D6
:1050800007200020ADF8040002980078ADF8040075
:10509000BDF8040001460091062800F2FF80009947
:1050A000DFE811F00700FC004500FC008700FC0071
:1050B000C5000399086A20F001000862029842784E
:1050C0000399086A02F0010220F0020040EA42005F
:1050D00008620298407800F002020399086A20F002
:1050E000080040EA82000862029882780399886981
:1050F00062F3010088610298C2780399886902F01E
:105100000F0220F0F00040EA021088619DF80720AD
:105110000399886902F0030220F00C0040EA820043
:1051200088610399086A40F001000862B7E00399BA
:10513000086A20F010000862029842780399086A11
:1051400002F0010220F0200040EA421008620298BA
:10515000407800F002020399086A20F0800040EADB
:1051600082100862029882780399886902F003022B
:1051700020F4407040EA022088610298C2780399C6
:10518000886902F00F0220F4704040EA0230886122
:105190009DF807200399886902F0030220F440601B
:1051A00040EA822088610399086A40F01000086292
:1051B00075E00399086A20F48070086202984278CA
:1051C0000399086A02F0010220F4007040EA4220CC
:1051D00008620298407800F002020399086A20F4FD
:1051E000006040EA82200862029882780399C869C8
:1051F00062F30100C8610298C2780399C86902F09D
:105200000F0220F0F00040EA0210C8619DF807206C
:105210000399C86902F0030220F00C0040EA820002
:10522000C8610399086A40F48070086237E0039906
:10523000086A20F480500862029842780399086A4C
:1052400002F0010220F4005040EA42300862029865
:1052500082780399C86902F0030220F4407040EAA2
:105260000220C8610298C2780399C86902F00F024F
:1052700020F4704040EA0230C8619DF8072003998D
:10528000C86902F0030220F4406040EA8220C8614D
:105290000399086A40F48050086200E0FFE704B018
:1052A0007047000082B001908DF803109DF8032034
:1052B0000199086802F0010220F0800040EAC21063
:1052C000086002B07047000082B001908DF80310B2
:1052D0009DF803200199486802F0070220F0700051
:1052E00040EA0210486002B07047000082B00190AE
:1052F0008DF803109DF803200199886802F00102DF
:1053000020F0800040EAC210886002B070470000C0
:1053100082B001908DF803109DF803200199C868B0
:1053200002F0010220F4005040EA4230C86002B0AE
:105330007047000082B001908DF803109DF80300C3
:1053400058B9FFE70199486920F4807048610199D4
:10535000486920F40070486132E09DF8030001289C
:105360000BD1FFE70199486940F4807048610199C9
:10537000486920F40070486121E09DF8030002288C
:105380000BD1FFE70199486920F4807048610199C9
:10539000486940F40070486110E09DF8030003285C
:1053A0000BD1FFE70199486940F480704861019989
:1053B000486940F400704861FFE7FFE7FFE7FFE757
:1053C00002B0704780B58AB0099008918DF81F200F
:1053D0008DF81E3002A8FCF775FC099843F6000111
:1053E000C4F20101884203D1FFE70498019002E072
:1053F00005980190FFE7019800EB800040000899B4
:10540000B0FBF1F0009000984CF6CD41CCF6CC41C9
:10541000A0FB0121C90801EB8101A0EB4100042898
:105420000AD8FFE700984CF6CD41CCF6CC41A0FB62
:105430000110C00800900BE000984CF6CD41CCF66E
:10544000CC41A0FB0101012000EBD1000090FFE75F
:10545000BDF80020099988684FF6FF7398431044FF
:1054600088609DF81F200999C86802F0010220F4A5
:10547000805040EA0230C8609DF81E2009990869F2
:1054800002F0030220F4405040EA023008610AB002
:1054900080BD000082B001908DF803109DF80300DC
:1054A00058B9FFE70199C86820F40070C8600199F5
:1054B000C86820F48060C86021E09DF803000128DE
:1054C0000BD1FFE70199C86820F40070C86001990A
:1054D000C86840F48060C86010E09DF803000228AE
:1054E0000BD1FFE70199C86840F40070C8600199CA
:1054F000C86840F48060C860FFE7FFE7FFE702B0DC
:105500007047000082B001908DF803109DF80320D1
:105510000199C86802F0010220F0040040EA82000C
:10552000C86002B07047000082B001908DF803108F
:105530009DF803200199C86802F0010220F00800DC
:1055400040EAC200C86002B07047000082B001901B
:10555000019800690090019841688068886001990D
:10556000486889684860009840680199884205D178
:10557000FFE7019880680099486000E0FFE7019923
:1055800000200861009908680138086000980068E8
:1055900002B0704745F28420C2F2000000687047F4
:1055A00080B582B045F29821C2F20001086801304E
:1055B000086045F29420C2F200000068FA300190C1
:1055C00001F024FF01460198884239D2FFE701F03B
:1055D0001DFF45F29421C2F20001086045F29820B7
:1055E000C2F20000006845F29C21C2F20001096885
:1055F00088420BD9FFE745F29820C2F2000000680C
:1056000045F29C21C2F200010860FFE745F29C20B0
:10561000C2F20000026845F29821C2F20001086857
:10562000101A42F210735843B0FBF2F040F28802B5
:10563000C2F20002D0610020086000F09FFBFFE78B
:1056400002B080BD7047000081B00090009901F168
:105650000800486000994FF0FF308860009901F120
:105660000800C860009901F1080008610099002055
:10567000086001B07047000081B0009000990020E0
:10568000086101B07047000084B003900291029855
:10569000006800900098013020B9FFE70398006986
:1056A000019010E0039808300190FFE701984068EE
:1056B00000680099884205D8FFE7FFE70198406835
:1056C0000190F3E7FFE7019840680299486002986B
:1056D0004168886001980299886002980199486041
:1056E000039802990861039908680130086004B0C2
:1056F0007047000083B002900191029840680090CA
:105700000098019948600098806801998860019824
:105710000099896848600198009988600298019909
:105720000861029908680130086003B07047000002
:1057300082B04FF0500080F31188BFF36F8FBFF33A
:105740004F8F019040F20400C2F200000168013165
:1057500001600068012814D1FFE74EF60450CEF234
:1057600000000068000658B1FFE74FF0500080F3DA
:105770001188BFF36F8FBFF34F8F0090FFE7FEE7F5
:10578000FFE702B07047000082B040F20400C2F2AE
:105790000000006858B9FFE74FF0500080F311880F
:1057A000BFF36F8FBFF34F8F0090FFE7FEE740F22C
:1057B0000400C2F20000016801390160006830B9DC
:1057C000FFE700200190019880F31188FFE702B005
:1057D0007047000082B00090009858B1FFE74FF08A
:1057E000500080F31188BFF36F8FBFF34F8F01908C
:1057F000FFE7FEE702B070474EF21001CEF2000163
:10580000002008604EF21802CEF20002106040F252
:105810000000C2F20000006844F6D352C1F26202F6
:10582000A0FB02024FF0FF3000EB92104EF2140288
:10583000CEF20002106007200860704784B0EFF3DA
:1058400005800190019810281ED3FFE701984EF2C1
:10585000F031CEF20001405C8DF803009DF80300AA
:1058600045F27C21C2F20001097888420BDAFFE799
:105870004FF0500080F31188BFF36F8FBFF34F8F4D
:105880000390FFE7FEE7FFE74EF60C50CEF2000074
:10589000006800F4E06045F28021C2F2000109686E
:1058A00088420BD9FFE74FF0500080F31188BFF317
:1058B0006F8FBFF34F8F0290FFE7FEE704B0704792
:1058C00083B00290019100200090FFE70098072824
:1058D0001DD8FFE7009945F21830C2F2000050F8D9
:1058E000310070B9FFE70198009A45F21831C2F211
:1058F000000141F832000298009A01EBC2014860B1
:1059000005E0FFE7FFE7009801300090DEE703B015
:105910007047000080B584B0039002910192039813
:105920000090FFF705FF009890F94400013028B976
:10593000FFE70099002081F84400FFE7009890F904
:105940004500013028B9FFE70099002081F84500A3
:10595000FFE7FFF719FF0098806B38B9FFE7009861
:1059600024300299019A00F07BF800E0FFE70098EC
:10597000FEF760FF04B080BD80B584B002900020C7
:1059800001900298E0B1FFE745F28820C2F20000E2
:10599000006858B1FFE74FF0500080F31188BFF363
:1059A0006F8FBFF34F8F0390FFE7FEE700F07AF9A8
:1059B00002980021FEF778F901F088FF019000E0DD
:1059C000FFE7019860B9FFE74EF60451CEF20001FF
:1059D0004FF080500860BFF34F8FBFF36F8F00E030
:1059E000FFE704B080BD000081B0009045F2FC20CC
:1059F000C2F2000000680099086045F27430C2F2FB
:105A0000000000680099486001B0704745F280319D
:105A1000C2F20001012008607047000080B584B028
:105A200002900191029858B9FFE74FF0500080F3BF
:105A30001188BFF36F8FBFF34F8F0390FFE7FEE72F
:105A4000029840F21011C2F2000109681831FFF704
:105A50001BFE01980121FEF727F904B080BD00006C
:105A600080B584B0029001910092029858B9FFE786
:105A70004FF0500080F31188BFF36F8FBFF34F8F4B
:105A80000390FFE7FEE7029840F21011C2F2000116
:105A900009681831FFF72EFE009820B1FFE74FF09C
:105AA000FF300190FFE701980099FEF7FDF804B080
:105AB00080BD000080B588B00590049105980390E2
:105AC000012000900598002800F08B80FFE70398E4
:105AD000806C58B9FFE74FF0500080F31188BFF396
