:020000040800F2
:100000006057002085010008610B0008590B0008AB
:100010005D0B0008F10900089D0D000800000000BC
:10002000000000000000000000000000910C00082B
:10003000550B000800000000410C0008B50C00083A
:100040009F0100089F0100089F0100089F01000810
:100050009F0100089F0100089F0100089F01000800
:100060009F0100089F0100089F010008510B000834
:100070009F0100089F0100089F0100089F010008E0
:100080009F0100089F0100089F0100089F010008D0
:10009000F50900087D0A0008050B00089F0100080B
:1000A0009F0100089F0100089F0100089F010008B0
:1000B0009F010008950D00089F0100089F0100089E
:1000C0009F0100089F0100089F0100089F01000890
:1000D0009F010008990D00089F0100089F0100087A
:1000E0009F0100089F0100089F0100080000000018
:1000F0000000000000000000000000000000000000
:10010000000000009F0100089F010008000000009F
:100110009F0100089F01000800000000000000008F
:100120009F0100089F0100089F0100089F0100082F
:1001300000000000000000000000000000000000BF
:100140000000000000000000000000009F01000807
:1001500000000000000000009F0100089F0100084F
:100160000000000000000000000000009F010008E7
:10017000DFF80CD000F024FC00480047E1490008FB
:10018000605700200648804706480047FEE7FEE724
:10019000FEE7FEE7FEE7FEE7FEE7FEE7FEE7FEE737
:1001A000C10C0008710100082DE9F05F0546002030
:1001B00092469B4688460646814640241BE02846D8
:1001C00041464746224600F0A2FA53465A46C01A14
:1001D000914110D311461846224600F089FA2D1A93
:1001E00067EB01084F4622460120002100F080FA0B
:1001F00017EB00094E41201EA4F10104DFDC484644
:1002000031462A464346BDE8F09F40EA01039B077A
:1002100003D009E008C9121F08C0042AFAD203E07B
:1002200011F8013B00F8013B521EF9D27047D2B2DF
:1002300001E000F8012B491EFBD270470022F6E7CF
:1002400010B513460A4604461946FFF7F0FF20464C
:1002500010BD421C10F8011B0029FBD1801A704709
:10026000F0B480EA0102D40F4200B2EB410F02D297
:100270000246084611464A0042D0C30DDDB2C1F322
:10028000C752AD1A202D35DAC1F3160141F4000230
:1002900004B15242C5F1200602FA06F12A41104487
:1002A000B3EBD05F23D0C4B1012DA0EBC35009DC68
:1002B000F0BC4FF0004202EAC352DBB200F500008E
:1002C00000F050BA400000F1807000EBC350A0F184
:1002D000807040EAD170490009E0490841EAC071E4
:1002E000A0EBC35000F50000400800EBC350F0BC89
:1002F00000F02FBA6142012202EB4101001BF6E738
:10030000F0BC704781F00041AAE780F00040A7E709
:1003100080EA010210B502F00043400022D04A00FA
:100320001FD0010E01EB1261C0F35600C2F356025A
:1003300040F4000042F40002A0FB022000047F39D8
:10034000140400D0401C50EA124001D44000491E61
:10035000C2B20C0604EBD010401C4008802A02D028
:1003600003E0002010BD20F00100002900DA002089
:10037000184310BD30B480EA010202F0004530F0AD
:10038000004221F0004013D090B1C30DD40DC2F350
:100390001601C0F31600E41A41F4000140F4000213
:1003A0007D34914201D3641C00E04900002C02DA44
:1003B00030BC002070474FF400000023914201D36D
:1003C000891A034340084FEA4101F7D151B19142E4
:1003D00002D14FF0004105E002D24FF0010101E0EF
:1003E0006FF0010103EBC450284430BC00F0B1B9F8
:1003F0002DE9FE4F804681EA0300C00F0C460090B5
:1004000021F0004123F00045B8EB0200A94105D2DC
:100410004046214690461C460B46024623F00040CB
:10042000104347D0270DC7F30A00C3F30A510290C7
:10043000401A019040286BDAC3F3130040F4801B8C
:100440000098924620B10023D2EB030A63EB0B0B1A
:1004500001985946C0F14002504600F049F906465D
:100460000D4650465946019A00F061F910EB08001C
:100470006141002487EA115284EAE7731A4340D0AD
:10048000009A62B3019A012A4FEA075215DC001B59
:1004900061EB02014FF0004202EA0752CDE900424F
:1004A000001C41F5801132462B4600F098F903B04C
:1004B000BDE8F08F40462146F9E7001B61EB0201E1
:1004C000001C41F5801300185B412018A2F50017AD
:1004D00047EB030140EAD570B6196D4111E06D0894
:1004E0004FEA360645EAC0754FEA0752001B61EB3A
:1004F0000201001C41F5801149084FEA3000001943
:10050000514132462B4603B0BDE8F04F00F058B9D8
:100510000098012240000023D0EB020263EBE0735D
:10052000009821464FEAE074B8EB000061EB04014B
:10053000E9E783F000435BE781F0004158E72DE9EC
:10054000F04D81EA030404F0004B21F0004514460D
:100550004FF0000A23F0004150EA050220D054EA8F
:1005600001021DD0C5F30A570246C5F31303C1F3B8
:100570001300C1F30A5640F4801543F48013A7EB2F
:100580000608101BD64608F2FD3873EB050002D3AF
:1005900008F1010801E092185B41B8F1000F03DA9D
:1005A00000200146BDE8F08D00204FF48011064682
:1005B00084460EE0171B73EB050705D3121B63EB94
:1005C000050306434CEA010C49084FEA3000921833
:1005D0005B4150EA0107EDD152EA030012D082EAF2
:1005E000040083EA0501084305D0101BAB4106D285
:1005F0000122002306E000224FF0004302E06FF0EA
:10060000010253101AEB06004CEB085110EB0A00E4
:1006100041EB0B01BDE8F04D00F0D2B8002801DB42
:10062000C0F10040002901DBC1F10041814201D845
:100630000120704700207047002801DBC0F1004016
:10064000002901DBC1F10041814201D30120704743
:1006500000207047C10F80EAE0700844CA07962363
:10066000002100F07FB800F0004230F000400AD0D6
:10067000C10D01F56071C0F3160042EA0151C208D4
:1006800040071143704700200146704701F00043C6
:1006900030B421F0004150EA010206D00A0DA2F563
:1006A0006072C1F31301002A02DC30BC00207047E5
:1006B000440F44EAC104C100E01830BC00EBC25052
:1006C00000F047B830B50B46014600202022012437
:1006D00009E021FA02F59D4205D303FA02F5491B10
:1006E00004FA02F52844151EA2F10102F1DC30BD26
:1006F000202A04DB203A00FA02F1002070479140E2
:10070000C2F1200320FA03F3194390407047202AD6
:1007100004DB203A21FA02F00021704721FA02F3AB
:10072000D040C2F120029140084319467047202A68
:1007300006DBCB17203A41FA02F043EAE07306E009
:1007400041FA02F3D040C2F1200291400843194619
:1007500070470029A8BF7047401C490008BF20F01F
:100760000100704710B4B0FA80FC00FA0CF050EAB7
:10077000010404BF10BC704749B1CCF1200421FA38
:1007800004F411FA0CF118BF012121430843A3EB33
:100790000C01CB1D4FEA00614FEA102042BF002040
:1007A00010BC704700EBC35010440029A4BF10BC1C
:1007B0007047401C490008BF20F0010010BC704782
:1007C00010B5141E73F1000408DA401C41F1000159
:1007D00092185B411A4301D120F0010010BD2DE9B0
:1007E000F04D92469B4611B1B1FA81F202E0B0FAA7
:1007F00080F220329046FFF77BFF04460F4640EA26
:100800000A0041EA0B0153465A46084313D01146E9
:1008100053EA010019D0C8F140025046FFF777FFB4
:1008200005460E46504659464246FFF761FF0843CB
:1008300005D0012004E020463946BDE8F08D0020B7
:10084000054346EAE0762C4337430A986305E40AF9
:10085000A0EB08000022FD0A44EA47540A3002D502
:1008600000200146E9E7010510196941DDE9084565
:1008700000196941BDE8F04DA2E72DE9FE4F81EA7C
:10088000030404F0004421F0004100944FF0000BF9
:1008900023F0004350EA01045ED052EA03045BD027
:1008A000C3F30A54C1F30A552C44A4F2F33401945F
:1008B000A0FB0254C1F3130141F48011C3F31303ED
:1008C00043F4801301FB024400FB034E840A970AA1
:1008D00044EA815447EA8357A4FB076802958D0ACE
:1008E00005FB07854FEA932C04FB0C542705029D5A
:1008F0004FEA065847EA1637B5EB08056EEB070CCA
:10090000870E920E47EA811742EA8312A7FB020183
:10091000B6EB0B0164EB00042B0D43EA0C335E18BD
:1009200044EB1C50DA465146E7FB0201C5F31304C1
:100930004FEA0B3343EA14534FEA0432019C43EA73
:100940000603A4F10C040294009CCDE900B4FFF767
:1009500046FF03B0BDE8F08F00200146F9E7C1F380
:100960000A52C1F3130140F2FF3341F480119A425D
:1009700002DA00200146704740F233439A42A2F265
:10098000334202DC5242FFF7C2BEFFF7B1BE0000A5
:1009900030B5041E71F1000404DB4FF00044404206
:1009A00064EB0101141E73F1000405DB1C464FF0DB
:1009B0000043524263EB0403994208BF904230BDAA
:1009C0001CB509480090094801900546009C06E0C6
:1009D000E06840F0010394E8070098471034AC4207
:1009E000F6D3FFF7C9FB0000649200088492000868
:1009F000FFE7FEE780B586B00020059046F2004094
:100A0000C4F20000092101F01DFA28B3FFE700201D
:100A10000490039002900190009040F25020C2F2A6
:100A200000000068B8B1FFE749F2B800C0F6000066
:100A30004068426800206946904701280BD1FFE7D3
:100A400040F25020C2F200000068694605AA002367
:100A500006F018FFFFE7FFE7059860B1FFE74EF6E5
:100A60000451CEF200014FF080500860BFF34F8F69
:100A7000BFF36F8FFFE706B080BD000080B586B082
:100A80000020059046F20040C4F200000C2101F065
:100A9000D9F928B3FFE70020049003900290019059
:100AA000009040F25020C2F200000068B8B1FFE7A9
:100AB00049F2B800C0F6000040684268012069466B
:100AC000904701280BD1FFE740F25020C2F200000E
:100AD0000068694605AA002306F0D4FEFFE7FFE799
:100AE000059860B1FFE74EF60451CEF200014FF0D9
:100AF00080500860BFF34F8FBFF36F8FFFE706B0E2
:100B000080BD000080B582B00020019046F2004018
:100B1000C4F20000042101F095F9B8B1FFE746F2F4
:100B20001840C4F20000006800F07000019040F22C
:100B30008001C2F20001886A0130886246F20040FA
:100B4000C4F20000042101F02DF9FFE702B080BDDE
:100B50007047000070470000FFE7FEE7FFE7FEE791
:100B60007047000088B0079006910592079800F042
:100B7000070004900498C0F10700052803D3FFE79D
:100B80000420019004E00498C0F107000190FFE701
:100B90000198039004980430062803D8FFE700204A
:100BA000009003E0049803380090FFE7009802905B
:100BB00006980399012202FA01F101390840029BCB
:100BC000984005999A40013A1140084308B070478F
:100BD00088B0079006910592079800F007000490EE
:100BE0000498C0F10700052803D3FFE70420019013
:100BF00004E00498C0F107000190FFE7019803901A
:100C000004980430062803D8FFE70020009003E092
:100C1000049803380090FFE7009802900698039923
:100C2000012202FA01F101390840029B984005991E
:100C30009A40013A1140084308B070470000000094
:100C4000EFF30980BFF36F8F0D4B1A6820E9F00FA7
:100C500010602DE908404FF0500080F3118805F036
:100C600083FE4FF0000080F31188BDE8084019684A
:100C70000868B0E8F00F80F30988BFF36F8F704702
:100C8000F80000200000000000000000000000004C
:100C9000074B19680868B0E8F00F80F30988BFF3C4
:100CA0006F8F4FF0000080F311884EF00D0E7047EB
:100CB000F800002080B506F025FA06F0EBFB80BDB9
:100CC00041F21C01C4F20201086840F08050086043
:100CD00047F25002C4F20002107840F00400107095
:100CE000086820F08050086041F20001C4F202015F
:100CF000086840F001000860FFE741F20000C4F21C
:100D000002000068C0F34000012801D0FFE7F4E7CB
:100D100041F20401C4F20201086820F003000860F7
:100D2000FFE741F20400C4F2020000688008800777
:100D300008B1FFE7F5E741F20001C4F202010868DB
:100D40004FF6FF72CFF6F2621040086041F20401E4
:100D5000C4F202010020086041F22C01C4F2020139
:100D600041F61070086041F23001C4F202014FF404
:100D70008010086041F20801C4F202014FF41F0024
:100D800008604EF60851CEF200014FF00060086096
:100D9000704700007047000070470000FFE7FEE763
:100DA00081B08DF803009DF9030000280ED4FFE701
:100DB0009DF9031001F01F02012090404A094EF2F4
:100DC0000011CEF2000141F82200FFE701B07047A8
:100DD0004EF60C50CEF200000068C0F302207047BF
:100DE0004EF60C50CEF200000068C0F302207047AF
:100DF00082B08DF8070000919DF9070000280AD401
:100E0000FFE7009800019DF907104EF20042CEF274
:100E1000000288540BE0009800019DF8071001F0D3
:100E20000F014EF61452CEF200028854FFE702B0D2
:100E30007047000082B08DF8070000919DF907000F
:100E400000280AD4FFE7009800019DF907104EF230
:100E50000042CEF2000288540BE0009800019DF899
:100E6000071001F00F014EF61452CEF20002885422
:100E7000FFE702B07047000083B00290029800F0D4
:100E8000070000904EF60C51CEF200010868019068
:100E900001984FF6FF02104001900198009A40EA35
:100EA00002200022C0F2FA5210430190019808601B
:100EB00003B0704782B001900091009802780199C8
:100EC000486802F0010220F4807040EA0220486085
:100ED000009842780199886802F0010220F002002F
:100EE00040EA42008860009882780199886802F0A0
:100EF000010220F4006040EAC22088600098C078B7
:100F0000421E0199C86A02F00F0220F4700040EA04
:100F10000250C86202B0704781B000900099002072
:100F20000870009948700099887000990120C87075
:100F300001B0704780B542F20040C4F2010000F0F9
:100F40001BF8FFE742F20040C4F2010000F01EF877
:100F500008B1FFE7F6E742F20040C4F2010000F0FA
:100F600029F8FFE742F20040C4F2010000F02CF83B
:100F700008B1FFE7F6E780BD81B00090009988686E
:100F800040F00800886001B07047000082B0009017
:100F900000988068C008C00720B1FFE701208DF8E5
:100FA000070003E000208DF80700FFE79DF8070029
:100FB00002B0704781B000900099886840F004004A
:100FC000886001B07047000082B00090009880688F
:100FD0008008C00720B1FFE701208DF8070003E07B
:100FE00000208DF80700FFE79DF8070002B070476A
:100FF00082B001908DF803109DF803200199886854
:1010000002F0010220F4807040EA0220886002B001
:101010007047000082B001908DF803109DF8032006
:101020000199886862F30000886002B07047000090
:1010300083B002908DF807108DF806208DF80530EA
:101040009DF8070009281CDCFFE702980069009062
:101050009DF8070000EB4001072000FA01F100981D
:10106000884300909DF805009DF8071001EB4101B1
:1010700000FA01F100980843009000980299086175
:101080001EE00298C06800909DF8070000EB400049
:10109000A0F11E01072000FA01F10098884300909A
:1010A0009DF805009DF8071001EB41011E3900FA7B
:1010B00001F100980843009000980299C860FFE78A
:1010C0009DF806000D281FDBFFE70298C06A00901C
:1010D0009DF8060000EB8000A0F141011F2000FAFE
:1010E00001F10098884300909DF807009DF80610D4
:1010F00001EB8101413900FA01F1009808430090A9
:1011000000980299C86242E09DF8060007281FDB9C
:10111000FFE70298006B00909DF8060000EB80004E
:10112000A0F123011F2000FA01F1009888430090EC
:101130009DF807009DF8061001EB8101233900FAA4
:1011400001F10098084300900098029908631DE09F
:101150000298406B00909DF8060000EB8000411F54
:101160001F2000FA01F10098884300909DF80700C5
:101170009DF8061001EB8101053900FA01F1009894
:1011800008430090009802994863FFE7FFE703B027
:101190007047000082B001908DF803108DF8022096
:1011A0009DF80300082811DBFFE70199886840F0EB
:1011B000007088609DF8030000F0070201998868BC
:1011C00020F4602040EA4240886010E0019988687D
:1011D00020F0007088609DF8030000F0070201997C
:1011E000886820F4602040EA42408860FFE79DF86C
:1011F00002200199886802F0010220F4801040EA80
:101200000250886002B0704782B001908DF80310E0
:101210009DF803200199486802F0010220F4006063
:1012200040EAC220486002B07047000082B00190DE
:101230008DF803109DF803200199886802F00102DF
:1012400020F4800040EA8250886002B070470000BD
:1012500080B582B042F20040C4F20100009001214A
:101260000191FFF7D7FE00980199FFF7DFFF02B069
:1012700080BD000081B08DF803009DF8032042F28C
:101280000841C4F20101086802F0010220F40000E4
:1012900040EAC250086001B07047000080B5A2B0BB
:1012A000219040F25401C2F200010020086040F297
:1012B0005801C2F20001086040F25C01C2F2000174
:1012C000086040F25001C2F20001086049F69A102D
:1012D000C3F679702090FFE749F26000C0F6000085
:1012E0001890C06980470A2005F0A0F940F2480034
:1012F000C2F200000F904088FFF7ACF91899896896
:10130000FFF706F80146189808910088FFF7A2F940
:1013100001460898FFF72EF801460F9840F25C024C
:10132000C2F20002109211608088FFF793F9189AB8
:101330000146109809910168506892680A92FFF777
:1013400019F801460998FEF7E3FF0A99FEF7E0FF56
:10135000014618980B910088FFF77CF901460B981D
:10136000FFF708F81F901F994FF2C350C3F6A870FB
:10137000FEF7C8FFFFF777F94CF2F432CEF208120D
:101380004CF2D163CBF67173FFF7D9F8002200233A
:10139000C4F23903FFF72CF8FFF778F91F9040F2F9
:1013A0005000C2F200000E9000681E901E980C9033
:1013B0001F984CF6C041C3F6CC411491FEF7A8FF2C
:1013C00001460C980D9149F69A11C3F67971159161
:1013D000FEF79EFF0D99FEF743FF0E9A01460F9808
:1013E0001E911E9911600088FFF734F918994A6818
:1013F0001192CA6813920969FEF78AFF1099024692
:10140000119812920968FEF7B5FF01461298FEF78F
:101410007FFF1399FEF724FF14991D9040F25400AA
:10142000C2F20000199000681C901C9816901D983C
:10143000FEF76EFF1599024616981792FEF768FFA1
:101440001799FEF70DFF1899024619981C921C9ADD
:10145000026000684969FFF7E1F860B9FFE749F207
:101460008400C0F600000069C068826840F60D6024
:101470000321904725E040F25400C2F200000068CA
:1014800049F26001C0F600018969FFF7D5F860B93B
:10149000FFE749F28400C0F600000069C068826876
:1014A00040F60D60042190470AE049F28400C0F63E
:1014B00000000069C068C16840F60D608847FFE71A
:1014C000FFE749F26001C0F60001069148688968AB
:1014D000029140F25C01C2F200010968FEF74AFF86
:1014E00001460298FEF714FF1B9040F25800C2F22A
:1014F0000000059000681A901A9803901B984CF60B
:10150000C041C3F6CC41FEF703FF014603980491A6
:1015100049F69A11C3F67971FEF7FAFE0499FEF7BF
:101520009FFE0599024606981A921A9A0A6009685F
:10153000079180684CF6CD41C3F68C71FEF7E8FE4A
:1015400001460798FFF76AF860B9FFE749F284009F
:10155000C0F600000069C068826840F60F60032191
:1015600090472EE040F25800C2F20000006801905F
:1015700049F26000C0F60000806846F26661C3F67A
:101580006671FEF7C5FE01460198FFF755F860B990
:10159000FFE749F28400C0F600000069C068826875
:1015A00040F60F60042190470AE049F28400C0F63B
:1015B00000000069C068C16840F60F608847FFE717
:1015C000FFE789E680B582B001900020009040F2EC
:1015D0006020C2F20000006860B1FFE740F26020C6
:1015E000C2F200000068019900231A4606F034F8A0
:1015F0000090FFE7009802B080BD000080B582B087
:10160000642005F013F805F0C7FE40F28001C2F235
:1016100000010191886104F05BFE0199486102B00C
:1016200080BD000080B582B040F26401C2F20001CA
:1016300008680130086040F26000C2F200000068F3
:10164000FA30019006F0AAFC01460198884239D28E
:10165000FFE706F0A3FC40F26001C2F2000108605F
:1016600040F26400C2F20000006840F26801C2F279
:101670000001096888420BD9FFE740F26400C2F21A
:101680000000006840F26801C2F200010860FFE754
:1016900040F26800C2F20000026840F26401C2F247
:1016A00000010868101A42F210735843B0FBF2F0C0
:1016B00040F28002C2F20002D0610020086005F012
:1016C000B7F9FFE702B080BD40F25400C2F200005B
:1016D0000068704740F25000C2F200000068704796
:1016E00040F25800C2F200000068704780B588B030
:1016F00049F2B800C0F600000068804740F2800060
:10170000C2F2000001F052F86946002006904860DD
:1017100001200790086044F2B550C0F6000049F27D
:10172000CB11C0F600014FF400720592052303931C
:1017300006F0CCFB039B069A079869464A6008604E
:1017400043F26520C0F6000049F2D911C0F600014D
:101750004FF4807206F0BAFB069869464860022092
:10176000086042F27540C0F6000049F2F411C0F67C
:1017700000014FF4806204924FF4FA7306F0A6FB66
:10178000049A079B0698694648600320086042F265
:10179000A150C0F6000049F20021C0F6000106F099
:1017A00095FB059A069B079869464B60086043F2D3
:1017B0009170C0F6000049F2E611C0F600010A235C
:1017C00006F084FB069B079869464B60086041F26F
:1017D0009D20C0F6000049F2C011C0F60001802231
:1017E00006F074FB08B080BD40F28001C2F2000137
:1017F0000A6A486A013240F100000A624862704792
:1018000080B582B001200190072003F0CFFF49F29C
:10181000B800C0F60000C068006840B1FFE749F2B8
:10182000B800C0F60000C06800688047FFE749F2D2
:10183000B800C0F600000069006840B1FFE749F257
:10184000B800C0F60000006900688047FFE7019813
:1018500002B080BD83B0029001918DF80320029800
:101860008006019940EA01209DF80310084403B066
:101870007047000083B00290019100200090029810
:10188000052852D8FFE749F2A800C0F6000000780A
:1018900048F20001C1F6FF0108430199086001996F
:1018A000012048600298052804D1FFE70199002033
:1018B000886037E0019904208860029800EB4001BD
:1018C00040F20000C2F2000050F82110019A11739A
:1018D000029901EB410150F82110090A019A517354
:1018E000029901EB410100EB810149884901019A0C
:1018F0009173029901EB410100EB8101496801F00C
:101900001F03019A917B19439173029901EB4101E5
:1019100000EB81008068002818BF0120C0010199F8
:10192000C873FFE701200090FFE7009803B07047FD
:1019300086B00590049100208DF80F000290059963
:10194000086820F0020008600599086840F001006E
:101950000860FFE7059841680020C907019041B978
:10196000FFE702984FF6FF71401A18BF012001905F
:10197000FFE70198C00720B1FFE70298013002900D
:10198000E8E705984068C007002800F08380FFE77B
:10199000049842780599086802F0010220F080005E
:1019A00040EAC2100860049882780599086802F03D
:1019B000010220F0400040EA821008600498C278DA
:1019C0000599086802F0010220F0200040EA421068
:1019D0000860049802790599086802F0010220F075
:1019E000100040EA021008600498427905990868DE
:1019F00002F0010220F0080040EAC20008600498EA
:101A000082790599086802F0010220F0040040EA9A
:101A1000820008600498007800F001020599C86906
:101A200020F0804040EA8270C861049802780599ED
:101A3000C869520862F3DF70C8610599086820F030
:101A40000100086000200290FFE70598416800202F
:101A5000C907009041B1FFE702984FF6FF71401AA5
:101A600018BF01200090FFE70098C00720B1FFE7F2
:101A7000029801300290E8E705984068C00720B15D
:101A8000FFE700208DF80F0003E001208DF80F0024
:101A9000FFE703E000208DF80F00FFE79DF80F003F
:101AA00006B0704786B00590049100208DF80F00B5
:101AB00002900599086820F00200086005990868FE
:101AC00040F001000860FFE7059841680020C90761
:101AD000019041B9FFE702984FF6FF71401A18BF15
:101AE00001200190FFE70198C00720B1FFE70298AD
:101AF00001300290E8E705984068C007002856D0FA
:101B0000FFE704980088421E0599C86962F30B003C
:101B1000C861049882780599C86902F0030220F030
:101B2000407040EA0260C8610498C2780599C869AB
:101B300002F00F0220F4702040EA0240C8610498CD
:101B400002790599C86902F0070220F4E00040EA32
:101B50000250C8610599086820F001000860002063
:101B60000290FFE7059841680020C907009041B145
:101B7000FFE702984FF6FF71401A18BF012000904E
:101B8000FFE70098C00720B1FFE7029801300290FC
:101B9000E8E705984068C00720B1FFE700208DF80E
:101BA0000F0003E001208DF80F00FFE703E00020A5
:101BB0008DF80F00FFE79DF80F0006B0704700009A
:101BC00081B00090009900204870009988700099B9
:101BD000C87000990871009948710099887100993E
:101BE000087001B07047000087B006900591002092
:101BF00004900598C1780120884004900699D1F896
:101C0000000240F00100C1F80002049A0699D1F8E0
:101C10001C029043C1F81C0205980079014603910B
:101C200020B1FFE70398012830D05FE0049A0699BD
:101C3000D1F80C029043C1F80C02059A9089000477
:101C40000699D27801EBC201C1F8400205990A89D0
:101C50000698C97800EBC101D1F840021043C1F8E1
:101C60004002059A508900040699D27801EBC2011E
:101C7000C1F844020599CA880698C97800EBC101E9
:101C8000D1F844021043C1F8440230E0049A0699A6
:101C9000D1F80C021043C1F80C02059AD088000458
:101CA0000699D27801EBC201C1F8400205990A8970
:101CB0000698C97800EBC101D1F840021043C1F881
:101CC0004002059A508900040699D27801EBC201BE
:101CD000C1F8440205998A890698C97800EBC101C8
:101CE000D1F844021043C1F8440200E0FFE7059830
:101CF00040780146029120B1FFE70298012808D000
:101D00000FE0049A0699D1F804029043C1F8040246
:101D100008E0049A0699D1F804021043C1F80402BD
:101D200000E0FFE7059880780146019120B1FFE7C8
:101D30000198012808D00FE0049A0699D1F81402FE
:101D40009043C1F8140208E0049A0699D1F81402ED
:101D50001043C1F8140200E0FFE70598007801463F
:101D6000009160B1FFE70098012810D1FFE7049AC5
:101D70000699D1F81C021043C1F81C0208E0049A2D
:101D80000699D1F81C029043C1F81C0200E0FFE75D
:101D90000699D1F8000220F00100C1F8000207B056
:101DA0007047000083B0029001910198013801460C
:101DB0000091102843D80099DFE801F00909090DC6
:101DC0000914181D412226412A2E32363A00029962
:101DD0000420486034E00299042048600299002001
:101DE00088612DE002990120886029E002994FF472
:101DF0008070886024E002994FF4803088601FE092
:101E000002990820C8601BE002991020C86017E002
:101E100002990820086113E00299102008610FE080
:101E20000299082048600BE002991020486007E002
:101E3000029940F20110C0F20100886000E0FFE763
:101E400003B0704784B00390029100208DF8070022
:101E50000298013801460091102800F2BB800099D9
:101E6000DFE801F00910171E2D343B4249575E652B
:101E7000737A81889D000398806900F001008DF8D5
:101E80000700ABE003988069C0F340008DF80700BD
:101E9000A4E003988069C0F380008DF807009DE0FE
:101EA000039880690009400720B1FFE701208DF801
:101EB000070003E000208DF80700FFE78EE003989D
:101EC0004068C0F380008DF8070087E003988068C1
:101ED00000F001008DF8070080E003988068C0F3EF
:101EE00000208DF8070079E003988068C0F3004077
:101EF0008DF8070072E00398C068800720B1FFE703
:101F000001208DF8070003E000208DF80700FFE7AF
:101F100064E00398C068C0F3C0008DF807005DE07E
:101F20000398C068C0F300108DF8070056E00398CE
:101F30000069800720B1FFE701208DF8070003E06A
:101F400000208DF80700FFE748E003980069C0F320
:101F5000C0008DF8070041E003980069C0F300104D
:101F60008DF807003AE003984068C0F3C0008DF890
:101F7000070033E0039840684008C00730B9FFE726
:101F8000039840680009C00720B1FFE701208DF8E1
:101F9000070003E000208DF80700FFE71EE003982C
:101FA0008068800EC00760B9FFE703988068C00EA4
:101FB000C00730B9FFE703988068000FC00720B161
:101FC000FFE701208DF8070003E000208DF80700EF
:101FD000FFE703E000208DF80700FFE79DF807000A
:101FE00004B0704782B00190002000900198006812
:101FF00020F07C4040F60101C0F2772188420DD1EB
:10200000FFE70198007BFF2807D1FFE70198407B9D
:1020100018B9FFE701200090FFE7FFE7009802B042
:102020007047000080B584B003908DF80B100192CA
:1020300003989DF80B1000EB0110D0F8B001C0F32D
:102040008000019908720198007A0146009120B140
:10205000FFE7009801280BD015E003989DF80B10BE
:1020600000EB0110D0F8B001400D019908600BE0C1
:1020700003989DF80B1000EB0110D0F8B001C008D8
:102080000199486000E0FFE703989DF80B1000EB12
:102090000110D0F8B001C0F34000019948720398D4
:1020A0009DF80B1000EB0110D0F8B40100F00F0008
:1020B0000199887203989DF80B1000EB0110D0F87D
:1020C000B401000A0199C87403989DF80B1000EB45
:1020D0000110D0F8B8010199C87203989DF80B104F
:1020E00000EB0110D0F8B801000A019908730398B9
:1020F0009DF80B1000EB0110D0F8B801000C01990D
:10210000487303989DF80B1000EB0110D0F8B8014C
:10211000000E0199887303989DF80B1000EB0110D5
:10212000D0F8BC010199C87303989DF80B1000EB1F
:102130000110D0F8BC01000A0199087403989DF8B9
:102140000B1000EB0110D0F8BC01000C0199487491
:1021500003989DF80B1000EB0110D0F8BC01000EA5
:102160000199887403989DF80B1000F00DF904B0E4
:1021700080BD000084B00390029104208DF8070018
:1021800003988068800EC00720B1FFE700208DF81B
:10219000070019E003988068C00EC00720B1FFE770
:1021A00001208DF807000EE003988068000FC0073B
:1021B00020B1FFE702208DF8070003E004208DF82E
:1021C0000700FFE7FFE7FFE79DF80700042800F09E
:1021D0008480FFE703989DF8071000EB0111D1F808
:1021E000800100F00100C1F880010298027A039892
:1021F0009DF8071000EB0111D1F8800102F00102F7
:1022000020F0040040EA8200C1F880010298007AC0
:102210000146009120B1FFE70098012810D01DE091
:102220000298026803989DF8071000EB0111D1F89D
:1022300080016FF35F5040EA4250C1F880010EE028
:102240000298426803989DF8071000EB0111D1F83D
:10225000800140EAC200C1F8800100E0FFE7029877
:10226000427A03989DF8071000EB0111D1F8800124
:1022700002F0010220F0020040EA4200C1F88001B1
:102280000298827A03989DF8071000EB0111D1F8AB
:10229000840162F30300C1F884010298D0F80B00B6
:1022A00003999DF8072001EB0211C1F888010298FB
:1022B000D0F80F0003999DF8072001EB0211C1F837
:1022C0008C0103989DF8071000EB0111D1F88001F3
:1022D00040F00100C1F88001FFE79DF8070004B05D
:1022E0007047000080B588B08DF81F00069100206F
:1022F00005909DF81F1046F20040C4F200006A46A7
:10230000FFF790FE9DF80900D0BBFFE79DF808009D
:10231000012807D1FFE70699012048600198069936
:10232000086006E006990020486000980699086059
:10233000FFE79DF80A00069988609DF80B00069952
:1023400008739DF80C00069948739DF80D000699D6
:1023500088739DF80E000699C8739DF80F000699C2
:1023600008749DF81000069948749DF811000699AC
:1023700088749DF812000699C87401200590FFE743
:10238000059808B080BD000083B002908DF807105A
:102390009DF807000146009120B1FFE70098012851
:1023A00004D007E002992020C86004E002992020B0
:1023B000086100E0FFE703B07047000080B594B00B
:1023C000139013984068012852D1FFE749F2A80002
:1023D000C0F60000C06802691398CF219047012819
:1023E00008D1FFE749F2A800C0F60000C0684069C4
:1023F00080473CE049F2A800C0F60000806882688F
:102400001398CF219047012824D1FFE749F21F21DB
:10241000C0F6000149F22C22C0F6000249F2262340
:10242000C0F6000303A8019006F054F90198FDF7E7
:1024300010FF019B029049F2A800C0F600008068DE
:10244000D0F80CC00298694608600620CF2102220D
:10245000E0470BE01398FFF7C5FD012805D1FFE722
:1024600004F07AFAFFE700BFFDE7FFE7FFE7FFE7C9
:1024700014B080BD80B588B00790079818B1FFE709
:102480000798009003E04FF4FA700090FFE700987F
:10249000069000220592049203920292019240203B
:1024A000142105F015F840F25021C2F20001086035
:1024B000FFE740F25020C2F200000068069A01A92E
:1024C00005F096FA01280AD1FFE701A8FFF776FF89
:1024D00040F28001C2F200010120C86206E040F231
:1024E0008001C2F200010020C862FFE7E1E70000BE
:1024F00080B588B007900020069007988068002873
:102500004BD3FFE707988068082846D8FFE707986D
:1025100080688DF80E0000208DF80D000798406847
:10252000012807D1FFE701208DF80C00079800680B
:10253000029006E000208DF80C00079800680190DA
:10254000FFE70798007B8DF80F000798407B8DF818
:1025500010000798807B8DF811000798C07B8DF8DC
:1025600012000798007C8DF813000798407C8DF8C6
:1025700014000798807C8DF815000798C07C8DF8B2
:10258000160046F20040C4F2000001A9FFF7F2FD78
:10259000043818BF01200690FFE7069808B080BDF8
:1025A00080B588B00790079818B1FFE707980090AA
:1025B00002E001200090FFE70098069000220592BB
:1025C00004920392029201924020142104F080FFB1
:1025D00040F26021C2F20001086049F25010C0F6DA
:1025E000000040688047FFE740F26020C2F2000030
:1025F000006801A94FF0FF3205F0FAF9FFE749F250
:10260000B800C0F600004068016801A888470128AA
:1026100004D0FFE7069804F009F8F0E7E4E70000CB
:1026200081B08DF803009DF8030000F0030241F231
:102630000401C4F20201086820F4404040EA8230FC
:1026400008609DF803200868920862F31C70086017
:1026500001B0704781B08DF803009DF8032041F26E
:102660000401C4F20201086802F00F0220F0F00039
:1026700040EA0210086001B07047000081B08DF898
:1026800003009DF8032041F20401C4F2020108682E
:1026900002F0070220F4E06040EA0220086001B086
:1026A0007047000081B08DF803009DF8032041F2CF
:1026B0000401C4F20201086802F0070220F460502D
:1026C00040EAC220086001B07047000081B08DF878
:1026D00003009DF80300012809D1FFE741F25401EE
:1026E000C4F20201086840F03000086008E041F2DE
:1026F0005401C4F20201086820F030000860FFE7CE
:1027000001B0704782B08DF807008DF806109DF873
:10271000070001460091042844D80099DFE801F041
:10272000030E1D2C37009DF8062041F20001C4F273
:102730000201086862F30000086034E09DF806209A
:1027400041F20001C4F20201086802F0010220F423
:10275000803040EA0240086025E09DF8062041F202
:102760000001C4F20201086802F0010220F080704A
:1027700040EA0260086016E09DF8062041F2200160
:10278000C4F20201086862F3000008600BE09DF8E3
:10279000062041F22401C4F20201086862F300003D
:1027A000086000E0FFE702B07047000080B58EB01F
:1027B0000D90002001900C900B900A9009900890C9
:1027C000079006900590049000F008FB8DF80F002C
:1027D0009DF80F000146029140B1FFE702980128E1
:1027E00025D0FFE70298022828D0C1E041F254002A
:1027F000C4F202000068400AC00780B1FFE741F25E
:102800003000C4F202000068400EC00738B1FFE794
:102810000D9946F60040C0F2DC20086006E00D99F4
:1028200041F20020C0F27A000860FFE7A7E00D99AE
:1028300042F20040C0F2F4000860A0E041F204005F
:10284000C4F202000068C0F300400A9041F22C007C
:10285000C4F2020001680020B0EBD17F47D1FFE74E
:1028600041F20400C4F202000168C1F383410C91FB
:102870000068C0F341700B900B9820B9FFE70C98EB
:102880000F2807D1FFE70B990C9800EB01100130DE
:102890000C9003E00C9802300C90FFE70A9848B9BE
:1028A000FFE70C9840F60011C0F23D0148430D9936
:1028B00008601BE041F20400C4F202000068400C12
:1028C000C00748B1FFE70C9841F20021C0F27A013D
:1028D00048430D99086008E00C9842F20041C0F2AC
:1028E000F40148430D990860FFE7FFE73FE041F23C
:1028F0002C00C4F202000168C1F3031106910168C3
:10290000C1F308210591006800F0070004900A98BF
:1029100030B9FFE740F60010C0F23D00079015E027
:1029200041F20400C4F202000068400CC00730B15C
:10293000FFE741F20020C0F27A00079005E042F282
:102940000040C0F2F4000790FFE7FFE70798059901
:10295000A0FB0101069ADDF810C0012303FA0CF375
:102960005A430023FDF720FC0D990860FFE706E0BD
:102970000D9941F20020C0F27A000860FFE741F2B1
:102980000400C4F202000168C1F303110991099A1D
:1029900049F21C11C0F60001895C08910D9A11687A
:1029A000089BD94051600168C1F302210991099A3D
:1029B00049F20C11C0F60001895C08910D9A51682A
:1029C000089BD940D1600168C1F3C2210991099ADD
:1029D00049F21411C0F60001895C08910D9A516802
:1029E000089BD94091600168C1F300710991099970
:1029F0000068C0F3813040EA81000990099949F2EA
:102A00000410C0F60000405C08900D998868089A90
:102A1000B0FBF2F008610EB080BD000082B0019002
:102A200000208DF80300BDF8060041F20001C4F259
:102A300002014058019901F01F01C840C00720B9A8
:102A4000FFE700208DF8030003E001208DF803006C
:102A5000FFE79DF8030002B07047000080B584B026
:102A6000002003908DF80B00FFE71120FFF7D6FF41
:102A7000014600200129019008D0FFE703990020BA
:102A8000B1F5405F38BF01200190FFE70198C00712
:102A900020B1FFE7039801300390E6E71120FFF72C
:102AA000BDFF012804D0FFE700208DF80B0003E0F4
:102AB00001208DF80B00FFE79DF80B0004B080BDEE
:102AC00082B001908DF803109DF8030001280FD10A
:102AD000FFE7019800F01F02012101FA02F3010C47
:102AE00041F20002C4F202028858184388500EE0F6
:102AF000019800F01F02012101FA02F3010C41F2DA
:102B00000002C4F20202885898438850FFE702B0DE
:102B10007047000083B08DF80B008DF80A1000207C
:102B200001908DF803009DF80B00B0B9FFE741F26A
:102B30000401C4F20201086820F48030086040F605
:102B40000010C0F23D00019041F23001C4F20201D8
:102B5000086840F00070086029E041F20401C4F206
:102B60000201086840F4803008609DF80B000128DD
:102B70000ED1FFE742F20040C0F2F400019041F2B2
:102B80000401C4F20201086820F4003008600DE07E
:102B900041F20020C0F27A00019041F20401C4F237
:102BA0000201086840F400300860FFE7FFE7019881
:102BB00048F26121C0F23B0188420CD3FFE7019843
:102BC00044F63F31C0F24C01884204D8FFE70020B0
:102BD0008DF8030068E0019845F68101C0F24F01CD
:102BE00088420CD3FFE7019845F60F61C0F25F0100
:102BF000884204D8FFE701208DF8030053E00198D4
:102C000043F29551C0F2770188420CD3FFE7019857
:102C100041F60F31C0F27F01884204D8FFE702205D
:102C20008DF803003EE0019841F61131C0F27F01BA
:102C300088420CD3FFE701984BF61F41C0F2BE015A
:102C4000884204D8FFE703208DF8030029E00198AB
:102C500046F62931C0F2EE0188420CD3FFE7019815
:102C60004DF22F71C0F23D11884204D8FFE70420D5
:102C70008DF8030014E001984DF23171C0F23D115E
:102C800088420CD3FFE701984EF6D711C0F2DC1151
:102C9000884204D8FFE705208DF80300FFE7FFE72F
:102CA000FFE7FFE7FFE7FFE79DF80A0000F00F02EC
:102CB00041F20401C4F20201086820F4701040EAF5
:102CC000824008609DF80A0000F03002086820F099
:102CD000C04040EA426008609DF8032041F22C01A8
:102CE000C4F20201086802F0070220F0E06040EA46
:102CF0000260086003B0704741F20001C4F20201B3
:102D0000086840F001000860FFE741F20000C4F2EB
:102D100002000068C0F34000012801D0FFE7F4E79B
:102D200041F20401C4F20201086820F003000860C7
:102D3000FFE741F20400C4F2020000688008800747
:102D400008B1FFE7F5E741F20001C4F202010868AB
:102D50004FF6FF72CFF6F2621040086041F20401B4
:102D6000C4F202010020086041F22C01C4F2020109
:102D700041F61070086041F23001C4F202014FF4D4
:102D80008010086041F20801C4F202014FF41F00F4
:102D90000860704781B08DF803009DF8032041F270
:102DA0000401C4F20201086862F30100086000BF78
:102DB00000BF00BF00BF00BF00BF00BF00BF00BF1B
:102DC00000BF00BF00BF00BF00BF00BF00BF00BF0B
:102DD00000BF00BF00BF01B07047000041F2040017
:102DE000C4F202000068C0F38100704780B582B071
:102DF000019040F28000C2F200003021FDF71EFA7F
:102E00004FF4967003F012FC49F28400C0F6000003
:102E100000688047FFE749F28400C0F60000406880
:102E20008047F8E782B001908DF803109DF80320E9
:102E30000199086862F30000086002B07047000062
:102E400081B00090009900200860009948600099C6
:102E50000881009948810099087300994873009986
:102E600088730099C873009908740099487401B078
:102E70007047000082B001908DF803108DF8022099
:102E80000198D0F8A400000EC00740B9FFE70199EF
:102E9000D1F8A40040F08070C1F8A400FFE79DF8CD
:102EA000030001280BD1FFE79DF802200199D1F81A
:102EB000A00020F0FF001044C1F8A0006AE09DF8D7
:102EC000030002280CD1FFE79DF802200199D1F8F8
:102ED000A00020F47F4040EA0220C1F8A00058E0A2
:102EE0009DF8030003280CD1FFE79DF8022001990B
:102EF000D1F8A00020F47F0040EA0240C1F8A00011
:102F000046E09DF8030004280CD1FFE79DF802205D
:102F10000199D1F8A00020F07F4040EA0260C1F89A
:102F2000A00034E09DF8030005280BD1FFE79DF8D1
:102F300002200199D1F8A40020F0FF001044C1F84C
:102F4000A40023E09DF8030006280CD1FFE79DF8BC
:102F500002200199D1F8A40020F47F4040EA022029
:102F6000C1F8A40011E09DF8030007280CD1FFE789
:102F70009DF802200199D1F8A40020F47F0040EAD6
:102F80000240C1F8A400FFE7FFE7FFE7FFE7FFE724
:102F9000FFE7FFE702B0704782B00190009101990E
:102FA00008684BF6EF72104008600098028901999A
:102FB0000868104308600098427C0199086802F094
:102FC000030220F4405040EA023008600098C27BBF
:102FD0000199086802F0030220F4406040EA822070
:102FE00008600098827B0199086802F0030220F4CF
:102FF000407040EA022008600098427B019908680E
:1030000002F0010220F0800040EAC210086000983F
:10301000027B0199086802F0010220F0400040EABA
:10302000821008600098027C0199086802F0010291
:1030300020F0200040EA4210086000984089019981
:10304000486000980068019988600098406801997C
:10305000C86002B07047000082B00190002000906C
:10306000019A116821F0010111600199086001992C
:103070004860019988600199C860019800900098A3
:1030800000F49F60C008802817D8FFE79DF8000073
:1030900008384CF6CD41CCF6CC41A0FB01016FF0D5
:1030A000030000EA91010F2000FA01F20421C4F2AA
:1030B00002010868104308601FE0009800F49F6058
:1030C000C008902818D8FFE79DF8000008384CF693
:1030D000CD41CCF6CC41A0FB01016FF0030000EA2A
:1030E00091010F2000FA01F240F20441C4F2020102
:1030F000086810430860FFE7FFE702B07047000070
:1031000080B50C20012104F01DF980BD80B586B08A
:1031100040F2B001C2F2000145F60000C4F2000026
:10312000086040F60040C4F2010000904FF4804176
:1031300000F0FEF900980221019100F003FA01204D
:1031400005900021029104F0FDF80198029904F025
:10315000F9F80599042004F0F5F80299052004F027
:10316000F1F802990D2004F0EDF802990E2004F018
:10317000E9F802990F2004F0E5F80299102004F014
:10318000E1F81320642104F0DDF81A20039002F026
:1031900049FB0146039801F07F0104F0D3F81D209C
:1031A000049002F03FFB0146049841F0200104F036
:1031B000C9F8059806B080BD80B582B08DF80700CB
:1031C0009DF80710032004F0BDF802B080BD000098
:1031D00080B582B08DF807009DF80710012004F03B
:1031E000B1F802B080BD000080B582B08DF8070054
:1031F0009DF80710022004F0A5F802B080BD000081
:1032000080B582B08DF807008DF806109DF8070094
:1032100004309DF80610C0B204F094F802B080BDEE
:1032200080B50C20002104F08DF880BD80B582B0FF
:103230001A20019002F0F6FA0146019801F07F0190
:1032400004F080F802B080BD80B582B01A200190F1
:1032500002F0E8FA0146019841F0800104F072F8AA
:1032600002B080BD80B584B00390039818B1FFE729
:103270000398019002E032200190FFE7019802904C
:10328000FFE7029803F0D2F9FBE7000081B000905D
:103290000098C0F3112001B07047000080B582B0E3
:1032A0000020019049F25010C0F60000C16898203B
:1032B00088470190019802B080BD000080B584B0BD
:1032C00003908DF80B100020019049F26810C0F6B1
:1032D0000000426803989DF80B109047012810D118
:1032E000FFE703998889897B40EA014000900098B4
:1032F0004FF68071884203D1FFE701200190FFE77C
:10330000FFE7019804B080BD80B58AB00990002025
:1033100008900790FFE7079804283ED8FFE7079832
:1033200000EB400140F20000C2F2000050F8210022
:10333000099988422CD1FFE7079800EB400140F241
:103340000000C2F2000000EB81008068F8B1FFE7E6
:10335000002006900590049003900290079901EBDD
:10336000410240F20001C2F2000101EB82018860DB
:10337000079802A90191FEF77DFA019849F28401AC
:10338000C0F600010969496888470890FFE704E032
:10339000FFE7079801300790BDE708980AB080BDA5
:1033A00080B58EB000200D900C90FFE70C9804289B
:1033B00027D8FFE70C9800EB400140F20000C2F272
:1033C000000000EB81008068012815D1FFE7002094
:1033D0000B900A900990089007900C9807A901910A
:1033E000FEF748FA019849F28401C0F60001096924
:1033F000496888470D90FFE7FFE70C9801300C9073
:10340000D4E70D98A8B9FFE7002006900590049036
:1034100003900290052002A90091FEF72BFA009874
:1034200049F28401C0F600010969496888470D9096
:10343000FFE70D980EB080BD80B58AB00990089165
:10344000002007900690FFE70698042855D8FFE76C
:10345000069800EB400140F20000C2F2000050F874
:1034600021000999884243D1FFE7069800EB40010B
:1034700040F20000C2F2000000EB810040680899B1
:1034800088420DD1FFE7069800EB400140F20000B2
:10349000C2F2000000EB81008068012827D0FFE71E
:1034A00000200590049003900290019008990698DE
:1034B00000EB400240F20000C2F2000000EB82028A
:1034C0005160069901EB410100EB81010120886008
:1034D000069801A90091FEF7CDF9009849F2840100
:1034E000C0F600010969496888470790FFE704E0D2
:1034F000FFE7069801300690A6E707980AB080BD5E
:1035000080B582B040F27001C2F2000168464160AD
:103510000023036042F6ED50C0F6000049F2B411FA
:10352000C0F60001802204F0D1FC02B080BD000092
:1035300082B00190ADF80210BDF802000199486117
:1035400002B0704782B00190ADF80210BDF80200E1
:103550000199086102B0704781B0009000994FF660
:10356000FF70086000990020887100990871009927
:103570000420487100990120C87101B07047000013
:1035800084B00390029102980068ADF800000298A0
:103590008079032804D1FFE70020ADF802002FE076
:1035A00002988079E0B9FFE70298407900F00F00B7
:1035B000ADF8020002984079182805D1FFE7BDF860
:1035C0000000039908610AE002984079282805D193
:1035D000FFE7BDF8000003994861FFE7FFE70EE051
:1035E00002990A798879C97900F0080002F004028A
:1035F000104401F003010844ADF80200FFE7FFE7C3
:103600009DF8000040B3FFE700200190FFE701981C
:10361000072820D8FFE70199BDF80000C840C0077F
:10362000A0B1FFE7019881000F2000FA01F2039991
:10363000086890430860BDF802000199890000FA0B
:1036400001F20399086810430860FFE7FFE701985B
:1036500001300190DBE7FFE7BDF80000B0F5807FA7
:103660002CDBFFE79DF80100ADF800000020019081
:10367000FFE70198072820D8FFE70199BDF800006F
:10368000C840C007A0B1FFE7019881000F2000FAF1
:1036900001F20399486890434860BDF8020001991F
:1036A000890000FA01F20399486810434860FFE777
:1036B000FFE7019801300190DBE7FFE704B07047B6
:1036C00082B00190ADF8021000208DF80100BDF825
:1036D0000200019989680140884204D0FFE7002078
:1036E0008DF8010003E001208DF80100FFE79DF84F
:1036F000010002B07047000085B004908DF80F10F3
:103700009DF813000021C4F2010108430290BDF8A6
:1037100012008DF803000498000A8DF80200049846
:103720008DF801009DF802009DF803100844C0F1D7
:1037300020014FF0FF308840019001989DF8021061
:103740009DF803201144C1F12001C8400190019867
:103750009DF80310C840019001989DF8031088401F
:103760000190019A02990868904308609DF80F0043
:1037700058B1FFE79DF801009DF8031000FA01F22F
:103780000299086810430860FFE705B07047000021
:1037900080B584B00390039818B1FFE703980190B7
:1037A00002E005200190FFE701980290FFE70298F0
:1037B0004FF47A71484344F6D351C1F26201A0FB41
:1037C0000110800902F032FFF1E7000082B00190A1
:1037D0008DF803108DF802209DF8020038B9FFE73C
:1037E0009DF8030000F0FE000199086106E09DF8D5
:1037F000030040F0010001990861FFE702B0704743
:1038000082B001908DF803109DF80320019908689B
:1038100002F0010220F4806040EA8220086002B0D9
:103820007047000082B001908DF803109DF80300EE
:10383000B0FA80F042090199086820F0800040EA5F
:10384000C210086002B0704781B000900098006913
:10385000C0B201B07047000082B001908DF8031033
:103860009DF803000199086102B0704782B0019091
:103870008DF803109DF803200199086862F3000099
:10388000086002B07047000082B001900091BDF85E
:10389000000080F45F4042F2FF0108430199486153
:1038A0009DF800008007002805D5FFE701984069D2
:1038B00001988069FFE79DF80000C006002808D540
:1038C000FFE7019840690199086840F0010008602D
:1038D000FFE702B07047000085B00390029100201E
:1038E000019000900298000F0190029820F07F4014
:1038F0000290019820B9FFE703984069009006E024
:10390000BDF80A000290039880690090FFE70098D4
:103910000299084204D0FFE701208DF8130003E06C
:1039200000208DF81300FFE79DF8130005B07047E5
:1039300082B001908DF803109DF80320019908686A
:1039400002F0010220F0400040EA8210086002B05C
:103950007047000080B58AB009908DF82310079257
:1039600000200690ADF81600ADF81400099908681B
:1039700020F0010008606846FEF718FF099845F23C
:103980000041C4F20001884208D0FFE7099845F6DB
:103990000001C4F20001884203D1FFE703980690BA
:1039A000FFE706984DF68361C4F21B31A0FB0110BE
:1039B000800CADF81600BDF816200999486862F32E
:1039C00007004860079848F2A061C0F201018842F0
:1039D00032D8FFE7069807994900B0FBF1F0ADF83F
:1039E0001400BDF81400032804DCFFE70420ADF840
:1039F0001400FFE7BDF814200999C86962F30B00B1
:103A0000C8610999C86920F40040C861BDF8160072
:103A10000130402806DBFFE70999086A40F03F00C3
:103A2000086208E0BDF81600421C0999086A62F3B2
:103A300005000862FFE764E09DF8230070B9FFE726
:103A40000698079901EB4101B0FBF1F0ADF81400C5
:103A50000999C86920F48040C8610DE0069807996B
:103A600019225143B0FBF1F0ADF814000999C8696F
:103A700040F48040C861FFE7BDF8140020B9FFE7BB
:103A80000120ADF81400FFE7BDF814200999C869BA
:103A900062F30B00C8610999C86940F40040C8612D
:103AA000079841F68021C0F20601884214D8FFE74A
:103AB000BDF816004FF49671484344F6BB11C0F2AE
:103AC0000C21A0FB0101012000EBD1020999086A39
:103AD00062F30500086213E0BDF81600C0EB0010A9
:103AE000C00041F26F21C0F28301A0FB010101205F
:103AF00000EB51020999086A62F305000862FFE7CA
:103B0000FFE70AB080BD000080B586B00490ADF834
:103B10000E1002920498006801210191FFF770FED7
:103B20000498006800F082FB01990498029B00222F
:103B300000F090FB30B1FFE704990D2008768DF876
:103B400017006EE0049800688068C00BC00740B999
:103B5000FFE7049800689DF80E100122FFF736FE7B
:103B60004DE004980068BDF80E1001F44071C909D9
:103B7000F031FFF771FE0498029B0821012200F04A
:103B800069FB30B1FFE704990E2008768DF8170025
:103B900047E0049800689DF80E10FFF75DFE04985A
:103BA000029B0221012200F055FB30B1FFE704998E
:103BB0000F2008768DF8170033E004980068022182
:103BC000FFF762FE0498006800F030FB0498029B47
:103BD0000121002200F03EFB30B1FFE704990D20E7
:103BE00008768DF817001CE004980068BDF80E10E8
:103BF00001F44071C909F131FFF72EFEFFE7049887
:103C0000029B0221012200F025FB30B1FFE704995D
:103C10000F2008768DF8170003E000208DF81700BC
:103C2000FFE79DF8170006B080BD000082B001904C
:103C30008DF803109DF803200199086802F0010235
:103C400020F4006040EAC220086002B07047000023
:103C500080B584B00290ADF806100092029800681A
:103C600000F0E4FA0298009B0121002200F0F2FA31
:103C700030B1FFE702990D2008768DF80F003FE084
:103C8000029800688068C00BC00740B9FFE702983F
:103C900000689DF806100022FFF798FD1EE00298CC
:103CA0000068BDF8061001F44071C909F031FFF752
:103CB000D3FD0298009B0821012200F0CBFA30B11D
:103CC000FFE702990E2008768DF80F0018E00298A1
:103CD00000689DF80610FFF7BFFDFFE70298009B04
:103CE0000221012200F0B6FA30B1FFE702990F205D
:103CF00008768DF80F0003E000208DF80F00FFE735
:103D00009DF80F0004B080BD80B586B004908DF89A
:103D10000F10ADF80C2002939DF80F00012807D179
:103D2000FFE7049800689DF80C10FFF795FD21E06F
:103D3000049800689DF80D10FFF78EFD0498029B13
:103D40008021012200F086FA8DF807009DF8070017
:103D500048B1FFE70498006800F072FA9DF8070088
:103D60008DF817000AE0049800689DF80C10FFF722
:103D700073FDFFE700208DF81700FFE79DF817009F
:103D800006B080BD80B586B084460A980998DDF8F3
:103D900020E0CDF810C08DF80F10ADF80C20ADF874
:103DA0000A30ADF80800089804994860BDF808008A
:103DB0000499088104980022027604980A9B002145
:103DC000C1F2020100F046FA20B1FFE701208DF8B0
:103DD00017006CE1049800680021FFF727FF0498A2
:103DE00000680121FFF70CFD0498BDF80C100A9A39
:103DF000FFF72EFF40B1FFE70498006800F020FABB
:103E000002208DF8170052E1049800680221FFF7A4
:103E10003BFD04980A9B8021012200F01BFA40B16F
:103E2000FFE70498006800F00BFA03208DF81700F4
:103E30003DE104989DF80F10BDF80A200A9BFFF79A
:103E400063FF20B1FFE704208DF817002FE10498ED
:103E50000A9B8021012200F0FDF940B1FFE70498A0
:103E6000006800F0EDF905208DF817001FE10498B7
:103E7000BDF80C100A9AFFF747FE40B1FFE704981F
:103E8000006800F0DDF906208DF817000FE1BDF89D
:103E9000080001280FD1FFE7049800680021FFF710
:103EA000AFFC049800680221FFF7EEFC049800685C
:103EB00000F0C6F920E0BDF80800022810D1FFE7A5
:103EC000049800680121FFF7B1FE04980068022100
:103ED000FFF7DAFC049800680021FFF791FC0AE084
:103EE000049800680121FFF78BFC04980068022108
:103EF000FFF7CAFCFFE7FFE7FFE7BDF8080001286E
:103F0000C0F2D180FFE7BDF80800032800F3AC80C1
:103F1000FFE7BDF8080001281ED1FFE704980A9BBF
:103F20004021002200F096F940B1FFE704980068B4
:103F300000F086F907208DF81700B8E004980068B3
:103F4000FFF782FC08994A1C08920870BDF8080027
:103F50000138ADF8080086E0BDF8080002282FD12E
:103F6000FFE704980A9B0421002200F073F940B196
:103F7000FFE70498006800F063F908208DF8170047
:103F800095E00498006800F05BF904980068FFF77A
:103F90005BFC08994A1C08920870BDF808000138BB
:103FA000ADF8080004980068FFF74EFC08994A1C19
:103FB00008920870BDF808000138ADF8080051E01B
:103FC00004980A9B0421002200F044F940B1FFE765
:103FD0000498006800F034F909208DF8170066E0B5
:103FE0000498006800210191FFF70AFC049800681A
:103FF000FFF72AFC019A08994B1C08930870BDF83A
:1040000008000138ADF8080004980A9B042100F06C
:1040100021F940B1FFE70498006800F011F90A2087
:104020008DF8170043E00498006800F009F904983F
:104030000068FFF709FC08994A1C08920870BDF84F
:1040400008000138ADF8080004980068FFF7FCFB91
:1040500008994A1C08920870BDF808000138ADF8AC
:104060000800FFE7FFE71DE004980A9B40210022BB
:1040700000F0F0F840B1FFE70498006800F0E0F8C5
:104080000B208DF8170012E004980068FFF7DCFBA6
:1040900008994A1C08920870BDF808000138ADF86C
:1040A0000800FFE729E700208DF81700FFE79DF8DB
:1040B000170006B080BD000080B584B08446089823
:1040C0000798DDF818E0CDF808C08DF80710ADF8B6
:1040D0000420ADF80230ADF800000698029948605F
:1040E000BDF8000002990881029800220276029829
:1040F000089B0021C1F2020100F0ACF820B1FFE7FB
:1041000001208DF80F0073E0029800680021FFF78E
:104110008DFD0298BDF80410089AFFF799FD40B193
:10412000FFE70298006800F08BF802208DF80F007E
:104130005EE0029800680221FFF7A6FB0298089B48
:104140008021012200F086F840B1FFE70298006864
:1041500000F076F803208DF80F0049E002989DF8F2
:104160000710BDF80220089BFFF7CEFD20B1FFE746
:1041700004208DF80F003BE0FFE7BDF800000128A8
:104180001EDBFFE70298089B8021012200F062F805
:1041900040B1FFE70298006800F052F805208DF862
:1041A0000F0025E00298006806994A1C06920978DB
:1041B000FFF752FBBDF800000138ADF80000DCE766
:1041C0000298089B0421012200F044F840B1FFE767
:1041D0000298006800F034F806208DF80F0007E020
:1041E0000298006800F02CF800208DF80F00FFE71F
:1041F0009DF80F0004B080BD82B001908DF80310CF
:10420000ADF800209DF803200199886802F00102B2
:1042100020F4004040EAC2308860BDF800200199D7
:10422000886862F30900886002B0704781B000902E
:104230000099086840F48070086001B07047000081
:1042400081B000900099086840F40070086001B0E7
:104250007047000080B586B00490039102920193EC
:1042600003980021C1F20201884215D1FFE7FFE760
:10427000049800680399FFF72FFB60B1FFE70198EE
:10428000411E019130B9FFE70499122008768DF89C
:10429000170053E0ECE74DE0FFE70498006803994E
:1042A000FFF71AFB002844D1FFE79DF80800C0077C
:1042B000C8B1FFE7049800684FF48061FFF70CFB7A
:1042C00080B1FFE704980068FFF7BAFF0498006820
:1042D0004FF48061FFF7D8FA0499112008768DF821
:1042E00017002BE0FFE79DF808008007002814D591
:1042F000FFE7049800681021FFF7EEFA60B1FFE7CE
:104300000498006810210091FFF7BEFA0098049904
:1043100008768DF8170011E0FFE70198411E019122
:1043200030B9FFE70499122008768DF8170005E0F0
:10433000B3E7FFE700208DF81700FFE79DF81700AF
:1043400006B080BD80B584B003908DF80B100020BE
:10435000019003980068FEF799FFADF80200BDF8E0
:1043600002004EF6FF21884208D0FFE7BDF80200A8
:104370009DF80B100143884203D1FFE70120019013
:10438000FFE7019804B080BD80B584B003908DF83C
:104390000B100020019003980068FEF777FFADF83E
:1043A0000200BDF802004EF6FF21884208D0FFE768
:1043B000BDF802009DF80B10014388420BD1FFE7C6
:1043C0000398C0684FF6DA61884203D1FFE7012005
:1043D0000190FFE7FFE7019804B080BD80B596B07B
:1043E000DDF860C015908DF853108DF852201393AE
:1043F0009DF852008DF80B000DF10B00019001307B
:104400001399189AFBF701FF019B15989DF853101B
:10441000189A0132EC46CCF800204FF6DA6201F02F
:104420007FFD16B080BD000080B582B001900020F5
:104430000090019A49F28C10C0F6000000EBC20116
:1044400050F832008988FFF73BF9012803D1FFE7D4
:1044500001200090FFE7009802B080BD80B582B0D7
:104460000190019A49F2D400C0F6000000EBC201AD
:1044700050F832008988FFF75BF802B080BD000079
:1044800080B582B00190019A49F2D400C0F60000D4
:1044900000EBC20150F832008988FFF753F802B0F0
:1044A00080BD000080B5A8B0279003208DF89B0048
:1044B000FF208DF89A0040208DF899000820009088
:1044C0008DF8980048F6D871C0F600010DF1130080
:1044D0008522FBF79AFE0099279A00201061D06090
:1044E000906050601060279B01225A60279A91606B
:1044F00049F28401C0F600010969097844F200021A
:10450000C0F6FF421143279A11600390FFE703981A
:10451000122845D8FFE700208DF80B000398C0EB68
:10452000C0010DF11300014440F27400C2F200001A
:104530004A78C978805CC840C00720B1FFE70220F4
:104540008DF80B0015E00398C0EBC0020DF11300CD
:104550008118825C40F27400C2F20000805C8978AD
:10456000C840C00720B1FFE701208DF80B00FFE72E
:10457000FFE79DF80B100398C0EBC0020DF113008C
:10458000024410795279013A01FA02F22799014462
:10459000C87A1043C872FFE7039801300390B6E76A
:1045A000279812300190019945F2AA50088028B04E
:1045B00080BD000080B58CB00B900B9818B1FFE760
:1045C0000B98089002E005200890FFE708980A90F1
:1045D00040F26C01C2F2000100200860FFE740F2E7
:1045E0006C00C2F200000068052824D8FFE749F2F9
:1045F000B800C0F600008068016840F26C00C2F2AA
:10460000000007900068884707990B6840F2542221
:10461000C2F200020020D0540A6840F27401C2F2D3
:1046200000018854FFE740F26C01C2F20001086803
:1046300001300860D3E70120069000210591032294
:1046400002F046FF059A0146069845F23833C2F259
:104650000003196069464A60086044F61100C0F61C
:10466000000049F20C21C0F600014FF480720523CE
:1046700003F02CFCFFE740F26C01C2F200010020C5
:104680000860FFE740F26C00C2F2000000680528F5
:1046900000F2BD80FFE7002004908DF8270049F26A
:1046A000B800C0F600008068416840F26C00C2F2B9
:1046B0000000006888470A984FF47A71484344F62E
:1046C000D351C1F26201A0FB0110800901F0AEFFDD
:1046D000049840F24C21C2F200010860FFE740F26A
:1046E0004C20C2F200000068042834D8FFE749F2E9
:1046F000B800C0F600008068816840F24C20C2F229
:1047000000000068884701280ED1FFE740F24C20E6
:10471000C2F200000168012000FA01F19DF82700B3
:1047200088438DF827000DE040F24C20C2F20000D3
:104730000168012000FA01F19DF8270008438DF877
:104740002700FFE7FFE740F24C21C2F200010868B2
:1047500001300860C3E749F2B800C0F60000806885
:10476000016840F26C00C2F20000039000688847C4
:1047700003999DF827000A6840F25421C2F2000113
:10478000895C88422DD1FFE740F26C00C2F2000044
:10479000026840F25420C2F20000805C40F27401D2
:1047A000C2F20001895C88421AD0FFE740F26C0037
:1047B000C2F20000026840F25420C2F20000805CA5
:1047C00040F27401C2F20001885445F23830C2F25E
:1047D00000000068002319461A4602F03DFFFFE77B
:1047E0000CE09DF8270040F26C01C2F200010A685B
:1047F00040F25421C2F200018854FFE7FFE740F283
:104800006C01C2F200010868013008603AE732E743
:1048100080B58AB009906420089014200790FFE7C3
:10482000002006900590049003900290142001F05F
:10483000FDFE45F23830C2F200000068502103F05E
:10484000C5F902A80190FFF72DFE019849F28401F5
:10485000C0F60001096949688847E1E780B584B07E
:1048600040F2E801C2F20001002003908880086055
:10487000022001F0DBFE03986946486004200860CE
:1048800044F69D00C0F6000049F23221C0F6000156
:1048900080220A2303F01AFB04B080BD80B584B0E7
:1048A0000390039818B1FFE70398009002E01420EA
:1048B0000090FFE700980290FFE702984FF47A71AA
:1048C000484344F6D351C1F26201A0FB01108009B4
:1048D00001F0ACFE00200190FFE70198022829DCDE
:1048E000FFE7FFE743F60000C4F20000022100F0FA
:1048F000CFFF01280CD1FFE74EF60451CEF20001A4
:104900004FF080500860BFF34F8FBFF36F8FE9E720
:10491000019940F2E800C2F2000030F8111043F6AD
:104920000000C4F2000000F0A9FFFFE70198013089
:104930000190D2E7C1E7000088B007900691059288
:10494000002004900798172847DCFFE70798C11755
:1049500000EB5170C01003900798C11700EB517124
:1049600021F00701401A02900299032000FA01F396
:10497000039A40F2E801C2F2000131F812009843B4
:1049800021F81200059828B3FFE706980090012847
:1049900004D0FFE70098022804D007E001208DF83A
:1049A000070007E002208DF8070003E000208DF8E3
:1049B0000700FFE79DF80700029900FA01F3039A48
:1049C00040F2E801C2F2000131F81200184321F868
:1049D0001200FFE701200490FFE7049808B0704739
:1049E00080B582B00020019002F02EFB02F0E6FAC2
:1049F00002F06EFA02F092FB02F094F902F04CF928
:104A000040F24802C2F200020820C4F20200009004
:104A100042F24C41C4F20101032302F067F900980D
:104A20000121FEF7FFF902F025FC02F0F9F902F08E
:104A30003BF802F0A1FB02F0ADF802F071FC02F0CD
:104A400067F9FFE7FEE7000080B584B08DF80F003E
:104A50000291019200200090FCF7C2F90299019A9C
:104A6000FCF7B6F800909DF90F000099FCF7E2F909
:104A70009DF90F00FCF794F904B080BD80B582B0B9
:104A80008DF807009DF80700FCF7F6F902B080BD2D
:104A900080B584B00390029145F25030C2F200001C
:104AA0000068009040F2F800C2F200000068043094
:104AB00001F0EAFB08B9FFE700E0FFE703980130E7
:104AC00080B9FFE7029868B1FFE740F2F800C2F250
:104AD00000000068011D45F23C30C2F2000001F008
:104AE00063FC3DE00098039908440190019840F26E
:104AF000F801C2F2000109684860019800998842F3
:104B00000ED2FFE740F20410C2F20000006840F24B
:104B1000F801C2F200010968043101F00FFC1EE047
:104B200040F20010C2F20000006840F2F801C2F248
:104B300000010968043101F001FC019845F2D4211B
:104B4000C2F200010968884207D2FFE7019845F2E6
:104B5000D421C2F20001086000E0FFE7FFE7FFE7B1
:104B600004B080BD80B582B0019001F03BFC45F2FD
:104B70006C21C2F2000108680130086040F2F800C0
:104B8000C2F20000006898B9FFE7019840F2F8010E
:104B9000C2F20001086045F26C20C2F20000006819
:104BA000012803D1FFE700F031FA00E0FFE71CE045
:104BB00045F23430C2F200000068A0B9FFE740F2CD
:104BC000F800C2F200000068C06A0199C96A884210
:104BD00007D8FFE7019840F2F801C2F2000108602F
:104BE00000E0FFE700E0FFE7FFE745F27421C2F2D3
:104BF00000010868013008600198C06A45F2782118
:104C0000C2F200010968884208D9FFE70198C06A2A
:104C100045F27821C2F200010860FFE70199C86AF5
:104C200000EB800240F20C10C2F2000000EB8200A8
:104C3000043101F0B9FB01F001FC45F23430C2F25D
:104C400000000068C8B1FFE740F2F800C2F20000BF
:104C50000068C06A0199C96A88420CD2FFE74EF623
:104C60000451CEF200014FF080500860BFF34F8F27
:104C7000BFF36F8F00E0FFE700E0FFE702B080BD09
:104C800080B582B001F0AEFB45F25430C2F20000B4
:104C90000068B0BBFFE745F27C20C2F20000009044
:104CA00001F02CFB45F29020C2F20000019001F0CF
:104CB00025FB0099019840F2FC02C2F2000211604B
:104CC00040F20811C2F2000108600A2010210022FF
:104CD00002F0FEFB014645F25430C2F200000160D2
:104CE000006860B1FFE745F25430C2F2000000688E
:104CF00049F24121C0F6000101F03CFC00E0FFE771
:104D000000E0FFE701F09AFB02B080BD70470000B1
:104D100080B582B0019000910198006CB8B1FFE7B6
:104D20000199C8680A6C1044C86001988168C0681D
:104D3000884204D3FFE701990868C86000E0FFE7F4
:104D40000098019AD168126CFBF75FFAFFE702B096
:104D500080BD000080B586B00590049103920020CC
:104D600002900598806B01900598006C78B9FFE778
:104D70000598006848B9FFE70598806803F0F2F9E4
:104D8000029005990020886000E0FFE741E0039869
:104D9000B8B9FFE7059A04995068126CFBF735FA29
:104DA000059948680A6C1044486005994868896804
:104DB000884204D3FFE705990868486000E0FFE7F0
:104DC00026E0059A0499D068126CFBF71EFA059943
:104DD000C8680A6C801AC86005980168C068884273
:104DE00006D2FFE7059988680A6C801AC86000E05F
:104DF000FFE70398022809D1FFE7019820B1FFE7F8
:104E000001980138019000E0FFE700E0FFE7FFE7CD
:104E1000FFE70198013005998863029806B080BDCC
:104E200082B001900198406A38B1FFE70198006BA9
:104E30000068C0F11000009002E000200090FFE741
:104E4000009802B07047000082B0019040F2FC0070
:104E5000C2F2000000680068B0FA80F040090199D1
:104E600008600198006848B9FFE740F2FC00C2F210
:104E700000000068C0680068009002E00020009018
:104E8000FFE7009802B0704780B582B00190FFE75D
:104E9000FFF73CFF40F20C10C2F20000006802284D
:104EA0000CD3FFE74EF60451CEF200014FF08050D4
:104EB0000860BFF34F8FBFF36F8F00E0FFE701F093
:104EC0000DFAE5E780B584B0DDF818C003900291D3
:104ED00001928DF80330029818B9FFE70698006038
:104EE00003E0019806990860FFE703980699C863F4
:104EF0000298069908640698012102F04FFB04B05D
:104F000080BD000080B588B0DDF834C0DDF830C069
:104F1000DDF82CC0DDF828C00690059104920393BB
:104F20000C98006B049900EB810004380290029801
:104F300020F0070002909DF80800400758B1FFE7F5
:104F40004FF0500080F31188BFF36F8FBFF34F8F86
:104F50000790FFE7FEE70598F8B1FFE70020019012
:104F6000FFE701980F2813D8FFE70598019A805CA6
:104F70000C99114481F8340005980199405C08B9F6
:104F8000FFE705E0FFE7FFE7019801300190E8E760
:104F90000C99002081F8430004E00C99002081F86E
:104FA0003400FFE70A98102803D3FFE70F200A9088
:104FB00000E0FFE70A980C99C8620A980C994864C7
:104FC0000C99002088640C98043001F0AFF90C981B
:104FD000183001F0ABF90C9800610A98C0F110008C
:104FE0000C9988610C98406202980699039A00F027
:104FF000F1FB0C9908600B9820B1FFE70C980B9916
:10500000086000E0FFE708B080BD000080B584B014
:1050100000200390FFE703980F2810D8FFE70398BC
:1050200000EB800140F20C10C2F2000000EB8100A6
:1050300001F064F9FFE7039801300390EBE745F2D4
:10504000A420C2F20000019001F058F945F2B82006
:10505000C2F20000029001F051F945F2E020C2F2E4
:10506000000001F04BF945F23C30C2F2000001F0C3
:1050700045F90199029840F20012C2F20002116053
:1050800040F20411C2F20001086004B080BD0000CB
:1050900080B586B0059004910392029300200190A0
:1050A000049805994860059800610498039988421E
:1050B00016D8FFE703980299401A05998969884232
:1050C00003D3FFE70120019009E040F20810C2F28B
:1050D000000000680599043101F030F9FFE717E09E
:1050E00003980299884208D2FFE7049802998842FF
:1050F00003D3FFE70120019009E040F2FC00C2F277
:10510000000000680599043101F018F9FFE7FFE796
:10511000019806B080BD000080B582B0019001F01A
:1051200061F90198806B18B9FFE70120009002E057
:1051300000200090FFE701F081F9009802B080BDE7
:1051400080B582B0019001F04DF90198806B019912
:10515000C96B884203D1FFE70120009002E00020E4
:105160000090FFE701F06AF9009802B080BD0000EE
:1051700006480068006880F3088862B661B6BFF32D
:105180004F8FBFF36F8F00DF00BF000008ED00E01E
:1051900080B586B00490039140F2FC00C2F200009A
:1051A0000068C068C06801900198043001F06CF894
:1051B000019890F824004007002823D5FFE70198C4
:1051C000049B81691944039AFFF762FFC0B1FFE7AE
:1051D0000198049A694600230B60194603F022FAED
:1051E0000290029858B9FFE74FF0500080F3118801
:1051F000BFF36F8FBFF34F8F0590FFE7FEE700E02F
:10520000FFE707E0019991F8240000F0FE0081F823
:105210002400FFE70198016A884706B080BD0000BE
:1052200080B58EB0FFE745F25430C2F2000000684E
:1052300007A9002202F0DCFB002800F0B880FFE79D
:105240000798B0F1FF3F17DCFFE707A80430029092
:10525000029858B9FFE74FF0500080F31188BFF370
:105260006F8FBFF34F8F0D90FFE7FEE702990A683B
:1052700048688968904700E0FFE70798002800F138
:105280009580FFE7099806900698406928B1FFE7E6
:105290000698043000F0F8FF00E0FFE705A800F0F2
:1052A000F5F8039007980190092800F27D80019994
:1052B000DFE801F00505053D456605053D45069914
:1052C00091F8240040F0010081F824000698089B22
:1052D00081691944039AFFF7DBFE30B3FFE70698B4
:1052E000016A8847069890F82400400700281AD5DC
:1052F000FFE70698089982690A44694600230B6013
:10530000194603F08FF90490049858B9FFE74FF05D
:10531000500080F31188BFF36F8FBFF34F8F0C9055
:10532000FFE7FEE700E0FFE700E0FFE73DE006996A
:1053300091F8240000F0FE0081F8240035E0069981
:1053400091F8240040F0010081F8240008980699A3
:1053500088610698806958B9FFE74FF0500080F3E4
:105360001188BFF36F8FBFF34F8F0B90FFE7FEE7FE
:105370000698039B816919441A46FFF789FE14E0D9
:10538000069890F824008007002804D4FFE70698C8
:1053900001F07AF807E0069991F8240000F0FE0089
:1053A00081F82400FFE700E0FFE7FFE73BE70EB0EE
:1053B00080BD000080B584B00390029101F0CCFA6A
:1053C000684600F063F801900098D8BBFFE70298A8
:1053D00060B9FFE703980199884207D8FFE703F017
:1053E00027F803980199FFF7D3FE2AE0029858B1F5
:1053F000FFE740F20810C2F2000000680068B0FA4F
:1054000080F040090290FFE745F25430C2F20000FC
:1054100000680399019A891A029A01F0D5F803F0FD
:1054200007F860B9FFE74EF60451CEF200014FF0E5
:1054300080500860BFF34F8FBFF36F8F00E0FFE72E
:10544000FFE702E002F0F4FFFFE704B080BD0000D8
:1054500040F20010C2F200000068006840B9FFE7A7
:1054600045F2D421C2F200014FF0FF3008600CE099
:1054700040F20010C2F200000068C068006845F207
:10548000D421C2F200010860FFE7704780B582B006
:10549000019002F083FD0090009840F2F001C2F20A
:1054A00000010968884206D2FFE700F011F801996F
:1054B0000120086003E0019900200860FFE70098E0
:1054C00040F2F001C2F200010860009802B080BD15
:1054D00080B588B0FFE740F2FC00C2F2000000682F
:1054E000006800284ED0FFE740F2FC00C2F2000046
:1054F0000168C968096806910068C068C0680390BF
:105500000398043000F0C0FE0398016A88470398AE
:1055100090F824004007002832D5FFE70698039949
:105520008969084405900598069988420FD9FFE7D4
:105530000598039948600398006140F2FC00C2F2AC
:10554000000000680399043100F0F8FE17E00398AA
:10555000069A694600230B60194603F063F802902F
:10556000029858B9FFE74FF0500080F31188BFF35D
:105570006F8FBFF34F8F0790FFE7FEE7FFE700E075
:10558000FFE7A8E740F2FC02C2F2000210680490B4
:1055900040F20811C2F20001086810600498086027
:1055A00008B080BD83B00020009040F24000C2F2FD
:1055B00000000068013058B1FFE74FF0500080F361
:1055C0001188BFF36F8FBFF34F8F0290FFE7FEE7A5
:1055D0004FF0500080F31188BFF36F8FBFF34F8FF0
:1055E0000190FFE7009808B9FFE7FBE703B07047B9
:1055F00080B584B00390FFE701A8FFF725FC029077
:1056000002980199FFF7D6FEFFF70AFEF4E70000C3
:1056100080B582B0019000F0E5FE019890F8450059
:105620008DF80300FFE79DF90300012816DBFFE773
:105630000198406A58B1FFE70198243002F090FECB
:1056400018B1FFE701F03CF800E0FFE700E005E0FB
:105650009DF8030001388DF80300E4E70199FF206D
:1056600081F8450000F0EAFE00F0BCFE019890F8D9
:1056700044008DF80200FFE79DF90200012816DBC7
:10568000FFE70198006980B1FFE70198103002F050
:1056900067FE18B1FFE701F013F800E0FFE79DF89F
:1056A000020001388DF8020000E000E0E4E7019913
:1056B000FF2081F8440000F0C1FE02B080BD000070
:1056C00080B582B00190002000909DF80400400752
:1056D00088B1FFE7019921F007000830884206D918
:1056E000FFE7019820F007000830019002E0002059
:1056F0000190FFE7FFE701F02FF940F2F400C2F25A
:105700000000006868B9FFE740F26420C2F20000C0
:10571000083020F0070040F2F401C2F200010860F6
:10572000FFE7019838B3FFE745F2D020C2F200004E
:1057300000680199084444F6F77188421BD8FFE7D6
:1057400045F2D020C2F20000016801980844884266
:1057500011D9FFE740F2F400C2F20000006845F200
:10576000D021C2F200010A6810440090019A086832
:1057700010440860FFE702F05BFE009802B080BDB5
:1057800040F2F800C2F20000006848B1FFE740F2C2
:10579000F800C2F200000168886C01308864FFE7FD
:1057A00040F2F800C2F200000068704781B08DF846
:1057B00003009DF8032047F20001C4F200010868CD
:1057C00002F0070220F0E00040EA4210086001B059
:1057D0007047000083B00290019100920298043853
:1057E000029002994FF0807008600298043802908D
:1057F000019820F001000299086002980438029094
:10580000029945F2A550C0F60000086002981438CD
:10581000029000980299086002982038029002983D
:1058200003B0704780B584B08DF80F0000208DF86C
:105830000E0040F2B000C2F20000006845F6000120
:10584000C4F20001884215D1FFE79DF80F306A4687
:1058500005209060012151600DF10E00106040F2B2
:10586000B000C2F200005A22FEF78CFA08B1FFE73E
:10587000FFE7FFE79DF80E0004B080BD82B0019005
:10588000ADF80210BDF802000199C86002B070477F
:1058900083B00290019100208DF803000298806887
:1058A0000199084204D1FFE700208DF8030003E0CE
:1058B00001208DF80300FFE79DF8030003B0704757
:1058C00080B58CB0002000900B900A900990089051
:1058D00007900690059004900390FDF77FFA8DF8ED
:1058E0000B009DF80B000146019140B1FFE70198C4
:1058F00001282BD0FFE70198022831D0D6E041F2F1
:105900005400C4F202000068400AC00798B1FFE7E3
:1059100041F23000C4F202000068400EC00750B1EE
:10592000FFE740F23C01C2F2000146F60040C0F23F
:10593000DC20086009E040F23C01C2F2000141F2C3
:105940000020C0F27A000860FFE7B9E040F23C01B5
:10595000C2F2000142F20040C0F2F4000860AFE081
:1059600041F20400C4F202000068C0F30040099054
:1059700041F22C00C4F2020001680020B0EBD17F9C
:1059800050D1FFE741F20400C4F202000168C1F304
:1059900083410B910068C0F341700A900A9820B9C6
:1059A000FFE70B980F2807D1FFE70A990B9800EB48
:1059B000011001300B9003E00B9802300B90FFE7D1
:1059C000099860B9FFE70B9840F60011C0F23D015D
:1059D000484340F23C01C2F20001086021E041F27C
:1059E0000400C4F202000068400CC00760B1FFE789
:1059F0000B9841F20021C0F27A01484340F23C0189
:105A0000C2F2000108600BE00B9842F20041C0F2C4
:105A1000F401484340F23C01C2F200010860FFE794
:105A2000FFE742E041F22C00C4F202000168C1F33A
:105A3000031105910168C1F308210491006800F089
:105A400007000390099830B9FFE740F60010C0F254
:105A50003D00069015E041F20400C4F20200006827
:105A6000400CC00730B1FFE741F20020C0F27A00DD
:105A7000069005E042F20040C0F2F4000690FFE715
:105A8000FFE706980499A0FB0101059ADDF80CC018
:105A9000012303FA0CF35A430023FAF785FB40F283
:105AA0003C01C2F200010860FFE709E040F23C015E
:105AB000C2F2000141F20020C0F27A000860FFE764
:105AC00041F20400C4F202000068C0F30310089021
:105AD000089949F24E20C0F60000405C079040F261
