:020000040800F2
:10000000C0590020E50200080D1800080518000876
:10001000091800089D1600084D1A0008000000008D
:10002000000000000000000000000000411900086E
:100030000118000800000000F11800086519000808
:10004000FF020008FF020008FF020008FF0200088C
:10005000FF020008FF020008FF020008FF0200087C
:10006000FF020008FF020008FF020008FD17000859
:10007000FF020008FF020008FF020008FF0200085C
:10008000FF020008FF020008FF020008FF0200084C
:10009000A116000829170008B1170008FF02000880
:1000A000FF020008FF020008FF020008FF0200082C
:1000B000FF020008451A0008FF020008FF020008BE
:1000C000FF020008FF020008FF020008FF0200080C
:1000D000FF020008491A0008FF020008FF0200089A
:1000E000FF020008FF020008FF02000800000000F5
:1000F0000000000000000000000000000000000000
:1001000000000000FF020008FF02000800000000DD
:10011000FF020008FF0200080000000000000000CD
:10012000FF020008FF020008FF020008FF020008AB
:1001300000000000000000000000000000000000BF
:10014000000000000000000000000000FF020008A6
:100150000000000000000000FF020008FF0200088D
:10016000000000000000000000000000FF02000886
:1001700000F002F800F0A6F814A696E8000CB244CD
:10018000B344DA4501D100F09DF8BAE80F000FA69C
:1001900096E83000A5EB040504EB0607AAEB07047C
:1001A000A7F101074FEA15154FEA3414A4F1010431
:1001B000AC4201D300F086F813F0010F18BFFB1A10
:1001C00043F0010300F001F8DBE71847B0AE000090
:1001D000D0AE0000103A24BF78C878C1FAD85207D0
:1001E00024BF30C830C144BF04680C6070470000B1
:1001F000704700000023002400250026103A28BF85
:1002000078C1FBD8520728BF30C148BF0B60704788
:100210006E2900F04982702900F08B8366290AF06C
:10022000688565290AF0658567290AF06285612974
:100230000AF0618503681B0A28BF41F08001692923
:1002400000F0F681642900F0F381752900F0F08157
:100250006F2900F01983782900F05783E92900F00D
:10026000B382E42900F0B082F52900F0AD82EF29D5
:1002700000F01683F82900F056830368DB0928BFD5
:1002800041F08001632901F08980732901F08E809B
:10029000E32901F09980F32901F09E800020704746
:1002A0001FB501F0EFF804000020002109F018FE4E
:1002B000401C60600020002109F0FCFDE0601FBDD3
:1002C00010B510BD01F0B0F81146FFF7E9FF05F0D9
:1002D0009BF901F08DF903B4FFF7F2FF03BC01F0C5
:1002E000D5F900000948804709480047FEE7FEE7C6
:1002F000FEE7FEE7FEE7FEE7FEE7FEE7FEE7FEE7D6
:1003000004480549054A064B70470000711900086A
:1003100071010008C0530020C0590020C0550020C2
:10032000C055002053EA020C00F069802DE9F04B23
:100330004FF00006002B1FBFB3FA83F503FA05F454
:1003400024FA05F65E4012BF1643B2FA82F502FAAD
:1003500005F4C5F120051EBF22FA05FC44EA0C0491
:10036000203556EA044C4FEA144418BF641C4FF081
:1003700000084FF00009904271EB030C39D30029BB
:1003800019BFB1FA81F701FA07F6B0FA80F700FA5F
:1003900007F6C7F120071EBF20FA07FC46EA0C0645
:1003A0002037B6FBF4FCA7EB0507103F07F01F0B47
:1003B000CBF120062CFA06F60CFA0BFB44BFB34631
:1003C0000026202FA4BF5E464FF0000B5BEA060C10
:1003D00008BF4FF0010B19EB0B0948EB0608ABFB0C
:1003E000027C06FB02CC0BFB03CCC01B71EB0C01A7
:1003F000C1E70B46024641464846BDE8F08B13B5BF
:10040000084318BF4FF0FF300146AFF30080BDE84E
:100410001C4070470FB41CB5084B06AA7B446946C4
:100420000090059800F059F904460020694600F054
:1004300067F920461CBC5DF814FB0000E1020000D7
:1004400010B5431C02E010F8011B71B18107FAD10D
:100450004FF0013202C88C1A8C4314EAC211F9D051
:10046000C01A0A0603D0C01E10BDC01A10BD0A046F
:1004700001D0801E10BD0902FCD0401E10BD032A11
:1004800040F2308010F0030C00F0158011F8013BB1
:10049000BCF1020F624498BF11F801CB00F8013B98
:1004A00038BF11F8013BA2F1040298BF00F801CB5C
:1004B00038BF00F8013B11F0030300F00983083A4C
:1004C000C0F0088051F8043B083A51F804CBA0E88A
:1004D0000810F5E7121D5CBF51F8043B40F8043BDF
:1004E000AFF30080D20724BF11F8013B11F801CB14
:1004F00048BF11F8012B24BF00F8013B00F801CBE5
:1005000048BF00F8012B704702F0FF0343EA0322C3
:1005100042EA024200F002B84FF0000200B5134672
:1005200094469646203922BFA0E80C50A0E80C5013
:10053000B1F12001BFF4F7AF090728BFA0E80C50C4
:1005400048BF0CC05DF804EB890028BF40F8042BBD
:1005500008BF704748BF20F8022B11F0804F18BF2A
:1005600000F8012B704770477047704770B504461C
:1005700085690068C10601D5302600E02026C00745
:1005800007D070BDD4E9012130469047206A401C55
:1005900020626D1EF6D570BD70B504468569007881
:1005A000C00707D170BDD4E9012120209047206AFF
:1005B000401C20626D1EF6D570BD09684A0501D544
:1005C00040B27047C905FCD500B2704709684A05BA
:1005D00001D5C0B27047C905FCD580B2704770B56F
:1005E0000C460546012A05D02878800600D5EA6920
:1005F000002302E0012305E05B1C934202D2E05C91
:100600000028F9D1A869E618C01AA861286A184418
:1006100028622846FFF7AAFF04E0D5E9012114F873
:10062000010B9047B442F8D32846FFF7B5FF70BDE1
:100630002DE9F0410646002410687529314616A5BB
:1006400010D0FFF7BAFF002802DA404213A507E0F6
:1006500031688A0701D512A502E0490704D511A522
:10066000012401E0FFF7B2FF00210A2206F124076E
:1006700009E0B0FBF2FCB0FBF2F302FB1C003030EF
:1006800078541846491C0028F3D123462A463046A0
:10069000BDE8F04100F093BA000000002D0000001A
:1006A0002B0000002000000011680268006A53055A
:1006B00001D508700AE0D30501D5088006E01306CD
:1006C00003D5C217C1E9000200E0086001207047AD
:1006D00001694A1C02610878704700B58FB0CDE906
:1006E00001310021059105497944CDE903101146F6
:1006F000684600F029F90FB000BD0000E5FFFFFFDC
:100700000A6802F8010B0A60704700002DE9FF5FDC
:1007100015468A460446DFF8AC80F8440027D8E93D
:1007200000103E46CDE9001010E03AF816106A4677
:1007300002A800F055FE411C07D02178890603D598
:10074000E269391891420DD80744761C207880065A
:1007500002D5E069B84205DDAE42E6DB3AF81600A4
:100760000028E2D1A069C01BA0612046FFF7FEFE71
:10077000D8E90010CDE90010002017E03AF8181071
:100780006A4602A800F02CFEB0F1FF3F81460BD074
:1007900000250DF1080B05E0D4E901211BF8050047
:1007A00090476D1C4D45F7D308F10100B0428046DB
:1007B000E4DB206A384420622046FFF7EDFEBDE806
:1007C000FF9F0000DEA500002DE9F0418046D21D0C
:1007D00022F007020025D2E90002F52915A614D05F
:1007E000011E72F1000106DA0023D0EB030063EB77
:1007F000020211A608E0D8F800108B0701D50FA659
:1008000002E0490701D50EA601251146002408F192
:10081000240704E000F08EF930323A55641C50EAA7
:100820000102F7D12B46324621464046BDE8F04151
:1008300000F0C5B9000000002D0000002B000000F2
:100840002000000030B4002100F1240408E002F090
:100850000705D208303542EA4372DB086554491C6B
:1008600052EA0305F3D10468002310A2250708D536
:1008700004F020040C4304D0C46901230CA2641EBC
:10088000C46130BC00F09BB910B504462146106825
:10089000FFF79CFE02462046BDE810400023D1E74A
:1008A000D21D22F00701D1E90023CBE700000000B0
:1008B00030000000F0B40D460188090502D5214C36
:1008C0007C4402E01F4C7C440E34002100F12406DD
:1008D00008E002F00F071209E75D42EA03721B0904
:1008E0007754491C52EA0307F3D102780023120718
:1008F00004D5702D06D009B1022311342246F0BC74
:1009000000F05DB901231034F8E770B504460D46D8
:1009100021461068FFF75AFE024629462046BDE8E8
:1009200070400023C6E7D21D22F00703D3E900235D
:10093000C0E70368126843F0200303600823C36123
:100940000023B7E740A400002DE9F05F8946044684
:100950004FF0000ADFF874B1FB44C0F820A0204635
:10096000E1688847002874D0252806D0D4E9012101
:100970009047206A401C2062F1E700265F4620462F
:10098000E16888472028054607DB312D05D2781914
:1009900010F8200C08B10643F1E7B00701D526F0A6
:1009A0000406C4F81CA00027C4F818A02A2D09D0FA
:1009B000284609F077FA38B304EB8708303DC8F8C9
:1009C000185019E059F8041B204604EB8702916186
:1009D000E1688847012F054618D1E069002820DA30
:1009E00026F020061DE0D8F8180000EB800005EB8B
:1009F00040003038C8F818002046E16888470546AE
:100A000009F050FA0028EED1012F0AD02E2D08D17E
:100A10002046E16888477F1C0546022F46F02006E5
:100A2000C4DBA069002803DA404246F00106A06159
:100A3000F00701D026F010066C2D0BD0682D09D0E0
:100A40004C2D39D06A2D35D0742D35D07A2D33D038
:100A500016E038E0E1682F4620468847B842054650
:100A600009D16C2F26D04FF48060E1680643204600
:100A70008847054604E06C2F1AD04FF48070064377
:100A80000DB3A5F14100192802D8203546F40066BF
:100A90004A462946204626604E46FFF7B9FB80B1FC
:100AA00001280BD0F61D26F0070000F1080956E7D3
:100AB0004020E4E78020D8E70020D6E706F10409CB
:100AC0004DE7284652E7206ABDE8F09FD0A300001A
:100AD00010B5203AC0F00B80B1E81850A0E81850CB
:100AE000B1E81850A0E81850203ABFF4F5AF5FEA1B
:100AF000027C24BFB1E81850A0E8185044BF18C9C0
:100B000018C0BDE810405FEA827C24BF51F8043B66
:100B100040F8043B08BF7047D20728BF31F8023BBA
:100B200048BF11F8012B28BF20F8023B48BF00F84E
:100B3000012B704730B5B0F10A0271F100034FEAA2
:100B4000900E4EEA817EB0EB0E0061EB91014FEA10
:100B5000101E4EEA017E10EB0E0041EB11114FEA20
:100B6000102E4EEA016E10EB0E0041EB11214FEA00
:100B7000104E4EEA014E10EB0E0041EB11414018B1
:100B800041F100014FEAD00040EA41704FEAD10143
:100B90004FEA810444EA907410EB800544EB0104B1
:100BA0006D1944EB0404521BA3414FF0000348BFEE
:100BB0000A3200D530BD401C41F1000130BD2DE9A5
:100BC000F0470D4699469246044600F12408016814
:100BD000880604D5E06921F01001216000E00120C1
:100BE000A84201DD471B00E00027A1697A1902EB4A
:100BF0000900081AA0612078C00602D42046FFF739
:100C0000B5FC002608E0D4E901211AF80600904757
:100C1000206A401C761C20624E45F4DB2078C0061A
:100C20000AD52046FFF7A2FC06E0D4E901213020D6
:100C30009047206A401C2062381EA7F10107F4DCAF
:100C400007E0D4E9012118F805009047206A401C0C
:100C50002062281EA5F10105F3DC2046FFF79CFC6D
:100C60002078000602D50220BDE8F0870120FBE7CE
:100C70002DE9FF4F0C461E464FF0FF378BB0D2E9EF
:100C80000001DDF860800A908A46C1F30A5505B973
:100C90003D46002108464FF00000BAF1000F00F475
:100CA000400005DA00EB80004FF4400101EA5000FB
:100CB0004FEA9059B9F1010F00DDB9460A9850EAA0
:100CC0004A000ED044F61050A5F2FF3545432F14CC
:100CD000B8F1000F1ED07542291E1EDDC9F10002B9
:100CE0001CE0B8F1010F4FF0000001D0302103E00B
:100CF000F24305E02154401CB042FBDB30460022A9
:100D0000002121540B99C1F80880C1E900200FB0DF
:100D1000BDE8F08FBD1B6D1CDEE74A4600DA694274
:100D200006A800F0F3FB06AB93E8070003AB83E8EB
:100D3000070050460A9908F0D9FC8DE80700A0F595
:100D400000501F3800900398002D0ADD42F21F0169
:100D50004A460844002303A90390684608F042FF6E
:100D600009E0A0F500504A461F38002303A903906C
:100D7000684608F04CFF8DE807000004000C03D023
:100D80004FF0FF30410800E01046B8F1000F03D0EB
:100D90000022009215461EE0751E05D4FFF7CAFE1C
:100DA000303262556D1EF9D5B3460122084302D098
:100DB00000227F1C04E02078302801D100227F1E11
:100DC000002A099784D01DE0112D07DAFFF7B2FE43
:100DD000303262556D1C50EA0102F5D1084302D051
:100DE0000098C8B10EE00021681E05E0235C625C3B
:100DF00063542254401E491C8142F7DBAB46A81BBA
:100E0000401E0990002004F80B000B98099AC0F8C6
:100E10000880C0E9002B7AE711264FF0000857E759
:100E20002DE9F04F88460446D21D22F0070191B00B
:100E3000D1E90001CDE90A0109F020F802460B983A
:100E4000C00F01D02D2007E02068810701D52B209D
:100E500002E0202101EAC000032A099001D0072AFC
:100E600005DB03464146204600F010FB0BE12078ED
:100E7000800601D5E06900E00620B8F1650F8146E3
:100E800006D0B8F1660F18D0B8F1670F70D131E015
:100E90000020B9F1110F009001DB112301E009F1ED
:100EA00001030AAA01A90CA8FFF7E2FEDDE90C7014
:100EB000002609F10105834647E001204B460090DA
:100EC0004FF000470AAA01A90CA8FFF7D1FEDDE9FF
:100ED0000DB00C995D46002610B909F101000D18FE
:100EE000B9EB050003D4C0F1FF3609F10105A5EB0C
:100EF00009002BE0B9F1010F01DA4FF001090020E0
:100F0000B9F1110F0090484601DD112300E00346BE
:100F10000AAA01A90CA8FFF7ABFEDDE90C704D464B
:100F200000268346207800070AD4AB4500DA5D46E8
:100F300001A8012D04DD411911F8011C302907D049
:100F40004F4502DA17F1040F04DA012082460FE060
:100F50006D1EEEE7002F02DCED1B3E4403E0781C23
:100F6000A84200DD7D1CB81B00F1010A4FF00047CC
:100F70002078000703D4AA4501DB4FF0FF3A002197
:100F8000B7F1004F0DF143088DF8431024D0022033
:100F90002B23002F01DA7F422D230A21021EA0F10C
:100FA000010000DC5FB197FBF1FC97FBF1F201FB64
:100FB0001C7C17460CF1300C08F801CDEEE7A8F1C7
:100FC000010003702188090501D5452100E0652154
:100FD000A0F1010800F8011C09980FA9A1EB08076E
:100FE000FF1D00B10120411901EBEA70A1693844ED
:100FF000081A401EA0612078C00602D42046FFF7E0
:10100000B5FA099828B1D4E901219047206A401C1B
:1010100020622078C00622D52046FFF7A7FA1EE0FE
:10102000002E04DBB34502DD01A8805D00E0302026
:10103000D4E901219047206A401C2062761CAAF165
:1010400001005FEA000A0AD100F01CFAC0680168DA
:10105000405CD4E901219047206A401C2062281E90
:10106000A5F10105DCDC07E0D4E9012118F8010B4A
:101070009047206A401C2062381EA7F10107F3DC6C
:101080002046FFF789FA032011B041E62DE9F04F21
:1010900004460D46D21D22F0070089B0D0E9009722
:1010A0004846394608F0EAFE0246F80F01D02D23E3
:1010B00007E02068810701D52B2302E0202101EA07
:1010C000C0038DF820300BB1012000E00020032A7E
:1010D000824601D0072A04DB2946204600F0D6F9D3
:1010E0003FE12078800601D40D2500E0E569C7F3D3
:1010F0000A560D2D49DA00214FEA175B08464FF0DA
:101100000000002F00F4400007DA00EB80004FF4ED
:10111000400100EBD07001EA60008115012901DD7A
:101120004FF0FF3100224FEA850CBCF1180F06D3B7
:101130001346ACF118004FF08052C24003E04FF468
:10114000801323FA0CF30CF10C0CBCF1200F04D328
:10115000ACF1200C09FA0CF001E007FA0CF00029C0
:101160004FF0004801DD18B90FE00ED140450CD317
:1011700019EB02095F4121B9404502D19F4329EA99
:101180000209BBEB175F00D0761C2088000502D552
:101190007B48784402E07A487844193808AA30231A
:1011A00002F80A30037C0AF10101002E0AF1020A5A
:1011B00053546A4602DC4FF0300101E04FF0310138
:1011C0004FF001088DF8001002D0A6F2FF3603E0C0
:1011D00059EA470100D06B4E002D02DC2178090747
:1011E00004D54FF002082E218DF80110C4460021CD
:1011F0000BE0C7F303433F01C35C491C6D1E02F8BB
:101200000830052908F1010801DA002DF1DC002180
:101210000CE000EB1973491C1B786D1E082902F8BD
:1012200008304FEA091908F1010801DA002DF0DC55
:1012300021688B0602D516E0A8F10108E04505DD1E
:1012400002EB080313F8013C302BF5D0B8F1000F86
:1012500009DD02EB080313F8013C2E2B03D109072B
:1012600001D4A8F10108002D05DD3E2102F8081087
:101270006D1E08F10108407C002E02F8080008F1FC
:10128000010804DA2D20764202F8080002E02B2043
:1012900002F808000A214FF47A70864208F101082A
:1012A0000BDB96FBF0F3303302F8083096FBF0F3DB
:1012B00008F1010800FB136601E0642E0CDB6420DA
:1012C00096FBF0F3303302F8083096FBF0F308F1A8
:1012D000010800FB136601E00A2E06DB96FBF1F025
:1012E000303002F8080008F1010896FBF1F001FB2C
:1012F0001060303002F80800A16908F1010808EB1D
:10130000050202EB0A00081AA0612078C00602D488
:101310002046FFF72BF9216A08AE01EB0A00206294
:1013200004E0D4E9012116F8010B9047BAF1010A53
:10133000F7D22078C00602D52046FFF717F96E468F
:1013400009E016F8010B3E280FD0D4E9012190479F
:10135000206A401C2062B8F10108F2D22046FFF753
:101360001BF909B00320BDE8F08F206A28442062F1
:1013700003E0D4E90121302090476D1EEBD3F8E75C
:10138000BA9B000002FCFFFF10B5436913B1AFF335
:10139000008001E0FFF723F9012010BD127800F171
:1013A00024010A7000224A700122EDE711684FF013
:1013B000FF32E9E710B5436913B1AFF3008001E0F4
:1013C000FFF7A4F9012010BD128800F124018284E6
:1013D0000022C2840122EDE711684FF0FF32E9E7F5
:1013E0002DE9F04116460C46054600F043F8036827
:1013F00093F80101012807D0FF2C12D8185D80B1A5
:1014000001202C70BDE8F081D3F807013246214657
:1014100003F20713C7182846BC46BDE8F041002375
:1014200060474FF0FF30EDE7754600F0EBF8AE4651
:1014300005006946534620F00700854618B020B5E0
:10144000FEF75EFFBDE820404FF000064FF00007BA
:101450004FF000084FF0000BAC46ACE8C009ACE818
:10146000C009ACE8C009ACE8C00921F007018D460D
:101470007047000010B500F005F8001D10BD00BF5A
:10148000618A000000487047680000202DE9F041A3
:101490001F46044603260168072A01F4006004DBA6
:1014A00008B116A505E016A503E008B115A500E0F2
:1014B00015A521F010002060A069C01EA0610FB129
:1014C000401EA0612046FFF751F84FB1D4E9012139
:1014D00038469047206A401C2062C01C206206E00B
:1014E000206AFAE7D4E9012115F8010B9047761E2E
:1014F000F8D22046FFF750F8BDE8F0814E414E008B
:101500006E616E00494E4600696E66002DE9F04737
:10151000814616468AB0354878440DC88DE80D00DE
:1015200032487844801C03AC0DC884E80D0041F6B5
:101530009B300844372190FBF1F290FBF1F5A5F1C7
:10154000800501FB12041B3C02D56442012000E02F
:101550000020DFF898A080460027FA44AAF1BE0ACE
:101560000EE0E0070AD03246684607EB4701012348
:101570000AEB810108F04BFB8DE8070064107F1C2B
:10158000002CEED1194F7F44AE3F19E0E80715D08B
:1015900007EB04100DF1180A90E80E008AE80E001F
:1015A000C068F04201D1981908903246012306A97B
:1015B00003A808F02CFB03AB83E807006D10641C44
:1015C000002DE3D14FF0010332466946B8F1000F18
:1015D00003A802D008F006FB01E008F018FBC9E9F7
:1015E0000001C9F808200AB0BDE8F087C4980000DF
:1015F00010B50446AFF300802046BDE81040FEF76A
:101600006ABE00000048704748000020000000004B
:1016100030B44FF0013C50F8042B51F8043BCCFAA5
:1016200052F4D51A20D1FCB950F8042B51F8043BE0
:10163000CCFA52F4D51A17D1B4B950F8042B51F89A
:10164000043BCCFA52F4D51A0ED16CB950F8042BE5
:1016500051F8043BCCFA52F4D51A05D1002CDAD05B
:1016600030BC4FF00000704729BAB1FA81F111F097
:101670001801D1F120008440F2D1CA40CB4012F0D1
:10168000FF0213F0FF0330BCD01A70470149182045
:10169000ABBEFEE72600020070470000FFE7FEE752
:1016A00080B586B00020059046F20040C4F20000EC
:1016B000092101F0B7F928B3FFE700200490039057
:1016C00002900190009040F2A020C2F20000006859
:1016D000B8B1FFE74AF6D060C0F600004068426843
:1016E00000206946904701280BD1FFE740F2A02077
:1016F000C2F200000068694605AA002307F0B8F8A6
:10170000FFE7FFE7059860B1FFE74EF60451CEF220
:1017100000014FF080500860BFF34F8FBFF36F8F11
:10172000FFE706B080BD000080B586B000200590C0
:1017300046F20040C4F200000C2101F073F928B316
:10174000FFE700200490039002900190009040F287
:10175000A020C2F200000068B8B1FFE74AF6D060EE
:10176000C0F60000406842680120694690470128A1
:101770000BD1FFE740F2A020C2F2000000686946EA
:1017800005AA002307F074F8FFE7FFE7059860B1AA
:10179000FFE74EF60451CEF200014FF08050086092
:1017A000BFF34F8FBFF36F8FFFE706B080BD000020
:1017B00080B582B00020019046F20040C4F20000E3
:1017C000042101F02FF9B8B1FFE746F21840C4F246
:1017D0000000006800F07000019040F2D001C2F2F9
:1017E0000001886A0130886246F20040C4F20000BD
:1017F000042101F0C7F8FFE702B080BD7047000088
:1018000070470000FFE7FEE7FFE7FEE770470000D4
:1018100088B0079006910592079800F007000490A1
:101820000498C0F10700052803D3FFE704200190C6
:1018300004E00498C0F107000190FFE701980390CD
:1018400004980430062803D8FFE70020009003E046
:10185000049803380090FFE70098029006980399D7
:10186000012202FA01F101390840029B98400599D2
:101870009A40013A1140084308B0704788B0079079
:1018800006910592079800F0070004900498C0F1B3
:101890000700052803D3FFE70420019004E0049823
:1018A000C0F107000190FFE701980390049804300D
:1018B000062803D8FFE70020009003E004980338CF
:1018C0000090FFE70098029006980399012202FA1F
:1018D00001F101390840029B984005999A40013A6C
:1018E0001140084308B070470000000000000000ED
:1018F000EFF30980BFF36F8F0D4B1A6820E9F00FEB
:1019000010602DE908404FF0500080F3118805F079
:101910008FFF4FF0000080F31188BDE80840196880
:101920000868B0E8F00F80F30988BFF36F8F704745
:10193000480100200000000000000000000000003E
:10194000074B19680868B0E8F00F80F30988BFF307
:101950006F8F4FF0000080F311884EF00D0E70472E
:101960004801002080B506F0C5FB06F089FD80BD6A
:1019700041F21C01C4F20201086840F08050086086
:1019800047F25002C4F20002107840F004001070D8
:10199000086820F08050086041F20001C4F20201A2
:1019A000086840F001000860FFE741F20000C4F25F
:1019B00002000068C0F34000012801D0FFE7F4E70F
:1019C00041F20401C4F20201086820F0030008603B
:1019D000FFE741F20400C4F20200006880088007BB
:1019E00008B1FFE7F5E741F20001C4F2020108681F
:1019F0004FF6FF72CFF6F2621040086041F2040128
:101A0000C4F202010020086041F22C01C4F202017C
:101A100041F61070086041F23001C4F202014FF447
:101A20008010086041F20801C4F202014FF41F0067
:101A300008604EF60851CEF200014FF000600860D9
:101A4000704700007047000070470000FFE7FEE7A6
:101A500081B08DF803009DF9030000280ED4FFE744
:101A60009DF9031001F01F02012090404A094EF237
:101A70000011CEF2000141F82200FFE701B07047EB
:101A80004EF60C50CEF200000068C0F30220704702
:101A90004EF60C50CEF200000068C0F302207047F2
:101AA00082B08DF8070000919DF9070000280AD444
:101AB000FFE7009800019DF907104EF20042CEF2B8
:101AC000000288540BE0009800019DF8071001F017
:101AD0000F014EF61452CEF200028854FFE702B016
:101AE0007047000082B08DF8070000919DF9070053
:101AF00000280AD4FFE7009800019DF907104EF274
:101B00000042CEF2000288540BE0009800019DF8DC
:101B1000071001F00F014EF61452CEF20002885465
:101B2000FFE702B07047000083B00290029800F017
:101B3000070000904EF60C51CEF2000108680190AB
:101B400001984FF6FF02104001900198009A40EA78
:101B500002200022C0F2FA5210430190019808605E
:101B600003B0704782B0019000910098027801990B
:101B7000486802F0010220F4807040EA02204860C8
:101B8000009842780199886802F0010220F0020072
:101B900040EA42008860009882780199886802F0E3
:101BA000010220F4006040EAC22088600098C078FA
:101BB000421E0199C86A02F00F0220F4700040EA48
:101BC0000250C86202B0704781B0009000990020B6
:101BD0000870009948700099887000990120C870B9
:101BE00001B0704780B542F20040C4F2010000F03D
:101BF0001BF8FFE742F20040C4F2010000F01EF8BB
:101C000008B1FFE7F6E742F20040C4F2010000F03D
:101C100029F8FFE742F20040C4F2010000F02CF87E
:101C200008B1FFE7F6E780BD81B0009000998868B1
:101C300040F00800886001B07047000082B000905A
:101C400000988068C008C00720B1FFE701208DF828
:101C5000070003E000208DF80700FFE79DF807006C
:101C600002B0704781B000900099886840F004008D
:101C7000886001B07047000082B0009000988068D2
:101C80008008C00720B1FFE701208DF8070003E0BE
:101C900000208DF80700FFE79DF8070002B07047AD
:101CA00082B001908DF803109DF803200199886897
:101CB00002F0010220F4807040EA0220886002B045
:101CC0007047000082B001908DF803109DF803204A
:101CD0000199886862F30000886002B070470000D4
:101CE00083B002908DF807108DF806208DF805302E
:101CF0009DF8070009281CDCFFE7029800690090A6
:101D00009DF8070000EB4001072000FA01F1009860
:101D1000884300909DF805009DF8071001EB4101F4
:101D200000FA01F1009808430090009802990861B8
:101D30001EE00298C06800909DF8070000EB40008C
:101D4000A0F11E01072000FA01F1009888430090DD
:101D50009DF805009DF8071001EB41011E3900FABE
:101D600001F100980843009000980299C860FFE7CD
:101D70009DF806000D281FDBFFE70298C06A00905F
:101D80009DF8060000EB8000A0F141011F2000FA41
:101D900001F10098884300909DF807009DF8061017
:101DA00001EB8101413900FA01F1009808430090EC
:101DB00000980299C86242E09DF8060007281FDBE0
:101DC000FFE70298006B00909DF8060000EB800092
:101DD000A0F123011F2000FA01F100988843009030
:101DE0009DF807009DF8061001EB8101233900FAE8
:101DF00001F10098084300900098029908631DE0E3
:101E00000298406B00909DF8060000EB8000411F97
:101E10001F2000FA01F10098884300909DF8070008
:101E20009DF8061001EB8101053900FA01F10098D7
:101E300008430090009802994863FFE7FFE703B06A
:101E40007047000082B001908DF803108DF80220D9
:101E50009DF80300082811DBFFE70199886840F02E
:101E6000007088609DF8030000F0070201998868FF
:101E700020F4602040EA4240886010E001998868C0
:101E800020F0007088609DF8030000F007020199BF
:101E9000886820F4602040EA42408860FFE79DF8AF
:101EA00002200199886802F0010220F4801040EAC3
:101EB0000250886002B0704782B001908DF8031024
:101EC0009DF803200199486802F0010220F40060A7
:101ED00040EAC220486002B07047000082B0019022
:101EE0008DF803109DF803200199886802F0010223
:101EF00020F4800040EA8250886002B07047000001
:101F000080B582B042F20040C4F20100009001218D
:101F10000191FFF7D7FE00980199FFF7DFFF02B0AC
:101F200080BD000081B08DF803009DF8032042F2CF
:101F30000841C4F20101086802F0010220F4000027
:101F400040EAC250086001B07047000080B5A2B0FE
:101F5000219040F2B401C2F200010020086040F27A
:101F6000B801C2F20001086040F2BC01C2F20001F7
:101F7000086040F2B001C2F20001086049F69A1010
:101F8000C3F679702090FFE74AF68060C0F6000043
:101F90001890C06980470A2005F0ACFA40F2A8000A
:101FA000C2F200000F90408808F0E2FC189989689E
:101FB00008F05EFD014618980891008808F0D8FCEA
:101FC0000146089808F0DEFB01460F9840F2BC027B
:101FD000C2F2000210921160808808F0C9FC189AC1
:101FE0000146109809910168506892680A9208F0B9
:101FF000C9FB0146099808F03BFD0A9908F038FD35
:10200000014618980B91008808F0B2FC01460B9825
:1020100008F0B8FB1F901F994FF2C350C3F6A87089
:1020200008F0F2FD08F0EAFA4CF2F432CEF20812AF
:102030004CF2D163CBF6717308F042F80022002312
:10204000C4F2390307F094FF07F060FF1F9040F2DD
:10205000B000C2F200000E9000681E901E980C9016
:102060001F984CF6C041C3F6CC41149108F000FD16
:1020700001460C980D9149F69A11C3F679711591A4
:1020800008F0F6FC0D9908F0E5FA0E9A01460F9853
:102090001E911E991160008808F06AFC18994A6820
:1020A0001192CA681392096908F0E2FC109902467D
:1020B00011981292096808F065FB0146129808F021
:1020C000D7FC139908F0C6FA14991D9040F2B40099
:1020D000C2F20000199000681C901C9816901D9880
:1020E00008F0C6FC159902461698179208F0C0FC35
:1020F000179908F0AFFA1899024619981C921C9A81
:1021000002600068496908F023FB60B9FFE74AF6FE
:10211000A460C0F600008068C068826840F60D6068
:102120000321904725E040F2B400C2F200000068AD
:102130004AF68061C0F60001896908F002FB60B9C7
:10214000FFE74AF6A460C0F600008068C0688268B5
:1021500040F60D60042190470AE04AF6A460C0F6FC
:1021600000008068C068C16840F60D608847FFE7DE
:10217000FFE74AF68061C0F6000106914868896869
:10218000029140F2BC01C2F20001096808F0FAFABB
:102190000146029808F06CFC1B9040F2B800C2F2B5
:1021A0000000059000681A901A9803901B984CF64E
:1021B000C041C3F6CC4108F05BFC01460398049192
:1021C00049F69A11C3F6797108F052FC049908F0A7
:1021D00041FA0599024606981A921A9A0A60096805
:1021E000079180684CF6CD41C3F68C7108F040FC35
:1021F0000146079808F0ACFA60B9FFE74AF6A46018
:10220000C0F600008068C068826840F60F60032155
:1022100090472EE040F2B800C2F200000068019042
:102220004AF68060C0F60000806846F26661C3F638
:10223000667108F01DFC0146019808F082FA60B949
:10224000FFE74AF6A460C0F600008068C0688268B4
:1022500040F60F60042190470AE04AF6A460C0F6F9
:1022600000008068C068C16840F60F608847FFE7DB
:10227000FFE789E680B582B001900020009040F22F
:10228000B020C2F20000006860B1FFE740F2B02069
:10229000C2F200000068019900231A4606F0D2F944
:1022A0000090FFE7009802B080BD000080B582B0CA
:1022B000642005F01FF906F065F840F2D001C2F283
:1022C00000010191886104F023FF0199486102B087
:1022D00080BD000040F2B400C2F200000068704708
:1022E00040F2B000C2F200000068704740F2B8004F
:1022F000C2F200000068704780B588B04AF6D0602E
:10230000C0F600000068804740F2D000C2F2000032
:1023100002903021FEF700F94FF4967005F0EAF8CC
:10232000029801F04BF869460020069048600120B1
:102330000790086045F2B110C0F600004AF6E3715C
:10234000C0F600014FF4007205920523039306F0D6
:10235000B3FD039B069A079869464A60086043F6F6
:102360006160C0F600004AF6F171C0F600014FF45A
:10237000807206F0A1FD0698694648600220086058
:1023800043F28500C0F600004BF20C01C0F60001DC
:102390004FF4806204924FF4FA7306F08DFD049AB4
:1023A000079B0698694648600320086043F2B11015
:1023B000C0F600004BF21801C0F6000106F07CFDEB
:1023C000059A069B079869464B60086044F28D3079
:1023D000C0F600004AF6FE71C0F600010A2306F0BE
:1023E0006BFD069B079869464B60086041F64D708F
:1023F000C0F600004AF6D871C0F60001802206F04F
:102400005BFD08B080BD000080B582B00120019066
:10241000072003F0E7FF4AF6D060C0F60000009006
:10242000C06800688047009800690068804701988C
:1024300002B080BD83B0029001918DF80320029814
:102440008006019940EA01209DF80310084403B07A
:102450007047000083B00290019100200090029824
:10246000052852D8FFE74AF6C060C0F600000078A1
:1024700048F20001C1F6FF01084301990860019983
:10248000012048600298052804D1FFE70199002047
:10249000886037E0019904208860029800EB4001D1
:1024A00040F20000C2F2000050F82110019A1173AE
:1024B000029901EB410150F82110090A019A517368
:1024C000029901EB410100EB810149884901019A20
:1024D0009173029901EB410100EB8101496801F020
:1024E0001F03019A917B19439173029901EB4101FA
:1024F00000EB81008068002818BF0120C00101990D
:10250000C873FFE701200090FFE7009803B0704711
:1025100086B00590049100208DF80F000290059977
:10252000086820F0020008600599086840F0010082
:102530000860FFE7059841680020C907019041B98C
:10254000FFE702984FF6FF71401A18BF0120019073
:10255000FFE70198C00720B1FFE702980130029021
:10256000E8E705984068C007002800F08380FFE78F
:10257000049842780599086802F0010220F0800072
:1025800040EAC2100860049882780599086802F051
:10259000010220F0400040EA821008600498C278EE
:1025A0000599086802F0010220F0200040EA42107C
:1025B0000860049802790599086802F0010220F089
:1025C000100040EA021008600498427905990868F2
:1025D00002F0010220F0080040EAC20008600498FE
:1025E00082790599086802F0010220F0040040EAAF
:1025F000820008600498007800F001020599C8691B
:1026000020F0804040EA8270C86104980278059901
:10261000C869520862F3DF70C8610599086820F044
:102620000100086000200290FFE705984168002043
:10263000C907009041B1FFE702984FF6FF71401AB9
:1026400018BF01200090FFE70098C00720B1FFE706
:10265000029801300290E8E705984068C00720B171
:10266000FFE700208DF80F0003E001208DF80F0038
:10267000FFE703E000208DF80F00FFE79DF80F0053
:1026800006B0704786B00590049100208DF80F00C9
:1026900002900599086820F0020008600599086812
:1026A00040F001000860FFE7059841680020C90775
:1026B000019041B9FFE702984FF6FF71401A18BF29
:1026C00001200190FFE70198C00720B1FFE70298C1
:1026D00001300290E8E705984068C007002856D00E
:1026E000FFE704980088421E0599C86962F30B0051
:1026F000C861049882780599C86902F0030220F045
:10270000407040EA0260C8610498C2780599C869BF
:1027100002F00F0220F4702040EA0240C8610498E1
:1027200002790599C86902F0070220F4E00040EA46
:102730000250C8610599086820F001000860002077
:102740000290FFE7059841680020C907009041B159
:10275000FFE702984FF6FF71401A18BF0120009062
:10276000FFE70098C00720B1FFE702980130029010
:10277000E8E705984068C00720B1FFE700208DF822
:102780000F0003E001208DF80F00FFE703E00020B9
:102790008DF80F00FFE79DF80F0006B070470000AE
:1027A00081B00090009900204870009988700099CD
:1027B000C870009908710099487100998871009952
:1027C000087001B07047000087B0069005910020A6
:1027D00004900598C1780120884004900699D1F8AA
:1027E000000240F00100C1F80002049A0699D1F8F5
:1027F0001C029043C1F81C02059800790146039120
:1028000020B1FFE70398012830D05FE0049A0699D1
:10281000D1F80C029043C1F80C02059A908900048B
:102820000699D27801EBC201C1F8400205990A89E4
:102830000698C97800EBC101D1F840021043C1F8F5
:102840004002059A508900040699D27801EBC20132
:10285000C1F844020599CA880698C97800EBC101FD
:10286000D1F844021043C1F8440230E0049A0699BA
:10287000D1F80C021043C1F80C02059AD08800046C
:102880000699D27801EBC201C1F8400205990A8984
:102890000698C97800EBC101D1F840021043C1F895
:1028A0004002059A508900040699D27801EBC201D2
:1028B000C1F8440205998A890698C97800EBC101DC
:1028C000D1F844021043C1F8440200E0FFE7059844
:1028D00040780146029120B1FFE70298012808D014
:1028E0000FE0049A0699D1F804029043C1F804025B
:1028F00008E0049A0699D1F804021043C1F80402D2
:1029000000E0FFE7059880780146019120B1FFE7DC
:102910000198012808D00FE0049A0699D1F8140212
:102920009043C1F8140208E0049A0699D1F8140201
:102930001043C1F8140200E0FFE705980078014653
:10294000009160B1FFE70098012810D1FFE7049AD9
:102950000699D1F81C021043C1F81C0208E0049A41
:102960000699D1F81C029043C1F81C0200E0FFE771
:102970000699D1F8000220F00100C1F8000207B06A
:102980007047000083B00290019101980138014620
:102990000091102843D80099DFE801F00909090DDA
:1029A0000914181D412226412A2E32363A00029976
:1029B0000420486034E00299042048600299002015
:1029C00088612DE002990120886029E002994FF486
:1029D0008070886024E002994FF4803088601FE0A6
:1029E00002990820C8601BE002991020C86017E017
:1029F00002990820086113E00299102008610FE095
:102A00000299082048600BE002991020486007E016
:102A1000029940F20110C0F20100886000E0FFE777
:102A200003B0704784B00390029100208DF8070036
:102A30000298013801460091102800F2BB800099ED
:102A4000DFE801F00910171E2D343B4249575E653F
:102A5000737A81889D000398806900F001008DF8E9
:102A60000700ABE003988069C0F340008DF80700D1
:102A7000A4E003988069C0F380008DF807009DE012
:102A8000039880690009400720B1FFE701208DF815
:102A9000070003E000208DF80700FFE78EE00398B1
:102AA0004068C0F380008DF8070087E003988068D5
:102AB00000F001008DF8070080E003988068C0F303
:102AC00000208DF8070079E003988068C0F300408B
:102AD0008DF8070072E00398C068800720B1FFE717
:102AE00001208DF8070003E000208DF80700FFE7C4
:102AF00064E00398C068C0F3C0008DF807005DE093
:102B00000398C068C0F300108DF8070056E00398E2
:102B10000069800720B1FFE701208DF8070003E07E
:102B200000208DF80700FFE748E003980069C0F334
:102B3000C0008DF8070041E003980069C0F3001061
:102B40008DF807003AE003984068C0F3C0008DF8A4
:102B5000070033E0039840684008C00730B9FFE73A
:102B6000039840680009C00720B1FFE701208DF8F5
:102B7000070003E000208DF80700FFE71EE0039840
:102B80008068800EC00760B9FFE703988068C00EB8
:102B9000C00730B9FFE703988068000FC00720B175
:102BA000FFE701208DF8070003E000208DF8070003
:102BB000FFE703E000208DF80700FFE79DF807001E
:102BC00004B0704783B0029001918DF803209DF806
:102BD000030030B1FFE7019A029948691043486148
:102BE00005E0019A0299486990434861FFE703B004
:102BF0007047000082B001900020009001980068AA
:102C000020F07C4040F60101C0F2772188420DD1CE
:102C1000FFE70198007BFF2807D1FFE70198407B81
:102C200018B9FFE701200090FFE7FFE7009802B026
:102C30007047000080B584B003908DF80B100192AE
:102C400003989DF80B1000EB0110D0F8B001C0F311
:102C50008000019908720198007A0146009120B124
:102C6000FFE7009801280BD015E003989DF80B10A2
:102C700000EB0110D0F8B001400D019908600BE0A5
:102C800003989DF80B1000EB0110D0F8B001C008BC
:102C90000199486000E0FFE703989DF80B1000EBF6
:102CA0000110D0F8B001C0F34000019948720398B8
:102CB0009DF80B1000EB0110D0F8B40100F00F00EC
:102CC0000199887203989DF80B1000EB0110D0F861
:102CD000B401000A0199C87403989DF80B1000EB29
:102CE0000110D0F8B8010199C87203989DF80B1033
:102CF00000EB0110D0F8B801000A0199087303989D
:102D00009DF80B1000EB0110D0F8B801000C0199F0
:102D1000487303989DF80B1000EB0110D0F8B80130
:102D2000000E0199887303989DF80B1000EB0110B9
:102D3000D0F8BC010199C87303989DF80B1000EB03
:102D40000110D0F8BC01000A0199087403989DF89D
:102D50000B1000EB0110D0F8BC01000C0199487475
:102D600003989DF80B1000EB0110D0F8BC01000E89
:102D70000199887403989DF80B1000F00DF904B0C8
:102D800080BD000084B00390029104208DF80700FC
:102D900003988068800EC00720B1FFE700208DF8FF
:102DA000070019E003988068C00EC00720B1FFE754
:102DB00001208DF807000EE003988068000FC0071F
:102DC00020B1FFE702208DF8070003E004208DF812
:102DD0000700FFE7FFE7FFE79DF80700042800F082
:102DE0008480FFE703989DF8071000EB0111D1F8EC
:102DF000800100F00100C1F880010298027A039876
:102E00009DF8071000EB0111D1F8800102F00102DA
:102E100020F0040040EA8200C1F880010298007AA4
:102E20000146009120B1FFE70098012810D01DE075
:102E30000298026803989DF8071000EB0111D1F881
:102E400080016FF35F5040EA4250C1F880010EE00C
:102E50000298426803989DF8071000EB0111D1F821
:102E6000800140EAC200C1F8800100E0FFE702985B
:102E7000427A03989DF8071000EB0111D1F8800108
:102E800002F0010220F0020040EA4200C1F8800195
:102E90000298827A03989DF8071000EB0111D1F88F
:102EA000840162F30300C1F884010298D0F80B009A
:102EB00003999DF8072001EB0211C1F888010298DF
:102EC000D0F80F0003999DF8072001EB0211C1F81B
:102ED0008C0103989DF8071000EB0111D1F88001D7
:102EE00040F00100C1F88001FFE79DF8070004B041
:102EF0007047000080B588B08DF81F000691002053
:102F000005909DF81F1046F20040C4F200006A468A
:102F1000FFF790FE9DF80900D0BBFFE79DF8080081
:102F2000012807D1FFE7069901204860019806991A
:102F3000086006E00699002048600098069908603D
:102F4000FFE79DF80A00069988609DF80B00069936
:102F500008739DF80C00069948739DF80D000699BA
:102F600088739DF80E000699C8739DF80F000699A6
:102F700008749DF81000069948749DF81100069990
:102F800088749DF812000699C87401200590FFE727
:102F9000059808B080BD000083B002908DF807103E
:102FA0009DF807000146009120B1FFE70098012835
:102FB00004D007E002992020C86004E00299202094
:102FC000086100E0FFE703B07047000080B594B0EF
:102FD000139013984068012852D1FFE74AF6C06069
:102FE000C0F60000C06802691398CF2190470128FD
:102FF00008D1FFE74AF6C060C0F60000C06840692B
:1030000080473CE04AF6C060C0F6000080688268F5
:103010001398CF219047012824D1FFE74BF23701C5
:10302000C0F600014BF24402C0F600024BF23E0330
:10303000C0F6000303A80190FDF7ECF90198FDF735
:10304000FFF9019B02904AF6C060C0F6000080685C
:10305000D0F80CC00298694608600620CF210222F1
:10306000E0470BE01398FFF7C5FD012805D1FFE706
:1030700004F0D6FBFFE700BFFDE7FFE7FFE7FFE750
:1030800014B080BD80B588B00790079818B1FFE7ED
:103090000798009003E04FF4FA700090FFE7009863
:1030A000069000220592049203920292019240201F
:1030B000142105F003FA40F2A021C2F200010860D9
:1030C000FFE740F2A020C2F200000068069A01A9C2
:1030D00005F084FC01280AD1FFE701A8FFF776FF7D
:1030E00040F2D001C2F200010120C86206E040F2C5
:1030F000D001C2F200010020C862FFE7E1E7000052
:1031000080B588B007900020069007988068002856
:103110004BD3FFE707988068082846D8FFE7079851
:1031200080688DF80E0000208DF80D00079840682B
:10313000012807D1FFE701208DF80C0007980068EF
:10314000029006E000208DF80C00079800680190BE
:10315000FFE70798007B8DF80F000798407B8DF8FC
:1031600010000798807B8DF811000798C07B8DF8C0
:1031700012000798007C8DF813000798407C8DF8AA
:1031800014000798807C8DF815000798C07C8DF896
:10319000160046F20040C4F2000001A9FFF7F2FD5C
:1031A000043818BF01200690FFE7069808B080BDDC
:1031B00080B588B00790079818B1FFE7079800908E
:1031C00002E001200090FFE700980690002205929F
:1031D00004920392029201924020142105F06EF9AC
:1031E00040F2B021C2F2000108604AF66870C0F6F1
:1031F000000040688047FFE740F2B020C2F20000C4
:10320000006801A94FF0FF3205F0E8FBFFE74AF63E
:10321000D060C0F600004068016801A88847012816
:1032200004D0FFE7069804F065F9F0E7E4E7000052
:1032300081B08DF803009DF8030000F0030241F215
:103240000401C4F20201086820F4404040EA8230E0
:1032500008609DF803200868920862F31C700860FB
:1032600001B0704781B08DF803009DF8032041F252
:103270000401C4F20201086802F00F0220F0F0001D
:1032800040EA0210086001B07047000081B08DF87C
:1032900003009DF8032041F20401C4F20201086812
:1032A00002F0070220F4E06040EA0220086001B06A
:1032B0007047000081B08DF803009DF8032041F2B3
:1032C0000401C4F20201086802F0070220F4605011
:1032D00040EAC220086001B07047000081B08DF85C
:1032E00003009DF80300012809D1FFE741F25401D2
:1032F000C4F20201086840F03000086008E041F2C2
:103300005401C4F20201086820F030000860FFE7B1
:1033100001B0704782B08DF807008DF806109DF857
:10332000070001460091042844D80099DFE801F025
:10333000030E1D2C37009DF8062041F20001C4F257
:103340000201086862F30000086034E09DF806207E
:1033500041F20001C4F20201086802F0010220F407
:10336000803040EA0240086025E09DF8062041F2E6
:103370000001C4F20201086802F0010220F080702E
:1033800040EA0260086016E09DF8062041F2200144
:10339000C4F20201086862F3000008600BE09DF8C7
:1033A000062041F22401C4F20201086862F3000021
:1033B000086000E0FFE702B07047000080B58EB003
:1033C0000D90002001900C900B900A9009900890AD
:1033D000079006900590049000F008FB8DF80F0010
:1033E0009DF80F000146029140B1FFE702980128C5
:1033F00025D0FFE70298022828D0C1E041F254000E
:10340000C4F202000068400AC00780B1FFE741F241
:103410003000C4F202000068400EC00738B1FFE778
:103420000D9946F60040C0F2DC20086006E00D99D8
:1034300041F20020C0F27A000860FFE7A7E00D9992
:1034400042F20040C0F2F4000860A0E041F2040043
:10345000C4F202000068C0F300400A9041F22C0060
:10346000C4F2020001680020B0EBD17F47D1FFE732
:1034700041F20400C4F202000168C1F383410C91DF
:103480000068C0F341700B900B9820B9FFE70C98CF
:103490000F2807D1FFE70B990C9800EB01100130C2
:1034A0000C9003E00C9802300C90FFE70A9848B9A2
:1034B000FFE70C9840F60011C0F23D0148430D991A
:1034C00008601BE041F20400C4F202000068400CF6
:1034D000C00748B1FFE70C9841F20021C0F27A0121
:1034E00048430D99086008E00C9842F20041C0F290
:1034F000F40148430D990860FFE7FFE73FE041F220
:103500002C00C4F202000168C1F3031106910168A6
:10351000C1F308210591006800F0070004900A98A3
:1035200030B9FFE740F60010C0F23D00079015E00B
:1035300041F20400C4F202000068400CC00730B140
:10354000FFE741F20020C0F27A00079005E042F266
:103550000040C0F2F4000790FFE7FFE707980599E5
:10356000A0FB0101069ADDF810C0012303FA0CF359
:103570005A430023FCF7D6FE0D990860FFE706E0EA
:103580000D9941F20020C0F27A000860FFE741F295
:103590000400C4F202000168C1F303110991099A01
:1035A0004AF63471C0F60001895C08910D9A1168E1
:1035B000089BD94051600168C1F302210991099A21
:1035C0004AF62471C0F60001895C08910D9A516891
:1035D000089BD940D1600168C1F3C2210991099AC1
:1035E0004AF62C71C0F60001895C08910D9A516869
:1035F000089BD94091600168C1F300710991099954
:103600000068C0F3813040EA8100099009994AF6C8
:103610001C70C0F60000405C08900D998868089AFC
:10362000B0FBF2F008610EB080BD000082B00190E6
:1036300000208DF80300BDF8060041F20001C4F23D
:1036400002014058019901F01F01C840C00720B98C
:10365000FFE700208DF8030003E001208DF8030050
:10366000FFE79DF8030002B07047000080B584B00A
:10367000002003908DF80B00FFE71120FFF7D6FF25
:10368000014600200129019008D0FFE7039900209E
:10369000B1F5405F38BF01200190FFE70198C007F6
:1036A00020B1FFE7039801300390E6E71120FFF710
:1036B000BDFF012804D0FFE700208DF80B0003E0D8
:1036C00001208DF80B00FFE79DF80B0004B080BDD2
:1036D00082B001908DF803109DF8030001280FD1EE
:1036E000FFE7019800F01F02012101FA02F3010C2B
:1036F00041F20002C4F202028858184388500EE0DA
:10370000019800F01F02012101FA02F3010C41F2BD
:103710000002C4F20202885898438850FFE702B0C2
:103720007047000083B08DF80B008DF80A10002060
:1037300001908DF803009DF80B00B0B9FFE741F24E
:103740000401C4F20201086820F48030086040F6E9
:103750000010C0F23D00019041F23001C4F20201BC
:10376000086840F00070086029E041F20401C4F2EA
:103770000201086840F4803008609DF80B000128C1
:103780000ED1FFE742F20040C0F2F400019041F296
:103790000401C4F20201086820F4003008600DE062
:1037A00041F20020C0F27A00019041F20401C4F21B
:1037B0000201086840F400300860FFE7FFE7019865
:1037C00048F26121C0F23B0188420CD3FFE7019827
:1037D00044F63F31C0F24C01884204D8FFE7002094
:1037E0008DF8030068E0019845F68101C0F24F01B1
:1037F00088420CD3FFE7019845F60F61C0F25F01E4
:10380000884204D8FFE701208DF8030053E00198B7
:1038100043F29551C0F2770188420CD3FFE701983B
:1038200041F60F31C0F27F01884204D8FFE7022041
:103830008DF803003EE0019841F61131C0F27F019E
:1038400088420CD3FFE701984BF61F41C0F2BE013E
:10385000884204D8FFE703208DF8030029E001988F
:1038600046F62931C0F2EE0188420CD3FFE70198F9
:103870004DF22F71C0F23D11884204D8FFE70420B9
:103880008DF8030014E001984DF23171C0F23D1142
:1038900088420CD3FFE701984EF6D711C0F2DC1135
:1038A000884204D8FFE705208DF80300FFE7FFE713
:1038B000FFE7FFE7FFE7FFE79DF80A0000F00F02D0
:1038C00041F20401C4F20201086820F4701040EAD9
:1038D000824008609DF80A0000F03002086820F07D
:1038E000C04040EA426008609DF8032041F22C018C
:1038F000C4F20201086802F0070220F0E06040EA2A
:103900000260086003B0704741F20001C4F2020196
:10391000086840F001000860FFE741F20000C4F2CF
:1039200002000068C0F34000012801D0FFE7F4E77F
:1039300041F20401C4F20201086820F003000860AB
:10394000FFE741F20400C4F202000068800880072B
:1039500008B1FFE7F5E741F20001C4F2020108688F
:103960004FF6FF72CFF6F2621040086041F2040198
:10397000C4F202010020086041F22C01C4F20201ED
:1039800041F61070086041F23001C4F202014FF4B8
:103990008010086041F20801C4F202014FF41F00D8
:1039A0000860704781B08DF803009DF8032041F254
:1039B0000401C4F20201086862F30100086000BF5C
:1039C00000BF00BF00BF00BF00BF00BF00BF00BFFF
:1039D00000BF00BF00BF00BF00BF00BF00BF00BFEF
:1039E00000BF00BF00BF01B07047000041F20400FB
:1039F000C4F202000068C0F38100704780B582B055
:103A000001904AF6A460C0F6000000688047FFE716
:103A10004AF6A460C0F6000040688047F8E700005E
:103A200082B001908DF803109DF803200199086879
:103A300062F30000086002B07047000081B000909F
:103A40000099002008600099486000990881009959
:103A50004881009908730099487300998873009908
:103A6000C873009908740099487401B07047000049
:103A700082B001908DF803108DF802200198D0F8E3
:103A8000A400000EC00740B9FFE70199D1F8A400D7
:103A900040F08070C1F8A400FFE79DF80300012802
:103AA0000BD1FFE79DF802200199D1F8A00020F08A
:103AB000FF001044C1F8A0006AE09DF8030002284E
:103AC0000CD1FFE79DF802200199D1F8A00020F465
:103AD0007F4040EA0220C1F8A00058E09DF80300B2
:103AE00003280CD1FFE79DF802200199D1F8A0002E
:103AF00020F47F0040EA0240C1F8A00046E09DF8B3
:103B0000030004280CD1FFE79DF802200199D1F8A9
:103B1000A00020F07F4040EA0260C1F8A00034E03D
:103B20009DF8030005280BD1FFE79DF802200199BD
:103B3000D1F8A40020F0FF001044C1F8A40023E055
:103B40009DF8030006280CD1FFE79DF8022001999B
:103B5000D1F8A40020F47F4040EA0220C1F8A4007C
:103B600011E09DF8030007280CD1FFE79DF8022023
:103B70000199D1F8A40020F47F0040EA0240C1F886
:103B8000A400FFE7FFE7FFE7FFE7FFE7FFE7FFE747
:103B900002B0704782B001900091019908684BF61D
:103BA000EF7210400860009802890199086810437C
:103BB00008600098427C0199086802F0030220F432
:103BC000405040EA023008600098C27B01990868C2
:103BD00002F0030220F4406040EA8220086000986E
:103BE000827B0199086802F0030220F4407040EAE9
:103BF000022008600098427B0199086802F00102E7
:103C000020F0800040EAC21008600098027B019911
:103C1000086802F0010220F0400040EA82100860CB
:103C20000098027C0199086802F0010220F020004F
:103C300040EA421008600098408901994860009865
:103C4000006801998860009840680199C86002B0D6
:103C50007047000082B0019000200090019A116826
:103C600021F00101116001990860019948600199F2
:103C700088600199C86001980090009800F49F60E6
:103C8000C008802817D8FFE79DF8000008384CF6D8
:103C9000CD41CCF6CC41A0FB01016FF0030000EA5E
:103CA00091010F2000FA01F20421C4F20201086818
:103CB000104308601FE0009800F49F60C00890283F
:103CC00018D8FFE79DF8000008384CF6CD41CCF637
:103CD000CC41A0FB01016FF0030000EA91010F202D
:103CE00000FA01F240F20441C4F2020108681043F4
:103CF0000860FFE7FFE702B07047000080B50C20C6
:103D0000012104F015FB80BD80B586B040F20011A2
:103D1000C2F2000145F60000C4F20000086040F65F
:103D20000040C4F2010000904FF4804100F0FEF921
:103D300000980221019100F003FA01200590002172
:103D4000029104F0F5FA0198029904F0F1FA05994C
:103D5000042004F0EDFA0299052004F0E9FA029932
:103D60000D2004F0E5FA02990E2004F0E1FA029920
:103D70000F2004F0DDFA0299102004F0D9FA132084
:103D8000642104F0D5FA1A20039002F067FB014683
:103D9000039801F07F0104F0CBFA1D20049002F09B
:103DA0005DFB0146049841F0200104F0C1FA05983A
:103DB00006B080BD80B582B08DF807009DF8071071
:103DC000032004F0B5FA02B080BD000080B582B0D7
:103DD0008DF807009DF80710012004F0A9FA02B041
:103DE00080BD000080B582B08DF807009DF80710F7
:103DF000022004F09DFA02B080BD000080B582B0C0
:103E00008DF807008DF806109DF8070004309DF826
:103E10000610C0B204F08CFA02B080BD80B50C2050
:103E2000002104F085FA80BD80B582B01A2001908F
:103E300002F014FB0146019801F07F0104F078FACA
:103E400002B080BD80B582B01A20019002F006FB5E
:103E50000146019841F0800104F06AFA02B080BD89
:103E600080B584B00390039818B1FFE703980190E0
:103E700002E032200190FFE701980290FFE70298EC
:103E800003F038FBFBE7000081B000900098C0F31E
:103E9000112001B07047000080B582B00020019071
:103EA0004AF66870C0F60000C16898208847019003
:103EB000019802B080BD000080B584B003908DF8F9
:103EC0000B10002001904AF68070C0F60000426896
:103ED00003989DF80B109047012810D1FFE7039934
:103EE0008889897B40EA0140009000984FF68071F4
:103EF000884203D1FFE701200190FFE7FFE7019827
:103F000004B080BD80B58AB0099000200890079069
:103F1000FFE7079804283ED8FFE7079800EB400129
:103F200040F20000C2F2000050F8210009998842D6
:103F30002CD1FFE7079800EB400140F20000C2F2ED
:103F4000000000EB81008068F8B1FFE700200690D8
:103F50000590049003900290079901EB410240F212
:103F60000001C2F2000101EB82018860079802A9FA
:103F70000191FEF76FFA01984AF6A461C0F60001BC
:103F80008968496888470890FFE704E0FFE70798D9
:103F900001300790BDE708980AB080BD80B58EB0AB
:103FA00000200D900C90FFE70C98042827D8FFE71D
:103FB0000C9800EB400140F20000C2F2000000EB60
:103FC00081008068012815D1FFE700200B900A903E
:103FD0000990089007900C9807A90191FEF73AFA0A
:103FE00001984AF6A461C0F60001896849688847CB
:103FF0000D90FFE7FFE70C9801300C90D4E70D9887
:10400000A8B9FFE700200690059004900390029065
:10401000052002A90091FEF71DFA00984AF6A46156
:10402000C0F600018968496888470D90FFE70D9840
:104030000EB080BD80B58AB009900891002007902D
:104040000690FFE70698042855D8FFE7069800EB8E
:10405000400140F20000C2F2000050F8210009992E
:10406000884243D1FFE7069800EB400140F2000090
:10407000C2F2000000EB81004068089988420DD12F
:10408000FFE7069800EB400140F20000C2F200009A
:1040900000EB81008068012827D0FFE70020059011
:1040A00004900390029001900899069800EB40025A
:1040B00040F20000C2F2000000EB8202516006995B
:1040C00001EB410100EB810101208860069801A904
:1040D0000091FEF7BFF900984AF6A461C0F600010E
:1040E0008968496888470790FFE704E0FFE706987A
:1040F00001300690A6E707980AB080BD80B582B06F
:1041000040F2C401C2F2000168464160002303602E
:1041100043F6FD10C0F600004AF6CC71C0F600016F
:10412000802204F0C9FE02B080BD000082B0019080
:10413000ADF80210BDF802000199486102B0704765
:1041400082B00190ADF80210BDF80200019908613B
:1041500002B0704781B0009000994FF6FF70086080
:104160000099002088710099087100990420487115
:1041700000990120C87101B07047000084B003901D
:10418000029102980068ADF8000002988079032837
:1041900004D1FFE70020ADF802002FE002988079FB
:1041A000E0B9FFE70298407900F00F00ADF8020097
:1041B00002984079182805D1FFE7BDF8000003995F
:1041C00008610AE002984079282805D1FFE7BDF888
:1041D000000003994861FFE7FFE70EE002990A79C2
:1041E0008879C97900F0080002F00402104401F057
:1041F00003010844ADF80200FFE7FFE79DF8000067
:1042000040B3FFE700200190FFE70198072820D87E
:10421000FFE70199BDF80000C840C007A0B1FFE763
:10422000019881000F2000FA01F203990868904379
:104230000860BDF802000199890000FA01F20399B3
:10424000086810430860FFE7FFE70198013001901C
:10425000DBE7FFE7BDF80000B0F5807F2CDBFFE770
:104260009DF80100ADF8000000200190FFE70198E3
:10427000072820D8FFE70199BDF80000C840C00713
:10428000A0B1FFE7019881000F2000FA01F2039925
:10429000486890434860BDF802000199890000FA1F
:1042A00001F20399486810434860FFE7FFE701986F
:1042B00001300190DBE7FFE704B0704782B0019066
:1042C000ADF8021000208DF80100BDF80200019940
:1042D00089680140884204D0FFE700208DF8010082
:1042E00003E001208DF80100FFE79DF8010002B016
:1042F0007047000085B004908DF80F109DF81300F2
:104300000021C4F2010108430290BDF812008DF8AB
:1043100003000498000A8DF8020004988DF801004B
:104320009DF802009DF803100844C0F120014FF0F1
:10433000FF308840019001989DF802109DF80320FD
:104340001144C1F12001C840019001989DF803106B
:10435000C840019001989DF8031088400190019A8F
:1043600002990868904308609DF80F0058B1FFE774
:104370009DF801009DF8031000FA01F20299086807
:1043800010430860FFE705B07047000080B584B0B7
:104390000390039818B1FFE70398019002E005200D
:1043A0000190FFE701980290FFE702984FF47A71BD
:1043B000484344F6D351C1F26201A0FB01108009C9
:1043C00003F098F8F1E7000082B001908DF8031037
:1043D0008DF802209DF8020038B9FFE79DF8030030
:1043E00000F0FE000199086106E09DF8030040F02E
:1043F000010001990861FFE702B0704782B00190A7
:104400008DF803109DF803200199086802F001025D
:1044100020F4806040EA8220086002B0704700000B
:1044200082B001908DF803109DF80300B0FA80F07F
:1044300042090199086820F0800040EAC210086033
:1044400002B0704781B0009000980069C0B201B01E
:104450007047000082B001908DF803109DF80300B2
:104460000199086102B0704782B001908DF8031085
:104470009DF803200199086862F30000086002B00B
:104480007047000082B001900091BDF8000080F4F8
:104490005F4042F2FF010843019948619DF8000026
:1044A0008007002805D5FFE70198406901988069D9
:1044B000FFE79DF80000C006002808D5FFE7019837
:1044C00040690199086840F001000860FFE702B008
:1044D0007047000085B00390029100200190009089
:1044E0000298000F0190029820F07F4002900198FE
:1044F00020B9FFE703984069009006E0BDF80A0084
:104500000290039880690090FFE7009802990842A2
:1045100004D0FFE701208DF8130003E000208DF8A0
:104520001300FFE79DF8130005B0704782B00190BB
:104530008DF803109DF803200199086802F001022C
:1045400020F0400040EA8210086002B0704700008E
:1045500080B58AB009908DF823100792002006904C
:10456000ADF81600ADF814000999086820F00100B4
:1045700008606846FEF722FF099845F20041C4F240
:104580000001884208D0FFE7099845F60001C4F20F
:104590000001884203D1FFE703980690FFE70698E1
:1045A0004DF68361C4F21B31A0FB0110800CADF805
:1045B0001600BDF816200999486862F307004860A4
:1045C000079848F2A061C0F20101884232D8FFE7A3
:1045D000069807994900B0FBF1F0ADF81400BDF85A
:1045E0001400032804DCFFE70420ADF81400FFE703
:1045F000BDF814200999C86962F30B00C8610999D4
:10460000C86920F40040C861BDF816000130402898
:1046100006DBFFE70999086A40F03F00086208E0FE
:10462000BDF81600421C0999086A62F30500086289
:10463000FFE764E09DF8230070B9FFE7069807994B
:1046400001EB4101B0FBF1F0ADF814000999C86924
:1046500020F48040C8610DE0069807991922514363
:10466000B0FBF1F0ADF814000999C86940F480403E
:10467000C861FFE7BDF8140020B9FFE70120ADF8DD
:104680001400FFE7BDF814200999C86962F30B0014
:10469000C8610999C86940F40040C861079841F6AB
:1046A0008021C0F20601884214D8FFE7BDF8160049
:1046B0004FF49671484344F6BB11C0F20C21A0FBA5
:1046C0000101012000EBD1020999086A62F305009B
:1046D000086213E0BDF81600C0EB0010C00041F204
:1046E0006F21C0F28301A0FB0101012000EB510208
:1046F0000999086A62F305000862FFE7FFE70AB05C
:1047000080BD000080B586B00490ADF80E10029216
:104710000498006801210191FFF770FE0498006879
:1047200000F082FB01990498029B002200F090FBAC
:1047300030B1FFE704990D2008768DF817006EE080
:10474000049800688068C00BC00740B9FFE7049870
:1047500000689DF80E100122FFF736FE4DE0049828
:104760000068BDF80E1001F44071C909F031FFF77F
:1047700071FE0498029B0821012200F069FB30B110
:10478000FFE704990E2008768DF8170047E004989B
:1047900000689DF80E10FFF75DFE0498029B022151
:1047A000012200F055FB30B1FFE704990F20087695
:1047B0008DF8170033E0049800680221FFF762FECD
:1047C0000498006800F030FB0498029B012100224D
:1047D00000F03EFB30B1FFE704990D2008768DF81C
:1047E00017001CE004980068BDF80E1001F4407139
:1047F000C909F131FFF72EFEFFE70498029B022161
:10480000012200F025FB30B1FFE704990F20087664
:104810008DF8170003E000208DF81700FFE79DF8E2
:10482000170006B080BD000082B001908DF8031023
:104830009DF803200199086802F0010220F400604D
:1048400040EAC220086002B07047000080B584B022
:104850000290ADF8061000920298006800F0E4FAA9
:104860000298009B0121002200F0F2FA30B1FFE72C
:1048700002990D2008768DF80F003FE0029800683D
:104880008068C00BC00740B9FFE7029800689DF838
:1048900006100022FFF798FD1EE002980068BDF8A0
:1048A000061001F44071C909F031FFF7D3FD0298F9
:1048B000009B0821012200F0CBFA30B1FFE70299FA
:1048C0000E2008768DF80F0018E0029800689DF819
:1048D0000610FFF7BFFDFFE70298009B02210122AF
:1048E00000F0B6FA30B1FFE702990F2008768DF894
:1048F0000F0003E000208DF80F00FFE79DF80F0088
:1049000004B080BD80B586B004908DF80F10ADF86E
:104910000C2002939DF80F00012807D1FFE70498AF
:1049200000689DF80C10FFF795FD21E004980068E1
:104930009DF80D10FFF78EFD0498029B8021012247
:1049400000F086FA8DF807009DF8070048B1FFE7F0
:104950000498006800F072FA9DF807008DF81700BF
:104960000AE0049800689DF80C10FFF773FDFFE75C
:1049700000208DF81700FFE79DF8170006B080BDF6
:1049800080B586B084460A980998DDF820E0CDF815
:1049900010C08DF80F10ADF80C20ADF80A30ADF84E
:1049A0000800089804994860BDF808000499088137
:1049B00004980022027604980A9B0021C1F20201A9
:1049C00000F046FA20B1FFE701208DF817006CE1F6
:1049D000049800680021FFF727FF04980068012170
:1049E000FFF70CFD0498BDF80C100A9AFFF72EFF94
:1049F00040B1FFE70498006800F020FA02208DF82B
:104A0000170052E1049800680221FFF73BFD04986B
:104A10000A9B8021012200F01BFA40B1FFE70498B5
:104A2000006800F00BFA03208DF817003DE10498B0
:104A30009DF80F10BDF80A200A9BFFF763FF20B115
:104A4000FFE704208DF817002FE104980A9B8021CE
:104A5000012200F0FDF940B1FFE70498006800F082
:104A6000EDF905208DF817001FE10498BDF80C1032
:104A70000A9AFFF747FE40B1FFE70498006800F08C
:104A8000DDF906208DF817000FE1BDF808000128B8
:104A90000FD1FFE7049800680021FFF7AFFC0498EE
:104AA00000680221FFF7EEFC0498006800F0C6F9E8
:104AB00020E0BDF80800022810D1FFE70498006844
:104AC0000121FFF7B1FE049800680221FFF7DAFC2C
:104AD000049800680021FFF791FC0AE00498006840
:104AE0000121FFF78BFC049800680221FFF7CAFC44
:104AF000FFE7FFE7FFE7BDF808000128C0F2D1801B
:104B0000FFE7BDF80800032800F3AC80FFE7BDF81D
:104B1000080001281ED1FFE704980A9B40210022CB
:104B200000F096F940B1FFE70498006800F086F9BC
:104B300007208DF81700B8E004980068FFF782FCA2
:104B400008994A1C08920870BDF808000138ADF8B1
:104B5000080086E0BDF8080002282FD1FFE704987E
:104B60000A9B0421002200F073F940B1FFE704988A
:104B7000006800F063F908208DF8170095E00498AC
:104B8000006800F05BF904980068FFF75BFC089987
:104B90004A1C08920870BDF808000138ADF80800FA
:104BA00004980068FFF74EFC08994A1C08920870A8
:104BB000BDF808000138ADF8080051E004980A9BE0
:104BC0000421002200F044F940B1FFE70498006896
:104BD00000F034F909208DF8170066E004980068A9
:104BE00000210191FFF70AFC04980068FFF72AFCF6
:104BF000019A08994B1C08930870BDF80800013809
:104C0000ADF8080004980A9B042100F021F940B196
:104C1000FFE70498006800F011F90A208DF81700EA
:104C200043E00498006800F009F904980068FFF771
:104C300009FC08994A1C08920870BDF80800013860
:104C4000ADF8080004980068FFF7FCFB08994A1CBF
:104C500008920870BDF808000138ADF80800FFE7B9
:104C6000FFE71DE004980A9B4021002200F0F0F8C5
:104C700040B1FFE70498006800F0E0F80B208DF8E1
:104C8000170012E004980068FFF7DCFB08994A1C43
:104C900008920870BDF808000138ADF80800FFE779
:104CA00029E700208DF81700FFE79DF8170006B0F0
:104CB00080BD000080B584B0844608980798DDF870
:104CC00018E0CDF808C08DF80710ADF80420ADF855
:104CD0000230ADF80000069802994860BDF8000067
:104CE000029908810298002202760298089B00210E
:104CF000C1F2020100F0ACF820B1FFE701208DF80D
:104D00000F0073E0029800680021FFF78DFD029804
:104D1000BDF80410089AFFF799FD40B1FFE702982B
:104D2000006800F08BF802208DF80F005EE002981A
:104D300000680221FFF7A6FB0298089B8021012250
:104D400000F086F840B1FFE70298006800F076F8BE
:104D500003208DF80F0049E002989DF80710BDF878
:104D60000220089BFFF7CEFD20B1FFE704208DF85D
:104D70000F003BE0FFE7BDF8000001281EDBFFE766
:104D80000298089B8021012200F062F840B1FFE701
:104D90000298006800F052F805208DF80F0025E019
:104DA0000298006806994A1C06920978FFF752FBA0
:104DB000BDF800000138ADF80000DCE70298089B60
:104DC0000421012200F044F840B1FFE70298006896
:104DD00000F034F806208DF80F0007E00298006814
:104DE00000F02CF800208DF80F00FFE79DF80F0071
:104DF00004B080BD82B001908DF80310ADF80020A2
:104E00009DF803200199886802F0010220F4004017
:104E100040EAC2308860BDF800200199886862F3DA
:104E20000900886002B0704781B00090009908685E
:104E300040F48070086001B07047000081B00090BD
:104E40000099086840F40070086001B070470000E5
:104E500080B586B0049003910292019303980021DB
:104E6000C1F20201884215D1FFE7FFE7049800680C
:104E70000399FFF72FFB60B1FFE70198411E0191F5
:104E800030B9FFE70499122008768DF8170053E037
:104E9000ECE74DE0FFE7049800680399FFF71AFB81
:104EA000002844D1FFE79DF80800C007C8B1FFE71C
:104EB000049800684FF48061FFF70CFB80B1FFE7B6
:104EC00004980068FFF7BAFF049800684FF4806107
:104ED000FFF7D8FA0499112008768DF817002BE017
:104EE000FFE79DF808008007002814D5FFE7049825
:104EF00000681021FFF7EEFA60B1FFE70498006840
:104F000010210091FFF7BEFA0098049908768DF8F9
:104F1000170011E0FFE70198411E019130B9FFE74A
:104F20000499122008768DF8170005E0B3E7FFE733
:104F300000208DF81700FFE79DF8170006B080BD30
:104F400080B584B003908DF80B1000200190039879
:104F50000068FEF799FFADF80200BDF802004EF6BA
:104F6000FF21884208D0FFE7BDF802009DF80B1032
:104F70000143884203D1FFE701200190FFE7019838
:104F800004B080BD80B584B003908DF80B10002074
:104F9000019003980068FEF777FFADF80200BDF8B6
:104FA00002004EF6FF21884208D0FFE7BDF802005C
:104FB0009DF80B10014388420BD1FFE70398C068AE
:104FC0004FF6DA61884203D1FFE701200190FFE745
:104FD000FFE7019804B080BD80B596B0DDF860C0F1
:104FE00015908DF853108DF8522013939DF85200B0
:104FF0008DF80B000DF10B00019001301399189AF8
:10500000FBF73DFA019B15989DF85310189A013251
:10501000EC46CCF800204FF6DA6201F0A1FE16B0A3
:1050200080BD000080B582B0019000200090019A00
:105030004AF6A470C0F6000000EBC20150F832003E
:105040008988FFF73BF9012803D1FFE70120009091
:10505000FFE7009802B080BD80B582B00190019A50
:105060004AF6EC60C0F6000000EBC20150F83200D6
:105070008988FFF75BF802B080BD000080B582B080
:105080000190019A4AF6EC60C0F6000000EBC20104
:1050900050F832008988FFF753F802B080BD000055
:1050A00080B5A8B0279003208DF89B00FF208DF8D5
:1050B0009A0040208DF89900082000908DF8980003
:1050C0004AF6F851C0F600010DF113008522FBF7F6
:1050D000D6F90099279A00201061D0609060506046
:1050E0001060279B01225A60279A91604AF6A461BA
:1050F000C0F600018968097844F20002C0F6FF4258
:105100001143279A11600390FFE70398122845D8AE
:10511000FFE700208DF80B000398C0EBC0010DF1F4
:105120001300014440F2C800C2F200004A78C97876
:10513000805CC840C00720B1FFE702208DF80B005B
:1051400015E00398C0EBC0020DF113008118825CDA
:1051500040F2C800C2F20000805C8978C840C007F5
:1051600020B1FFE701208DF80B00FFE7FFE79DF876
:105170000B100398C0EBC0020DF11300024410792C
:105180005279013A01FA02F227990144C87A104390
:10519000C872FFE7039801300390B6E727981230F2
:1051A0000190019945F2AA50088028B080BD000006
:1051B00080B58CB00B900B9818B1FFE70B98089056
:1051C00002E005200890FFE708980A9040F2C0012D
:1051D000C2F2000100200860FFE740F2C000C2F206
:1051E00000000068052824D8FFE74AF6D060C0F622
:1051F00000008068016840F2C000C2F20000079021
:105200000068884707990B6840F2A422C2F20002A6
:105210000020D0540A6840F2C801C2F2000188544C
:10522000FFE740F2C001C2F20001086801300860E7
:10523000D3E70120069000210591032203F03EF9F7
:10524000059A0146069845F29433C2F200031960AC
:1052500069464A60086045F20D40C0F600004BF216
:105260002401C0F600014FF48072052303F024FEF0
:10527000FFE740F2C001C2F2000100200860FFE732
:1052800040F2C000C2F200000068052800F2BD80B4
:10529000FFE7002004908DF827004AF6D060C0F6A2
:1052A00000008068416840F2C000C2F2000000685F
:1052B00088470A984FF47A71484344F6D351C1F2B3
:1052C0006201A0FB0110800902F014F9049840F279
:1052D0009C21C2F200010860FFE740F29C20C2F26C
:1052E00000000068042834D8FFE74AF6D060C0F612
:1052F00000008068816840F29C20C2F200000068D3
:10530000884701280ED1FFE740F29C20C2F200003E
:105310000168012000FA01F19DF8270088438DF80B
:1053200027000DE040F29C20C2F20000016801203D
:1053300000FA01F19DF8270008438DF82700FFE7E8
:10534000FFE740F29C21C2F20001086801300860CA
:10535000C3E74AF6D060C0F600008068016840F2FA
:10536000C000C2F2000003900068884703999DF8CE
:1053700027000A6840F2A421C2F20001895C884239
:105380002DD1FFE740F2C000C2F20000026840F2F7
:10539000A420C2F20000805C40F2C801C2F2000109
:1053A000895C88421AD0FFE740F2C000C2F20000D8
:1053B000026840F2A420C2F20000805C40F2C80102
:1053C000C2F20001885445F29430C2F20000006835
:1053D000002319461A4603F035F9FFE70CE09DF863
:1053E000270040F2C001C2F200010A6840F2A42185
:1053F000C2F200018854FFE7FFE740F2C001C2F2A9
:1054000000010868013008603AE732E780B58AB0E9
:1054100009906420089014200790FFE70020069070
:105420000590049003900290142002F063F845F276
:105430009430C2F200000068502103F0BDFB02A8C6
:105440000190FFF72DFE01984AF6A461C0F6000115
:10545000896849688847E1E780B586B040F238112D
:10546000C2F20001002005900871086041F600407A
:10547000C4F20100039040210491FEF757FE022080
:1054800002F038F803980499FEF75AFE0598694629
:1054900048600420086045F2B540C0F600004BF2B9
:1054A0004A01C0F6000180220A2303F005FD06B080
:1054B00080BD000080B584B00390039818B1FFE769
:1054C0000398009002E014200090FFE700980290FB
:1054D000FFE702984FF47A71484344F6D351C1F282
:1054E0006201A0FB0110800902F004F841F60040BF
:1054F000C4F201008021FEF719FE00200190FFE7B1
:105500000198042828DCFFE7FFE743F60000C4F217
:105510000000022101F000F801280CD1FFE74EF64F
:105520000451CEF200014FF080500860BFF34F8F5E
:10553000BFF36F8FE9E7019940F23810C2F2000023
:10554000415C43F60000C4F2000000F0DBFFFFE71F
:10555000019801300190D3E741F60040C4F2010008
:105560008021FEF7EDFDB4E788B007900691059223
:10557000002004900798132843DCFFE70798C11721
:1055800000EB9170801003900798C11700EB9171A8
:1055900021F00301401A02900299032000FA01F35E
:1055A000039A40F23811C2F20001885C9843885493
:1055B000059818B3FFE706980090012804D0FFE78C
:1055C0000098022804D007E001208DF8070007E0CA
:1055D00002208DF8070003E000208DF80700FFE7A8
:1055E0009DF80700029900FA01F3039A40F238117E
:1055F000C2F20001885C18438854FFE70120049040
:10560000FFE7049808B0704780B582B00020019091
:1056100002F012FD02F062FC02F0EAFB02F076FDFD
:1056200002F0F6FA02F0AEFA40F2A802C2F200026C
:105630000820C4F20200009042F24C41C4F2010181
:10564000032302F0C9FA00980121FEF7E9F902F0FC
:1056500007FE02F095FC02F073FB02F089F902F0FC
:1056600083FD02F0FBF902F051FE02F0C7FAFFE7FA
:10567000FEE7000080B584B08DF80F000291019222
:1056800000200090FCF704FA0299019AFCF7F6F862
:1056900000909DF90F000099FCF724FA9DF90F0086
:1056A000FCF7D6F904B080BD80B582B08DF8070054
:1056B0009DF80700FCF738FA02B080BD80B584B0D1
:1056C0000390029145F2AC30C2F2000000680090F5
:1056D00040F24810C2F200000068043001F0F4FC0F
:1056E00008B9FFE700E0FFE70398013080B9FFE762
:1056F000029868B1FFE740F24810C2F2000000686B
:10570000011D45F29830C2F2000001F0B1FD3DE00C
:105710000098039908440190019840F24811C2F2A0
:105720000001096848600198009988420ED2FFE79D
:1057300040F25410C2F20000006840F24811C2F278
:1057400000010968043101F05DFD1EE040F25010D7
:10575000C2F20000006840F24811C2F2000109687C
:10576000043101F04FFD019845F23031C2F20001E1
:105770000968884207D2FFE7019845F23031C2F24A
:105780000001086000E0FFE7FFE7FFE704B080BD2D
:1057900080B582B0019001F089FD45F2BC21C2F2D2
:1057A000000108680130086040F24810C2F20000B1
:1057B000006898B9FFE7019840F24811C2F2000171
:1057C000086045F2BC20C2F200000068012803D145
:1057D000FFE700F037FA00E0FFE71CE045F2903009
:1057E000C2F200000068A0B9FFE740F24810C2F220
:1057F00000000068C06A0199C96A884207D8FFE7BB
:10580000019840F24811C2F20001086000E0FFE791
:1058100000E0FFE7FFE745F2C421C2F2000108689B
:10582000013008600198C06A45F2C821C2F2000147
:105830000968884208D9FFE70198C06A45F2C82183
:10584000C2F200010860FFE70199C86A00EB80021C
:1058500040F25C10C2F2000000EB8200043101F063
:1058600007FD01F04FFD45F29030C2F200000068E4
:10587000C8B1FFE740F24810C2F200000068C06AF9
:105880000199C96A88420CD2FFE74EF60451CEF264
:1058900000014FF080500860BFF34F8FBFF36F8F50
:1058A00000E0FFE700E0FFE702B080BD80B582B016
:1058B00001F0FCFC45F2B030C2F200000068B0BB61
:1058C000FFE745F2D820C2F20000009001F07AFC18
:1058D00045F2EC20C2F20000019001F073FC009947
:1058E000019840F24C12C2F20002116040F25811CD
:1058F000C2F2000108600A201021002202F0DEFD41
:10590000014645F2B030C2F200000160006860B1AB
:10591000FFE745F2B030C2F2000000684BF25901D7
:10592000C0F6000101F08AFD00E0FFE700E0FFE7BC
:1059300001F0E8FC02B080BD7047000080B582B085
:10594000019000910198006CB8B1FFE70199C86817
:105950000A6C1044C86001988168C068884204D30A
:10596000FFE701990868C86000E0FFE70098019A26
:10597000D168126CFAF783FDFFE702B080BD00002A
:1059800080B586B00590049103920020029005989E
:10599000806B01900598006C78B9FFE70598006866
:1059A00048B9FFE70598806803F0E8FB0290059985
:1059B0000020886000E0FFE741E00398B8B9FFE706
:1059C000059A04995068126CFAF759FD05994868D0
:1059D0000A6C10444860059948688968884204D375
:1059E000FFE705990868486000E0FFE726E0059AB0
:1059F0000499D068126CFAF742FD0599C8680A6CE0
:105A0000801AC86005980168C068884206D2FFE71E
:105A1000059988680A6C801AC86000E0FFE703985F
:105A2000022809D1FFE7019820B1FFE7019801386A
:105A3000019000E0FFE700E0FFE7FFE7FFE70198E4
:105A4000013005998863029806B080BD82B001904C
:105A50000198406A38B1FFE70198006B0068C0F117
:105A60001000009002E000200090FFE7009802B0D4
:105A70007047000082B0019040F24C10C2F200006A
:105A800000680068B0FA80F0400901990860019848
:105A9000006848B9FFE740F24C10C2F2000000680D
:105AA000C0680068009002E000200090FFE70098C6
:105AB00002B0704780B582B00190FFE7FFF73CFF6E
:105AC00040F25C10C2F20000006802280CD3FFE72D
:105AD0004EF60451CEF200014FF080500860BFF343
